HABAH98010026002100000000000000000000000000000000002022122190101AR1                 
CABAH980127702405  020024751573AMR     EDMI MK10E          0000300000        202212210000202212211                         0000          00010020005578581         
RABAH980127702405  0090000000000305068521005030     00000000622042000000000625072068KWH 00000100000000000000000000006284659000000006244509      
RABAH980127702405  0150000000000305068521601017     00000000004112000000000004128458KW  00000100000000000000000000000041477000000000041254      
RABAH980127702405  0060000000000305068520705111     00000001928601000000001937943062KWHX00000100000000000000000000000000000000000000000000      
RABAH980127702405  0080000000000305068520905020     00000000552165000000000554754068KWH 00000100000000000000000000005580023000000005543540      
RABAH980127702405  0140000000000305068521501016     00000000003675600000000003690858KW  00000100000000000000000000000037072000000000036874      
RABAH980127702405  0170000000000305068521802280     00000000000000800000000000000453KVRX00000100000000000000000000000000000000000000000000      
RABAH980127702405  0180000000000305068521901118     00000000000650800000000000651258KVR 00000100000000000000000000000006518000000000006511      
RABAH980127702405  0110000000000305068521202060     00000000000015200000000000015253KW X00000100000000000000000000000000000000000000000000      
RABAH980127702405  0050000000000305068520603096     00000000010800000000000010900080   X00000100000000000000000000000000000000000000000000      
RABAH980127702405  0100000000000305068521102050     00000000000035200000000000016453KW X00000100000000000000000000000000000000000000000000      
RABAH980127702405  0010000000000305068520206888     00000000000000000000000000000010   X00000100000000000000000000000000000000000000000000      
RABAH980127702405  0120000000000305068521302070     00000000000016400000000000016453KW X00000100000000000000000000000000000000000000000000      
RABAH980127702405  0130000000000305068521401015     00000000004242400000000004258858KW  00000100000000000000000000000042911000000000042606      
RABAH980127702405  0030000000000305068520406091_T   00000000035500000000000020900060   X00000100000000000000000000000000000000000000000000      
RABAH980127702405  0020000000000305068520306090_2D  00000020112200000000021122200060   X00000100000000000000000000000000000000000000000000      
RABAH980127702405  0070000000000305068520805010     00000000754394000000000758117068KWH 00000100000000000000000000007626542000000007574915      
RABAH980127702405  0040000000000305068520506095_1   00000000000000000000000000000020   X00000100000000000000000000000000000000000000000000      
RABAH980127702405  0160000000000305068521705222     00000000118876000000000118877053KVHX00000100000000000000000000000000000000000000000000      
CABAH980127702401  020005575277AMR     EDMI MK10E          0000300000129     202212210000202212211                         0000          0002000102501911000200    
RABAH980127702401  0020000000000305068880406090_2D  00000020112200000000021122200060   X00000100000000000000000000000000000000000000000000      
RABAH980127702401  0090000000000305068881105030     00000000169019000000000170622068KWH 00000100000000000000000000001718462000000001700792      
RABAH980127702401  0120000000000305068881402070     00000000000059600000000000060453KW X00000100000000000000000000000000000000000000000000      
RABAH980127702401  0140000000000305068881601016     00000000006873200000000006933258KW  00000100000000000000000000000069990000000000069203      
RABAH980127702401  0070000000000305068880905010     00000001206668000000001216771068KWH 00000100000000000000000000012310393000000012158072      
RABAH980127702401  0080000000000305068881005020     00000000272865000000000275068068KWH 00000100000000000000000000002781784000000002748575      
RABAH980127702401  0030000000000305068880506091_T   00000000035500000000000020900060   X00000100000000000000000000000000000000000000000000      
RABAH980127702401  0170000000000305068881902280     00000000000052400000000000049653KVRX00000100000000000000000000000000000000000000000000      
RABAH980127702401  0050000000000305068880703096     00000000010900000000000011000080   X00000100000000000000000000000000000000000000000000      
RABAH980127702401  0110000000000305068881302060     00000000000062400000000000060053KW X00000100000000000000000000000000000000000000000000      
RABAH980127702401  0010000000000305068880306888     00000000000000000000000000000010   X00000100000000000000000000000000000000000000000000      
RABAH980127702401  0100000000000305068881202050     00000000000067200000000000066453KW X00000100000000000000000000000000000000000000000000      
RABAH980127702401  0180000000000305068882001118     00000000005448400000000005498058KVR 00000100000000000000000000000000000000000000000000      
RABAH980127702401  0060000000000305068880805111     00000001648552000000001662461062KWHX00000100000000000000000000000000000000000000000000      
RABAH980127702401  0160000000000305068881805222     00000000904392000000000912329053KVHX00000100000000000000000000000000000000000000000000      
RABAH980127702401  0040000000000305068880606095_1   00000000000000000000000000000020   X00000100000000000000000000000000000000000000000000      
RABAH980127702401  0130000000000305068881501015     00000000007612800000000007679258KW  00000100000000000000000000000077474000000000076632      
RABAH980127702401  0150000000000305068881701017     00000000002481600000000002542058KW  00000100000000000000000000000025304000000000024999      
CABAH980127667234  020005578401AMR     EDMI MK10E          0004000000308     202212210000202212211                         0000          0007000102501911000700    
RABAH980127667234  0090000000000305072022505030     00000000240178000000000242421068KWH 00000100000000000000000000002447993000000002419110      
RABAH980127667234  0160000000000305072023205222     00000000415411000000000418447053KVHX00000100000000000000000000000000000000000000000000      
RABAH980127667234  0180000000000305072023401118     00000000001022000000000001030458KVR 00000100000000000000000000000010396000000000010286      
RABAH980127667234  0110000000000305072022702060     00000000000030000000000000028853KW X00000100000000000000000000000000000000000000000000      
RABAH980127667234  0080000000000305072022405020     00000000202201000000000204160068KWH 00000100000000000000000000002064953000000002038113      
RABAH980127667234  0140000000000305072023001016     00000000002682800000000002711658KW  00000100000000000000000000000027452000000000027062      
RABAH980127667234  0040000000000305072022006095_1   00000000000000000000000000000020   X00000100000000000000000000000000000000000000000000      
RABAH980127667234  0170000000000305072023302280     00000000000008800000000000008453KVRX00000100000000000000000000000000000000000000000000      
RABAH980127667234  0100000000000305072022602050     00000000000034000000000000033653KW X00000100000000000000000000000000000000000000000000      
RABAH980127667234  0010000000000305072021706888     00000000000000000000000000000010   X00000100000000000000000000000000000000000000000000      
RABAH980127667234  0060000000000305072022205111     00000000886628000000000894841062KWHX00000100000000000000000000000000000000000000000000      
RABAH980127667234  0130000000000305072022901015     00000000003491600000000003525258KW  00000100000000000000000000000035646000000000035189      
RABAH980127667234  0150000000000305072023101017     00000000002456000000000002482858KW  00000100000000000000000000000025154000000000024782      
RABAH980127667234  0050000000000305072022103096     00000000010800000000000010900080   X00000100000000000000000000000000000000000000000000      
RABAH980127667234  0020000000000305072021806090_2D  00000020112200000000021122200060   X00000100000000000000000000000000000000000000000000      
RABAH980127667234  0070000000000305072022305010     00000000444249000000000448260068KWH 00000100000000000000000000004534938000000004477158      
RABAH980127667234  0030000000000305072021906091_T   00000000035500000000000020900060   X00000100000000000000000000000000000000000000000000      
RABAH980127667234  0120000000000305072022802070     00000000000025600000000000026853KW X00000100000000000000000000000000000000000000000000      
CABAH980127667235  020005578453AMR     EDMI MK10E          0004000000124/1   202212210000202212211                         0000          0009000102501911000900    
RABAH980127667235  0050000000000305073667903096     00000000010800000000000010900080   X00000100000000000000000000000000000000000000000000      
RABAH980127667235  0020000000000305073667606090_2D  00000020112200000000021122200060   X00000100000000000000000000000000000000000000000000      
RABAH980127667235  0160000000000305073669005222     00000000072337000000000072382053KVHX00000100000000000000000000000000000000000000000000      
RABAH980127667235  0110000000000305073668502060     00000000000009200000000000003653KW X00000100000000000000000000000000000000000000000000      
RABAH980127667235  0070000000000305073668105010     00000000066538000000000067014068KWH 00000100000000000000000000000679452000000000670657      
RABAH980127667235  0180000000000305073669201118     00000000000402800000000000403258KVR 00000100000000000000000000000004089000000000004051      
RABAH980127667235  0080000000000305073668205020     00000000041378000000000041664068KWH 00000100000000000000000000000422064000000000416886      
RABAH980127667235  0100000000000305073668402050     00000000000010800000000000003653KW X00000100000000000000000000000000000000000000000000      
RABAH980127667235  0140000000000305073668801016     00000000000635600000000000639258KW  00000100000000000000000000000006500000000000006410      
RABAH980127667235  0030000000000305073667706091_T   00000000035500000000000020900060   X00000100000000000000000000000000000000000000000000      
RABAH980127667235  0040000000000305073667806095_1   00000000000000000000000000000020   X00000100000000000000000000000000000000000000000000      
RABAH980127667235  0150000000000305073668901017     00000000000660800000000000662458KW  00000100000000000000000000000006730000000000006653      
RABAH980127667235  0170000000000305073669102280     00000000000004000000000000000453KVRX00000100000000000000000000000000000000000000000000      
RABAH980127667235  0010000000000305073667506888     00000000000000000000000000000010   X00000100000000000000000000000000000000000000000000      
RABAH980127667235  0130000000000305073668701015     00000000000834400000000000838058KW  00000100000000000000000000000008514000000000008407      
RABAH980127667235  0090000000000305073668305030     00000000040706000000000040970068KWH 00000100000000000000000000000414268000000000409763      
RABAH980127667235  0120000000000305073668602070     00000000000009200000000000001653KW X00000100000000000000000000000000000000000000000000      
RABAH980127667235  0060000000000305073668005111     00000000148622000000000149648062KWHX00000100000000000000000000000000000000000000000000      
CABAH980127702420  020005588294AMR     EDMI MK10E          0000300000240     202212210000202212211                         0000          0010000102501997001000    
RABAH980127702420  0020000000000305071038606090_2D  00000020112200000000021122200060   X00000100000000000000000000000000000000000000000000      
RABAH980127702420  0090000000000305071039305030     00000000605701000000000612419068KWH 00000100000000000000000000006195303000000006108869      
RABAH980127702420  0010000000000305071038506888     00000000000000000000000000000010   X00000100000000000000000000000000000000000000000000      
RABAH980127702420  0180000000000305071090201118     00000000002536400000000002576458KVR 00000100000000000000000000000026166000000000025664      
RABAH980127702420  0060000000000305071039005111     00000001801662000000001822931062KWHX00000100000000000000000000000000000000000000000000      
RABAH980127702420  0100000000000305071039402050     00000000000070000000000000054053KW X00000100000000000000000000000000000000000000000000      
RABAH980127702420  0120000000000305071039602070     00000000000058800000000000062853KW X00000100000000000000000000000000000000000000000000      
RABAH980127702420  0170000000000305071090102280     00000000000044000000000000040053KVRX00000100000000000000000000000000000000000000000000      
RABAH980127702420  0160000000000305071040005222     00000000763284000000000776002053KVHX00000100000000000000000000000000000000000000000000      
RABAH980127702420  0130000000000305071039701015     00000000005602400000000005656458KW  00000100000000000000000000000057271000000000056491      
RABAH980127702420  0080000000000305071039205020     00000000727584000000000735856068KWH 00000100000000000000000000007433587000000007334995      
RABAH980127702420  0040000000000305071038806095_1   00000000000000000000000000000020   X00000100000000000000000000000000000000000000000000      
RABAH980127702420  0030000000000305071038706091_T   00000000035500000000000020900060   X00000100000000000000000000000000000000000000000000      
RABAH980127702420  0050000000000305071038903096     00000000010800000000000010900080   X00000100000000000000000000000000000000000000000000      
RABAH980127702420  0070000000000305071039105010     00000000468377000000000474656068KWH 00000100000000000000000000004837550000000004741437      
RABAH980127702420  0150000000000305071039901017     00000000005860400000000005923258KW  00000100000000000000000000000059781000000000059045      
RABAH980127702420  0110000000000305071039502060     00000000000062800000000000062853KW X00000100000000000000000000000000000000000000000000      
RABAH980127702420  0140000000000305071039801016     00000000005859200000000005922058KW  00000100000000000000000000000059795000000000059043      
CABAH980127702403  020005578471AMR     EDMI MK10E          0000800000        000000000000000000000                         0000          0010000102501911001000    
RABAH980127702403  0010000000000305069170006888     00000000000000000000000000000010   X00000100000000000000000000000000000000000000000000      
RABAH980127702403  0040000000000305069220406095_1   00000000112200000000000000000020   X00000100000000000000000000000000000000000000000000      
RABAH980127702403  0130000000000305069221401015     00000000018885200000000000000058KW  00000100000000000000000000000191389000000000189803      
RABAH980127702403  0030000000000305069220206091_T   00000000104000000000000000000060   X00000100000000000000000000000000000000000000000000      
RABAH980127702403  0180000000000305069221901118     00000000009524800000000000000058KVR 00000100000000000000000000000095248000000000095248      
RABAH980127702403  0060000000000305069220605111     00000003218604000000000000000062KWHX00000100000000000000000000000000000000000000000000      
RABAH980127702403  0080000000000305069220905020     00000000328971000000000000000068KWH 00000100000000000000000000003312622000000003298302      
RABAH980127702403  0050000000000305069220503096     00000000010800000000000000000080   X00000100000000000000000000000000000000000000000000      
RABAH980127702403  0110000000000305069221202060     00000000000188400000000000000053KW X00000100000000000000000000000000000000000000000000      
RABAH980127702403  0100000000000305069221102050     00000000000185200000000000000053KW X00000100000000000000000000000000000000000000000000      
RABAH980127702403  0150000000000305069221601017     00000000018654000000000000000058KW  00000100000000000000000000000189105000000000187501      
RABAH980127702403  0160000000000305069221705222     00000001593120000000000000000053KVHX00000100000000000000000000000000000000000000000000      
RABAH980127702403  0090000000000305069221005030     00000000953781000000000000000068KWH 00000100000000000000000000009590091000000009557415      
RABAH980127702403  0070000000000305069220705010     00000001935852000000000000000068KWH 00000100000000000000000000019506813000000019414129      
RABAH980127702403  0170000000000305069221802280     00000000000094000000000000000053KVRX00000100000000000000000000000000000000000000000000      
RABAH980127702403  0120000000000305069221302070     00000000000187600000000000000053KW X00000100000000000000000000000000000000000000000000      
RABAH980127702403  0140000000000305069221501016     00000000018881600000000000000058KW  00000100000000000000000000000191371000000000189774      
RABAH980127702403  0020000000000305069220106090_2D  00000020112200000000000000000060   X00000100000000000000000000000000000000000000000000      
CABAH980127702404  020005578528AMR     EDMI MK10E          0000800000        000000000000000000000                         0000          0011000102501911001100    
RABAH980127702404  0040000000000305069509706095_1   00000020112200000000000000000020   X00000100000000000000000000000000000000000000000000      
RABAH980127702404  0020000000000305069509506090_2D  00000020112200000000000000000060   X00000100000000000000000000000000000000000000000000      
RABAH980127702404  0140000000000305069570801016     00000000014208000000000000000058KW  00000100000000000000000000000144442000000000142965      
RABAH980127702404  0060000000000305069509905111     00000001940296000000000000000062KWHX00000100000000000000000000000000000000000000000000      
RABAH980127702404  0160000000000305069571005222     00000001166906000000000000000053KVHX00000100000000000000000000000000000000000000000000      
RABAH980127702404  0110000000000305069570502060     00000000000173600000000000000053KW X00000100000000000000000000000000000000000000000000      
RABAH980127702404  0080000000000305069570105020     00000000331347000000000000000068KWH 00000100000000000000000000003333570000000003321007      
RABAH980127702404  0180000000000305069571201118     00000000009238400000000000000058KVR 00000100000000000000000000000092384000000000092384      
RABAH980127702404  0120000000000305069570602070     00000000000174000000000000000053KW X00000100000000000000000000000000000000000000000000      
RABAH980127702404  0170000000000305069571102280     00000000000126400000000000000053KVRX00000100000000000000000000000000000000000000000000      
RABAH980127702404  0010000000000305069509406888     00000000000000000000000000000010   X00000100000000000000000000000000000000000000000000      
RABAH980127702404  0030000000000305069509606091_T   00000000120500000000000000000060   X00000100000000000000000000000000000000000000000000      
RABAH980127702404  0070000000000305069510005010     00000001051662000000000000000068KWH 00000100000000000000000000010596110000000010546429      
RABAH980127702404  0050000000000305069509803096     00000000010700000000000000000080   X00000100000000000000000000000000000000000000000000      
RABAH980127702404  0100000000000305069570402050     00000000000173600000000000000053KW X00000100000000000000000000000000000000000000000000      
RABAH980127702404  0150000000000305069570901017     00000000013664000000000000000058KW  00000100000000000000000000000139006000000000137527      
RABAH980127702404  0090000000000305069570305030     00000000557287000000000000000068KWH 00000100000000000000000000005624692000000005592303      
RABAH980127702404  0130000000000305069570701015     00000000014363200000000000000058KW  00000100000000000000000000000145997000000000144518      
CABAH98016000550003020005590360AMR     EDMI MK10E          0000500000        202212210000202212211                         0000          0011000102501997001100    
RABAH980160005500030030000000000305071415606091_T   00000000035500000000000020900060   X00000100000000000000000000000000000000000000000000      
RABAH980160005500030040000000000305071415706095_1   00000000000000000000000000000020   X00000100000000000000000000000000000000000000000000      
RABAH980160005500030060000000000305071415905111     00000000224660000000000224846062KWHX00000100000000000000000000000000000000000000000000      
RABAH980160005500030020000000000305071415506090_2D  00000020112200000000021122200060   X00000100000000000000000000000000000000000000000000      
RABAH980160005500030170000000000305071417102280     00000000000000400000000000000453KVRX00000100000000000000000000000000000000000000000000      
RABAH980160005500030010000000000305071415406888     00000000000000000000000000000010   X00000100000000000000000000000000000000000000000000      
RABAH980160005500030180000000000305071417201118     00000000002460200000000002460658KVR 00000100000000000000000000000024602000000000024602      
RABAH980160005500030130000000000305071416601015     00000000004845400000000004846858KW  00000100000000000000000000000048484000000000048465      
RABAH980160005500030120000000000305071416502070     00000000000001200000000000001353KW X00000100000000000000000000000000000000000000000000      
RABAH980160005500030080000000000305071416105020     00000000018652000000000018707068KWH 00000100000000000000000000000188456000000000187246      
RABAH980160005500030150000000000305071416801017     00000000003167800000000003169158KW  00000100000000000000000000000031710000000000031690      
RABAH980160005500030140000000000305071416701016     00000000004831500000000004833658KW  00000100000000000000000000000048345000000000048326      
RABAH980160005500030090000000000305071416205030     00000000066313000000000066372068KWH 00000100000000000000000000000665102000000000663869      
RABAH980160005500030070000000000305071416005010     00000000139695000000000139767068KWH 00000100000000000000000000001399432000000001397880      
RABAH980160005500030050000000000305071415803096     00000000005100000000000005200080   X00000100000000000000000000000000000000000000000000      
RABAH980160005500030100000000000305071416302050     00000000000001200000000000001453KW X00000100000000000000000000000000000000000000000000      
RABAH980160005500030160000000000305071416905222     00000000109243000000000109304062KVHX00000100000000000000000000000000000000000000000000      
RABAH980160005500030110000000000305071416402060     00000000000001100000000000002153KW X00000100000000000000000000000000000000000000000000      
CABAH980127702422  020005590375AMR     EDMI MK10E          0000300000255/1   202212210000202212211                         0000          0012000102501997001200    
RABAH980127702422  0130000000000305071689501015     00000000010366800000000010429658KW  00000100000000000000000000000104937000000000104144      
RABAH980127702422  0050000000000305071688703096     00000000010800000000000010900080   X00000100000000000000000000000000000000000000000000      
RABAH980127702422  0120000000000305071689402070     00000000000032000000000000029253KW X00000100000000000000000000000000000000000000000000      
RABAH980127702422  0010000000000305071688306888     00000000000000000000000000000010   X00000100000000000000000000000000000000000000000000      
RABAH980127702422  0080000000000305071689005020     00000000328696000000000331136068KWH 00000100000000000000000000003346247000000003309192      
RABAH980127702422  0160000000000305071689805222     00000000678238000000000678558053KVHX00000100000000000000000000000000000000000000000000      
RABAH980127702422  0070000000000305071688905010     00000001407506000000001415225068KWH 00000100000000000000000000014275204000000014150114      
RABAH980127702422  0100000000000305071689202050     00000000000060400000000000062853KW X00000100000000000000000000000000000000000000000000      
RABAH980127702422  0020000000000305071688406090_2D  00000020112200000000021122200060   X00000100000000000000000000000000000000000000000000      
RABAH980127702422  0170000000000305071689902280     00000000000011600000000000011253KVRX00000100000000000000000000000000000000000000000000      
RABAH980127702422  0030000000000305071688506091_T   00000000035500000000000020900060   X00000100000000000000000000000000000000000000000000      
RABAH980127702422  0140000000000305071689601016     00000000008756000000000008805258KW  00000100000000000000000000000088669000000000087976      
RABAH980127702422  0180000000000305071690001118     00000000004627600000000004638858KVR 00000100000000000000000000000046516000000000046366      
RABAH980127702422  0090000000000305071689105030     00000000229427000000000231394068KWH 00000100000000000000000000002333760000000002309078      
RABAH980127702422  0150000000000305071689701017     00000000004876000000000004905258KW  00000100000000000000000000000049557000000000049059      
RABAH980127702422  0060000000000305071688805111     00000001965629000000001977755062KWHX00000100000000000000000000000000000000000000000000      
RABAH980127702422  0110000000000305071689302060     00000000000047200000000000049253KW X00000100000000000000000000000000000000000000000000      
RABAH980127702422  0040000000000305071688606095_1   00000000000000000000000000000020   X00000100000000000000000000000000000000000000000000      
CABAH980127667233  020005575227AMR     EDMI MK10E          0004000000204/1   202212210000202212211                         0000          0012000102501911000130    
RABAH980127667233  0040000000000305073341806095_1   00000000000000000000000000000020   X00000100000000000000000000000000000000000000000000      
RABAH980127667233  0170000000000305073343102280     00000000000003200000000000003253KVRX00000100000000000000000000000000000000000000000000      
RABAH980127667233  0030000000000305073341706091_T   00000000035500000000000020900060   X00000100000000000000000000000000000000000000000000      
RABAH980127667233  0130000000000305073342701015     00000000000762000000000000768458KW  00000100000000000000000000000007749000000000007668      
RABAH980127667233  0020000000000305073341606090_2D  00000020112200000000021122200060   X00000100000000000000000000000000000000000000000000      
RABAH980127667233  0080000000000305073342205020     00000000031340000000000031586068KWH 00000100000000000000000000000318975000000000315490      
RABAH980127667233  0090000000000305073342305030     00000000032348000000000032610068KWH 00000100000000000000000000000328851000000000325494      
RABAH980127667233  0100000000000305073342402050     00000000000006000000000000006453KW X00000100000000000000000000000000000000000000000000      
RABAH980127667233  0160000000000305073343005222     00000000192987000000000194522053KVHX00000100000000000000000000000000000000000000000000      
RABAH980127667233  0110000000000305073342502060     00000000000002400000000000002453KW X00000100000000000000000000000000000000000000000000      
RABAH980127667233  0060000000000305073342005111     00000000128851000000000129753062KWHX00000100000000000000000000000000000000000000000000      
RABAH980127667233  0050000000000305073341903096     00000000010800000000000010900080   X00000100000000000000000000000000000000000000000000      
RABAH980127667233  0180000000000305073343201118     00000000000462800000000000466058KVR 00000100000000000000000000000004694000000000004652      
RABAH980127667233  0150000000000305073342901017     00000000000435200000000000438458KW  00000100000000000000000000000004441000000000004385      
RABAH980127667233  0070000000000305073342105010     00000000065163000000000065557068KWH 00000100000000000000000000000661846000000000655461      
RABAH980127667233  0010000000000305073341506888     00000000000000000000000000000010   X00000100000000000000000000000000000000000000000000      
RABAH980127667233  0140000000000305073342801016     00000000000375200000000000377658KW  00000100000000000000000000000003805000000000003772      
RABAH980127667233  0120000000000305073342602070     00000000000002800000000000003253KW X00000100000000000000000000000000000000000000000000      
CABAH980127667236  020005581466AMR     EDMI MK10E          0008000000229     202212210000202212211                         0000          0013000102501911001300    
RABAH980127667236  0110000000000305074027702060     00000000000004400000000000004053KW X00000100000000000000000000000000000000000000000000      
RABAH980127667236  0050000000000305074027103096     00000000010800000000000010900080   X00000100000000000000000000000000000000000000000000      
RABAH980127667236  0080000000000305074027405020     00000000032873000000000033208068KWH 00000100000000000000000000000335188000000000331152      
RABAH980127667236  0140000000000305074028001016     00000000000455200000000000459258KW  00000100000000000000000000000004630000000000004581      
RABAH980127667236  0060000000000305074027205111     00000000133183000000000134568062KWHX00000100000000000000000000000000000000000000000000      
RABAH980127667236  0130000000000305074027901015     00000000000669600000000000676858KW  00000100000000000000000000000006826000000000006744      
RABAH980127667236  0070000000000305074027305010     00000000072743000000000073500068KWH 00000100000000000000000000000742258000000000732990      
RABAH980127667236  0160000000000305074028205222     00000000130732000000000131877053KVHX00000100000000000000000000000000000000000000000000      
RABAH980127667236  0120000000000305074027802070     00000000000002400000000000002453KW X00000100000000000000000000000000000000000000000000      
RABAH980127667236  0180000000000305074028401118     00000000000467200000000000471258KVR 00000100000000000000000000000004750000000000004701      
RABAH980127667236  0030000000000305074026906091_T   00000000035500000000000020900060   X00000100000000000000000000000000000000000000000000      
RABAH980127667236  0040000000000305074027006095_1   00000000000000000000000000000020   X00000100000000000000000000000000000000000000000000      
RABAH980127667236  0010000000000305074026706888     00000000000000000000000000000010   X00000100000000000000000000000000000000000000000000      
RABAH980127667236  0170000000000305074028302280     00000000000005200000000000004053KVRX00000100000000000000000000000000000000000000000000      
RABAH980127667236  0100000000000305074027602050     00000000000006800000000000007253KW X00000100000000000000000000000000000000000000000000      
RABAH980127667236  0150000000000305074028101017     00000000000281600000000000284058KW  00000100000000000000000000000002867000000000002835      
RABAH980127667236  0020000000000305074026806090_2D  00000020112200000000021122200060   X00000100000000000000000000000000000000000000000000      
RABAH980127667236  0090000000000305074027505030     00000000027567000000000027860068KWH 00000100000000000000000000000280543000000000277497      
CABAH98016201225224020005581907AMR     EDMI MK10E          0000500000241     202212210000202212211                         0000          0014000102501911001400    
RABAH980162012252240160000000000305076850805222     00000000094588000000000097081062KVHX00000100000000000000000000000000000000000000000000      
RABAH980162012252240060000000000305076799805111     00000000138625000000000142178062KWHX00000100000000000000000000000000000000000000000000      
RABAH980162012252240170000000000305076850902280     00000000000018400000000000021753KVRX00000100000000000000000000000000000000000000000000      
RABAH980162012252240130000000000305076850501015     00000000001434400000000001459958KW  00000100000000000000000000000014969000000000014578      
RABAH980162012252240010000000000305076799306888     00000000000000000000000000000010   X00000100000000000000000000000000000000000000000000      
RABAH980162012252240070000000000305076799905010     00000000076731000000000078677068KWH 00000100000000000000000000000810578000000000783535      
RABAH980162012252240120000000000305076850402070     00000000000004100000000000003953KW X00000100000000000000000000000000000000000000000000      
RABAH980162012252240150000000000305076850701017     00000000000340700000000000344658KW  00000100000000000000000000000003491000000000003438      
RABAH980162012252240100000000000305076850202050     00000000000026300000000000025553KW X00000100000000000000000000000000000000000000000000      
RABAH980162012252240020000000000305076799406090_2D  00000020112200000000021122200060   X00000100000000000000000000000000000000000000000000      
RABAH980162012252240050000000000305076799703096     00000000003300000000000003400080   X00000100000000000000000000000000000000000000000000      
RABAH980162012252240090000000000305076850105030     00000000024676000000000025279068KWH 00000100000000000000000000000257662000000000250848      
RABAH980162012252240030000000000305076799506091_T   00000000035500000000000020900060   X00000100000000000000000000000000000000000000000000      
RABAH980162012252240180000000000305076851001118     00000000000932900000000000954658KVR 00000100000000000000000000000009733000000000009480      
RABAH980162012252240040000000000305076799606095_1   00000000000000000000000000000020   X00000100000000000000000000000000000000000000000000      
RABAH980162012252240080000000000305076800005020     00000000037218000000000038222068KWH 00000100000000000000000000000391613000000000379467      
RABAH980162012252240140000000000305076850601016     00000000000501800000000000520658KW  00000100000000000000000000000005200000000000005086      
RABAH980162012252240110000000000305076850302060     00000000000009200000000000018853KW X00000100000000000000000000000000000000000000000000      
CABAH980127702423  020005582097AMR     EDMI MK10E          0000300000240     202212210000202212211                         0000          0014500102501911001500    
RABAH980127702423  0090000000000305069852505030     00000000548265000000000553860068KWH 00000100000000000000000000005578199000000005518481      
RABAH980127702423  0170000000000305069853302280     00000000000070400000000000070053KVRX00000100000000000000000000000000000000000000000000      
RABAH980127702423  0050000000000305069852103096     00000000010800000000000010900080   X00000100000000000000000000000000000000000000000000      
RABAH980127702423  0150000000000305069853101017     00000000008316000000000008391258KW  00000100000000000000000000000084536000000000083676      
RABAH980127702423  0130000000000305069852901015     00000000009352000000000009436858KW  00000100000000000000000000000095077000000000094104      
RABAH980127702423  0040000000000305069852006095_1   00000000000000000000000000000020   X00000100000000000000000000000000000000000000000000      
RABAH980127702423  0060000000000305069852205111     00000001841760000000001860327062KWHX00000100000000000000000000000000000000000000000000      
RABAH980127702423  0100000000000305069852602050     00000000000085200000000000084853KW X00000100000000000000000000000000000000000000000000      
RABAH980127702423  0080000000000305069852405020     00000000514070000000000519029068KWH 00000100000000000000000000005228151000000005173494      
RABAH980127702423  0110000000000305069852702060     00000000000077200000000000077253KW X00000100000000000000000000000000000000000000000000      
RABAH980127702423  0180000000000305069853401118     00000000008483200000000008553258KVR 00000100000000000000000000000086059000000000085292      
RABAH980127702423  0070000000000305069852305010     00000000779425000000000787438068KWH 00000100000000000000000000007941930000000007849630      
RABAH980127702423  0140000000000305069853001016     00000000008336800000000008414058KW  00000100000000000000000000000084705000000000083869      
RABAH980127702423  0160000000000305069853205222     00000001619177000000001634365053KVHX00000100000000000000000000000000000000000000000000      
RABAH980127702423  0120000000000305069852802070     00000000000079600000000000075253KW X00000100000000000000000000000000000000000000000000      
RABAH980127702423  0020000000000305069851806090_2D  00000020112200000000021122200060   X00000100000000000000000000000000000000000000000000      
RABAH980127702423  0010000000000305069851706888     00000000000000000000000000000010   X00000100000000000000000000000000000000000000000000      
RABAH980127702423  0030000000000305069851906091_T   00000000035500000000000020900060   X00000100000000000000000000000000000000000000000000      
CABAH98016500202527020019816631AMR     EDMI MK10E          0000500000        202212210000202212211                         0000          0015000102501997001500    
RABAH980165002025270130000000000305075908601015     00000000000189800000000000321658KW  00000100000000000000000000000003024000000000002320      
RABAH980165002025270150000000000305075908801017     00000000000101300000000000113758KW  00000100000000000000000000000001597000000000001232      
RABAH980165002025270100000000000305075908302050     00000000000034400000000000131753KW X00000100000000000000000000000000000000000000000000      
RABAH980165002025270160000000000305075908905222     00000000001119000000000002153062KVHX00000100000000000000000000000000000000000000000000      
RABAH980165002025270060000000000305075907905111     00000000024716000000000026925062KWHX00000100000000000000000000000000000000000000000000      
RABAH980165002025270080000000000305075908105020     00000000007746000000000008210068KWH 00000100000000000000000000000126420000000000095820      
RABAH980165002025270170000000000305075909002280     00000000000005000000000000083453KVRX00000100000000000000000000000000000000000000000000      
RABAH980165002025270180000000000305075909101118     00000000000067300000000000150758KVR 00000100000000000000000000000000673000000000000673      
RABAH980165002025270050000000000305075907803096     00000000000500000000000000600080   X00000100000000000000000000000000000000000000000000      
RABAH980165002025270070000000000305075908005010     00000000009481000000000010489068KWH 00000100000000000000000000000153640000000000116871      
RABAH980165002025270110000000000305075908402060     00000000000033500000000000012053KW X00000100000000000000000000000000000000000000000000      
RABAH980165002025270020000000000305075907506090_2D  00000020112200000000021122200060   X00000100000000000000000000000000000000000000000000      
RABAH980165002025270120000000000305075908502070     00000000000040600000000000012453KW X00000100000000000000000000000000000000000000000000      
RABAH980165002025270040000000000305075907706095_1   00000000000000000000000000000020   X00000100000000000000000000000000000000000000000000      
RABAH980165002025270140000000000305075908701016     00000000000099500000000000111558KW  00000100000000000000000000000001507000000000001187      
RABAH980165002025270090000000000305075908205030     00000000007489000000000008226068KWH 00000100000000000000000000000129983000000000095550      
RABAH980165002025270010000000000305075907406888     00000000000000000000000000000010   X00000100000000000000000000000000000000000000000000      
RABAH980165002025270030000000000305075907606091_T   00000000035500000000000020900060   X00000100000000000000000000000000000000000000000000      
CABAH980127702408  020005582143AMR     EDMI MK10E          0000300000129     202212210000202212211                         0000          0017000102501911001700    
RABAH980127702408  0170000000000305074830302280     00000000000059200000000000050453KVRX00000100000000000000000000000000000000000000000000      
RABAH980127702408  0080000000000305074779405020     00000000295896000000000298001068KWH 00000100000000000000000000003015222000000002980058      
RABAH980127702408  0180000000000305074830501118     00000000006480400000000006530858KVR 00000100000000000000000000000066030000000000065263      
RABAH980127702408  0060000000000305074779205111     00000001950534000000001962481062KWHX00000100000000000000000000000000000000000000000000      
RABAH980127702408  0150000000000305074830101017     00000000004753600000000004794858KW  00000100000000000000000000000049002000000000048085      
RABAH980127702408  0020000000000305074778806090_2D  00000020112200000000021122200060   X00000100000000000000000000000000000000000000000000      
RABAH980127702408  0090000000000305074779505030     00000000257882000000000259463068KWH 00000100000000000000000000002622105000000002595052      
RABAH980127702408  0160000000000305074830205222     00000001175671000000001182580053KVHX00000100000000000000000000000000000000000000000000      
RABAH980127702408  0120000000000305074779802070     00000000000021600000000000041253KW X00000100000000000000000000000000000000000000000000      
RABAH980127702408  0030000000000305074778906091_T   00000000035500000000000020900060   X00000100000000000000000000000000000000000000000000      
RABAH980127702408  0100000000000305074779602050     00000000000132800000000000114053KW X00000100000000000000000000000000000000000000000000      
RABAH980127702408  0040000000000305074779006095_1   00000000000000000000000000000020   X00000100000000000000000000000000000000000000000000      
RABAH980127702408  0010000000000305074778706888     00000000000000000000000000000010   X00000100000000000000000000000000000000000000000000      
RABAH980127702408  0140000000000305074780001016     00000000007396800000000007431258KW  00000100000000000000000000000075039000000000074369      
RABAH980127702408  0050000000000305074779103096     00000000010800000000000010900080   X00000100000000000000000000000000000000000000000000      
RABAH980127702408  0130000000000305074779901015     00000000015968400000000016082458KW  00000100000000000000000000000162670000000000160803      
RABAH980127702408  0110000000000305074779702060     00000000000048000000000000034453KW X00000100000000000000000000000000000000000000000000      
RABAH980127702408  0070000000000305074779305010     00000001396756000000001405017068KWH 00000100000000000000000000014241061000000014070123      
CABAH980127702410  020016934680AMR     EDMI MK10E          0000500000305     202212210000202212211                         0000          00180001025019012002600   
RABAH980127702410  0130000000000305072730801015     00000000004257200000000004296858KW  00000100000000000000000000000043221000000000042815      
RABAH980127702410  0110000000000305072730602060     00000000000018000000000000022853KW X00000100000000000000000000000000000000000000000000      
RABAH980127702410  0170000000000305072731202280     00000000000017600000000000022853KVRX00000100000000000000000000000000000000000000000000      
RABAH980127702410  0090000000000305072730305030     00000000140950000000000141849068KWH 00000100000000000000000000001413769000000001411100      
RABAH980127702410  0050000000000305072679903096     00000000011000000000000011100080   X00000100000000000000000000000000000000000000000000      
RABAH980127702410  0060000000000305072680005111     00000000681775000000000686929062KWHX00000100000000000000000000000000000000000000000000      
RABAH980127702410  0020000000000305072679606090_2D  00000020112200000000021122200060   X00000100000000000000000000000000000000000000000000      
RABAH980127702410  0030000000000305072679706091_T   00000000035500000000000020900060   X00000100000000000000000000000000000000000000000000      
RABAH980127702410  0080000000000305072730205020     00000000133866000000000134355068KWH 00000100000000000000000000001344377000000001340804      
RABAH980127702410  0140000000000305072730901016     00000000003346000000000003368858KW  00000100000000000000000000000033859000000000033609      
RABAH980127702410  0160000000000305072731105222     00000000482478000000000485951053KVHX00000100000000000000000000000000000000000000000000      
RABAH980127702410  0040000000000305072679806095_1   00000000000000000000000000000020   X00000100000000000000000000000000000000000000000000      
RABAH980127702410  0010000000000305072679506888     00000000000000000000000000000010   X00000100000000000000000000000000000000000000000000      
RABAH980127702410  0100000000000305072730502050     00000000000027200000000000039653KW X00000100000000000000000000000000000000000000000000      
RABAH980127702410  0150000000000305072731001017     00000000002438800000000002472458KW  00000100000000000000000000000024748000000000024523      
RABAH980127702410  0070000000000305072730105010     00000000406959000000000410725068KWH 00000100000000000000000000004103003000000004082120      
RABAH980127702410  0120000000000305072730702070     00000000000014800000000000033653KW X00000100000000000000000000000000000000000000000000      
RABAH980127702410  0180000000000305072731301118     00000000002206000000000002228858KVR 00000100000000000000000000000022449000000000022206      
CABAH980127702409  020005585685AMR     EDMI MK10E          0000500000        202212210000202212211                         0000          0021000102501911002100    
RABAH980127702409  0130000000000305074399401015     00000000020037600000000020190858KW  00000100000000000000000000000204110000000000201776      
RABAH980127702409  0040000000000305074398406095_1   00000000000000000000000000000020   X00000100000000000000000000000000000000000000000000      
RABAH980127702409  0080000000000305074398905020     00000000279492000000000281540068KWH 00000100000000000000000000002845924000000002814046      
RABAH980127702409  0140000000000305074399501016     00000000007374000000000007428058KW  00000100000000000000000000000075391000000000074359      
RABAH980127702409  0170000000000305074399802280     00000000000060000000000000056053KVRX00000100000000000000000000000000000000000000000000      
RABAH980127702409  0180000000000305074400001118     00000000007467600000000007523658KVR 00000100000000000000000000000075945000000000075152      
RABAH980127702409  0160000000000305074399705222     00000001122680000000001128008053KVHX00000100000000000000000000000000000000000000000000      
RABAH980127702409  0030000000000305074398306091_T   00000000035500000000000020900060   X00000100000000000000000000000000000000000000000000      
RABAH980127702409  0150000000000305074399601017     00000000007324400000000007358858KW  00000100000000000000000000000074220000000000073610      
RABAH980127702409  0070000000000305074398805010     00000001770819000000001781325068KWH 00000100000000000000000000018025006000000017826996      
RABAH980127702409  0010000000000305074398106888     00000000000000000000000000000010   X00000100000000000000000000000000000000000000000000      
RABAH980127702409  0100000000000305074399102050     00000000000160400000000000153253KW X00000100000000000000000000000000000000000000000000      
RABAH980127702409  0090000000000305074399005030     00000000297918000000000299589068KWH 00000100000000000000000000003026669000000002996988      
RABAH980127702409  0050000000000305074398503096     00000000010800000000000010900080   X00000100000000000000000000000000000000000000000000      
RABAH980127702409  0060000000000305074398605111     00000002348229000000002362454062KWHX00000100000000000000000000000000000000000000000000      
RABAH980127702409  0120000000000305074399302070     00000000000039600000000000034453KW X00000100000000000000000000000000000000000000000000      
RABAH980127702409  0020000000000305074398206090_2D  00000020112200000000021122200060   X00000100000000000000000000000000000000000000000000      
RABAH980127702409  0110000000000305074399202060     00000000000086400000000000054053KW X00000100000000000000000000000000000000000000000000      
CABAH980127702411  020005585973AMR     EDMI MK10E          0000300000        202212210000202212211                         0000          0023000102501911002300    
RABAH980127702411  0130000000000305075202901015     00000000012042400000000012153658KW  00000100000000000000000000000122855000000000121335      
RABAH980127702411  0140000000000305075203001016     00000000006802800000000006838058KW  00000100000000000000000000000068855000000000068338      
RABAH980127702411  0180000000000305075203401118     00000000005026000000000005069658KVR 00000100000000000000000000000051127000000000050585      
RABAH980127702411  0120000000000305075202802070     00000000000054800000000000046853KW X00000100000000000000000000000000000000000000000000      
RABAH980127702411  0090000000000305075202505030     00000000251066000000000252953068KWH 00000100000000000000000000002552105000000002526201      
RABAH980127702411  0020000000000305075201806090_2D  00000020112200000000021122200060   X00000100000000000000000000000000000000000000000000      
RABAH980127702411  0010000000000305075201606888     00000000000000000000000000000010   X00000100000000000000000000000000000000000000000000      
RABAH980127702411  0050000000000305075202103096     00000000010800000000000010900080   X00000100000000000000000000000000000000000000000000      
RABAH980127702411  0080000000000305075202405020     00000000270770000000000272865068KWH 00000100000000000000000000002749074000000002723215      
RABAH980127702411  0170000000000305075203302280     00000000000048400000000000043653KVRX00000100000000000000000000000000000000000000000000      
RABAH980127702411  0040000000000305075202006095_1   00000020112200000000000000000020   X00000100000000000000000000000000000000000000000000      
RABAH980127702411  0070000000000305075202305010     00000001044280000000001052824068KWH 00000100000000000000000000010671008000000010528378      
RABAH980127702411  0100000000000305075202602050     00000000000116000000000000111253KW X00000100000000000000000000000000000000000000000000      
RABAH980127702411  0150000000000305075203101017     00000000004207600000000004254458KW  00000100000000000000000000000043047000000000042440      
RABAH980127702411  0160000000000305075203205222     00000000965273000000000971164053KVHX00000100000000000000000000000000000000000000000000      
RABAH980127702411  0060000000000305075202205111     00000001566116000000001578642062KWHX00000100000000000000000000000000000000000000000000      
RABAH980127702411  0030000000000305075201906091_T   00000000104000000000000020900060   X00000100000000000000000000000000000000000000000000      
RABAH980127702411  0110000000000305075202702060     00000000000048400000000000035253KW X00000100000000000000000000000000000000000000000000      
CABAH980127702412  020005586006AMR     EDMI MK10E          000030000099/9    202212210000202212211                         0000          0024000102501911002400    
RABAH980127702412  0030000000000305070172706091_T   00000000035500000000000020900060   X00000100000000000000000000000000000000000000000000      
RABAH980127702412  0070000000000305070173105010     00000001259823000000001269670068KWH 00000100000000000000000000012842291000000012689752      
RABAH980127702412  0130000000000305070173701015     00000000012352000000000012468058KW  00000100000000000000000000000125863000000000124398      
RABAH980127702412  0100000000000305070173402050     00000000000108800000000000116053KW X00000100000000000000000000000000000000000000000000      
RABAH980127702412  0120000000000305070173602070     00000000000038400000000000052053KW X00000100000000000000000000000000000000000000000000      
RABAH980127702412  0010000000000305070172506888     00000000000000000000000000000010   X00000100000000000000000000000000000000000000000000      
RABAH980127702412  0050000000000305070172903096     00000000010700000000000010800080   X00000100000000000000000000000000000000000000000000      
RABAH980127702412  0150000000000305070173901017     00000000004846000000000004898058KW  00000100000000000000000000000049803000000000048963      
RABAH980127702412  0140000000000305070173801016     00000000005527600000000005558858KW  00000100000000000000000000000055994000000000055545      
RABAH980127702412  0180000000000305070174201118     00000000004764000000000004796458KVR 00000100000000000000000000000048325000000000047897      
RABAH980127702412  0170000000000305070174102280     00000000000032400000000000032453KVRX00000100000000000000000000000000000000000000000000      
RABAH980127702412  0160000000000305070174005222     00000001039098000000001045025053KVHX00000100000000000000000000000000000000000000000000      
RABAH980127702412  0080000000000305070173205020     00000000256188000000000258705068KWH 00000100000000000000000000002621535000000002584250      
RABAH980127702412  0090000000000305070173305030     00000000253103000000000255656068KWH 00000100000000000000000000002584136000000002550944      
RABAH980127702412  0020000000000305070172606090_2D  00000020112200000000021122200060   X00000100000000000000000000000000000000000000000000      
RABAH980127702412  0040000000000305070172806095_1   00000000000000000000000000000020   X00000100000000000000000000000000000000000000000000      
RABAH980127702412  0110000000000305070173502060     00000000000032000000000000031253KW X00000100000000000000000000000000000000000000000000      
RABAH980127702412  0060000000000305070173005111     00000001769114000000001784031062KWHX00000100000000000000000000000000000000000000000000      
CABAH980127702413  020005586272AMR     EDMI MK10E          0000500000255     202212210000202212211                         0000          00251001025019901002510   
RABAH980127702413  0120000000000305076365002070     00000000000016400000000000012853KW X00000100000000000000000000000000000000000000000000      
RABAH980127702413  0040000000000305076364206095_1   00000000000000000000000000000020   X00000100000000000000000000000000000000000000000000      
RABAH980127702413  0070000000000305076364505010     00000001222405000000001228968068KWH 00000100000000000000000000012326073000000012262308      
RABAH980127702413  0170000000000305076365502280     00000000000051200000000000047653KVRX00000100000000000000000000000000000000000000000000      
RABAH980127702413  0090000000000305076364705030     00000000148576000000000149392068KWH 00000100000000000000000000001499140000000001490777      
RABAH980127702413  0080000000000305076364605020     00000000174403000000000175644068KWH 00000100000000000000000000001761633000000001750631      
RABAH980127702413  0180000000000305076365601118     00000000007432400000000007480058KVR 00000100000000000000000000000075006000000000074579      
RABAH980127702413  0100000000000305076364802050     00000000000132000000000000102853KW X00000100000000000000000000000000000000000000000000      
RABAH980127702413  0160000000000305076365405222     00000001200385000000001207352053KVHX00000100000000000000000000000000000000000000000000      
RABAH980127702413  0010000000000305076363906888     00000000000000000000000000000010   X00000100000000000000000000000000000000000000000000      
RABAH980127702413  0130000000000305076365101015     00000000014816400000000014919258KW  00000100000000000000000000000149663000000000148726      
RABAH980127702413  0020000000000305076364006090_2D  00000020112200000000021122200060   X00000100000000000000000000000000000000000000000000      
RABAH980127702413  0050000000000305076364303096     00000000010900000000000011000080   X00000100000000000000000000000000000000000000000000      
RABAH980127702413  0030000000000305076364106091_T   00000000035500000000000020900060   X00000100000000000000000000000000000000000000000000      
RABAH980127702413  0140000000000305076365201016     00000000006188800000000006252058KW  00000100000000000000000000000062383000000000062073      
RABAH980127702413  0110000000000305076364902060     00000000000052400000000000063253KW X00000100000000000000000000000000000000000000000000      
RABAH980127702413  0060000000000305076364405111     00000001545384000000001554004062KWHX00000100000000000000000000000000000000000000000000      
RABAH980127702413  0150000000000305076365301017     00000000004584800000000004597658KW  00000100000000000000000000000046332000000000046029      
CABAH980127702418  020018005108AMR     EDMI MK10E          0000800000        000000000000000000000                         0000          00253001025019012002550   
RABAH980127702418  0040000000000305072969506095_1   00000020112200000000000000000020   X00000100000000000000000000000000000000000000000000      
RABAH980127702418  0110000000000305073040202060     00000000000166000000000000000053KW X00000100000000000000000000000000000000000000000000      
RABAH980127702418  0100000000000305073040102050     00000000000168800000000000000053KW X00000100000000000000000000000000000000000000000000      
RABAH980127702418  0060000000000305072969705111     00000001720269000000000000000062KWHX00000100000000000000000000000000000000000000000000      
RABAH980127702418  0070000000000305072969805010     00000001081919000000000000000068KWH 00000100000000000000000000010872949000000010839349      
RABAH980127702418  0180000000000305073041001118     00000000009886000000000000000058KVR 00000100000000000000000000000098860000000000098860      
RABAH980127702418  0120000000000305073040302070     00000000000000400000000000000053KW X00000100000000000000000000000000000000000000000000      
RABAH980127702418  0030000000000305072969406091_T   00000000104000000000000000000060   X00000100000000000000000000000000000000000000000000      
RABAH980127702418  0150000000000305073040701017     00000000013361600000000000000058KW  00000100000000000000000000000133624000000000133619      
RABAH980127702418  0050000000000305072969603096     00000000010700000000000000000080   X00000100000000000000000000000000000000000000000000      
RABAH980127702418  0160000000000305073040805222     00000001190488000000000000000053KVHX00000100000000000000000000000000000000000000000000      
RABAH980127702418  0170000000000305073040902280     00000000000111600000000000000053KVRX00000100000000000000000000000000000000000000000000      
RABAH980127702418  0010000000000305072969206888     00000000000000000000000000000010   X00000100000000000000000000000000000000000000000000      
RABAH980127702418  0080000000000305072969905020     00000000126222000000000000000068KWH 00000100000000000000000000001265900000000001263600      
RABAH980127702418  0020000000000305072969306090_2D  00000020112200000000000000000060   X00000100000000000000000000000000000000000000000000      
RABAH980127702418  0130000000000305073040401015     00000000014758000000000000000058KW  00000100000000000000000000000148728000000000148010      
RABAH980127702418  0140000000000305073040501016     00000000014720800000000000000058KW  00000100000000000000000000000148336000000000147631      
RABAH980127702418  0090000000000305072970005030     00000000512128000000000000000068KWH 00000100000000000000000000005121301000000005121288      
CABAH980127702414  020005587306AMR     EDMI MK10E          0000500000279     202212210000202212211                         0000          0026000102501911002600    
RABAH980127702414  0130000000000305075555201015     00000000010330400000000010445658KW  00000100000000000000000000000105937000000000104291      
RABAH980127702414  0070000000000305075554605010     00000001092121000000001103856068KWH 00000100000000000000000000011228026000000011036266      
RABAH980127702414  0170000000000305075555602280     00000000000045200000000000041253KVRX00000100000000000000000000000000000000000000000000      
RABAH980127702414  0140000000000305075555301016     00000000005330800000000005372458KW  00000100000000000000000000000054608000000000053795      
RABAH980127702414  0020000000000305075554106090_2D  00000020112200000000021122200060   X00000100000000000000000000000000000000000000000000      
RABAH980127702414  0030000000000305075554206091_T   00000000035500000000000020900060   X00000100000000000000000000000000000000000000000000      
RABAH980127702414  0040000000000305075554306095_1   00000000000000000000000000000020   X00000100000000000000000000000000000000000000000000      
RABAH980127702414  0050000000000305075554403096     00000000010700000000000010800080   X00000100000000000000000000000000000000000000000000      
RABAH980127702414  0120000000000305075555102070     00000000000044800000000000038053KW X00000100000000000000000000000000000000000000000000      
RABAH980127702414  0150000000000305075555401017     00000000004466400000000004504458KW  00000100000000000000000000000045754000000000045072      
RABAH980127702414  0060000000000305075554505111     00000001742707000000001761512062KWHX00000100000000000000000000000000000000000000000000      
RABAH980127702414  0110000000000305075555002060     00000000000051200000000000041653KW X00000100000000000000000000000000000000000000000000      
RABAH980127702414  0010000000000305075554006888     00000000000000000000000000000010   X00000100000000000000000000000000000000000000000000      
RABAH980127702414  0090000000000305075554805030     00000000343810000000000347522068KWH 00000100000000000000000000003514133000000003466612      
RABAH980127702414  0180000000000305075555701118     00000000004186800000000004228058KVR 00000100000000000000000000000042721000000000042188      
RABAH980127702414  0080000000000305075554705020     00000000306776000000000310134068KWH 00000100000000000000000000003139388000000003094620      
RABAH980127702414  0160000000000305075555505222     00000000981691000000000989802053KVHX00000100000000000000000000000000000000000000000000      
RABAH980127702414  0100000000000305075554902050     00000000000121600000000000115253KW X00000100000000000000000000000000000000000000000000      
CABAH980127702415  020005587337AMR     EDMI MK10E          0000800000        202212210000202212211                         0000          0027000102501911002700    
RABAH980127702415  0070000000000305070460505010     00000001888436000000001914946068KWH 00000100000000000000000000019000744000000018928004      
RABAH980127702415  0010000000000305070389906888     00000000000000000000000000000010   X00000100000000000000000000000000000000000000000000      
RABAH980127702415  0120000000000305070461002070     00000000000232400000000000232053KW X00000100000000000000000000000000000000000000000000      
RABAH980127702415  0060000000000305070460405111     00000003392338000000003428206062KWHX00000100000000000000000000000000000000000000000000      
RABAH980127702415  0180000000000305070461801118     00000000012642000000000012772858KVR 00000100000000000000000000000126420000000000126420      
RABAH980127702415  0050000000000305070460303096     00000000010700000000000010800080   X00000100000000000000000000000000000000000000000000      
RABAH980127702415  0110000000000305070460902060     00000000000232400000000000232453KW X00000100000000000000000000000000000000000000000000      
RABAH980127702415  0030000000000305070460106091_T   00000000035500000000000020900060   X00000100000000000000000000000000000000000000000000      
RABAH980127702415  0100000000000305070460802050     00000000000232000000000000232453KW X00000100000000000000000000000000000000000000000000      
RABAH980127702415  0020000000000305070390006090_2D  00000020112200000000021122200060   X00000100000000000000000000000000000000000000000000      
RABAH980127702415  0160000000000305070461505222     00000001899318000000001918960053KVHX00000100000000000000000000000000000000000000000000      
RABAH980127702415  0170000000000305070461602280     00000000000130000000000000130853KVRX00000100000000000000000000000000000000000000000000      
RABAH980127702415  0080000000000305070460605020     00000000497085000000000500478068KWH 00000100000000000000000000004986237000000004976620      
RABAH980127702415  0040000000000305070460206095_1   00000000000000000000000000000020   X00000100000000000000000000000000000000000000000000      
RABAH980127702415  0150000000000305070461401017     00000000019664000000000019896058KW  00000100000000000000000000000198231000000000197236      
RABAH980127702415  0090000000000305070460705030     00000001006817000000001012782068KWH 00000100000000000000000000010084052000000010074125      
RABAH980127702415  0130000000000305070461101015     00000000022183600000000022416058KW  00000100000000000000000000000224996000000000223021      
RABAH980127702415  0140000000000305070461201016     00000000022196800000000022429258KW  00000100000000000000000000000225123000000000223151      
CABAH98016300033250020005587367AMR     EDMI MK10E          0004000000        000000000000000000000                         0000          0028000102501911002800    
RABAH980163000332500050000000000305070745903096     00000000001500000000000000000080   X00000100000000000000000000000000000000000000000000      
RABAH980163000332500160000000000305070747105222     00000000023345000000000000000062KVHX00000100000000000000000000000000000000000000000000      
RABAH980163000332500180000000000305070747301118     00000000000300300000000000000058KVR 00000100000000000000000000000003003000000000003003      
RABAH980163000332500070000000000305070746105010     00000000025339000000000000000068KWH 00000100000000000000000000000269727000000000259516      
RABAH980163000332500110000000000305070746502060     00000000000045900000000000000053KW X00000100000000000000000000000000000000000000000000      
RABAH980163000332500030000000000305070745706091_T   00000000104000000000000000000060   X00000100000000000000000000000000000000000000000000      
RABAH980163000332500170000000000305070747202280     00000000000028000000000000000053KVRX00000100000000000000000000000000000000000000000000      
RABAH980163000332500120000000000305070746602070     00000000000000300000000000000053KW X00000100000000000000000000000000000000000000000000      
RABAH980163000332500100000000000305070746402050     00000000000044600000000000000053KW X00000100000000000000000000000000000000000000000000      
RABAH980163000332500150000000000305070747001017     00000000000337100000000000000058KW  00000100000000000000000000000003379000000000003374      
RABAH980163000332500060000000000305070746005111     00000000037587000000000000000062KWHX00000100000000000000000000000000000000000000000000      
RABAH980163000332500020000000000305070745606090_2D  00000020112200000000000000000060   X00000100000000000000000000000000000000000000000000      
RABAH980163000332500080000000000305070746205020     00000000005649000000000000000068KWH 00000100000000000000000000000060808000000000058109      
RABAH980163000332500010000000000305070745506888     00000000000000000000000000000010   X00000100000000000000000000000000000000000000000000      
RABAH980163000332500140000000000305070746901016     00000000000472000000000000000058KW  00000100000000000000000000000005351000000000004956      
RABAH980163000332500090000000000305070746305030     00000000006599000000000000000068KWH 00000100000000000000000000000066918000000000066338      
RABAH980163000332500040000000000305070745806095_1   00000020112200000000000000000020   X00000100000000000000000000000000000000000000000000      
RABAH980163000332500130000000000305070746701015     00000000000430700000000000000058KW  00000100000000000000000000000004936000000000004543      
CABAH980127702416  020005587410AMR     EDMI MK10E          0000300000228     202212210000202212211                         0000          0029000102501911002900    
RABAH980127702416  0180000000000305077238501118     00000000000424400000000000434458KVR 00000100000000000000000000000004366000000000004289      
RABAH980127702416  0120000000000305077237902070     00000000000034400000000000029653KW X00000100000000000000000000000000000000000000000000      
RABAH980127702416  0010000000000305077236806888     00000000000000000000000000000010   X00000100000000000000000000000000000000000000000000      
RABAH980127702416  0150000000000305077238201017     00000000005133600000000005163258KW  00000100000000000000000000000052058000000000051606      
RABAH980127702416  0040000000000305077237106095_1   00000000000000000000000000000020   X00000100000000000000000000000000000000000000000000      
RABAH980127702416  0030000000000305077237006091_T   00000000035500000000000020900060   X00000100000000000000000000000000000000000000000000      
RABAH980127702416  0020000000000305077236906090_2D  00000020112200000000021122200060   X00000100000000000000000000000000000000000000000000      
RABAH980127702416  0130000000000305077238001015     00000000006216000000000006266058KW  00000100000000000000000000000063194000000000062547      
RABAH980127702416  0100000000000305077237702050     00000000000051600000000000050053KW X00000100000000000000000000000000000000000000000000      
RABAH980127702416  0160000000000305077238305222     00000000004177000000000004376053KVHX00000100000000000000000000000000000000000000000000      
RABAH980127702416  0110000000000305077237802060     00000000000031600000000000039653KW X00000100000000000000000000000000000000000000000000      
RABAH980127702416  0050000000000305077237203096     00000000010900000000000011000080   X00000100000000000000000000000000000000000000000000      
RABAH980127702416  0170000000000305077238402280     00000000000008000000000000010053KVRX00000100000000000000000000000000000000000000000000      
RABAH980127702416  0140000000000305077238101016     00000000004928800000000004968458KW  00000100000000000000000000000049934000000000049530      
RABAH980127702416  0080000000000305077237505020     00000000422817000000000425618068KWH 00000100000000000000000000004280868000000004247931      
RABAH980127702416  0090000000000305077237605030     00000000432313000000000434541068KWH 00000100000000000000000000004375384000000004342725      
RABAH980127702416  0070000000000305077237405010     00000000589173000000000594300068KWH 00000100000000000000000000005989403000000005928357      
RABAH980127702416  0060000000000305077237305111     00000001444303000000001454459062KWHX00000100000000000000000000000000000000000000000000      
CABAH980127702417  020005587445AMR     EDMI MK10E          0000500000        000000000000000000000                         0000          0030000102501911003000    
RABAH980127702417  0140000000000305072371701016     00000000012164400000000000000058KW  00000100000000000000000000000123186000000000122222      
RABAH980127702417  0150000000000305072371801017     00000000011384400000000000000058KW  00000100000000000000000000000114616000000000114133      
RABAH980127702417  0010000000000305072370406888     00000000000000000000000000000010   X00000100000000000000000000000000000000000000000000      
RABAH980127702417  0180000000000305072372101118     00000000006620400000000000000058KVR 00000100000000000000000000000066204000000000066204      
RABAH980127702417  0040000000000305072370706095_1   00000020112200000000000000000020   X00000100000000000000000000000000000000000000000000      
RABAH980127702417  0070000000000305072371005010     00000001071950000000000000000068KWH 00000100000000000000000000010767591000000010737534      
RABAH980127702417  0170000000000305072372002280     00000000000065200000000000000053KVRX00000100000000000000000000000000000000000000000000      
RABAH980127702417  0050000000000305072370803096     00000000010700000000000000000080   X00000100000000000000000000000000000000000000000000      
RABAH980127702417  0100000000000305072371302050     00000000000118800000000000000053KW X00000100000000000000000000000000000000000000000000      
RABAH980127702417  0090000000000305072371205030     00000000554038000000000000000068KWH 00000100000000000000000000005553887000000005545445      
RABAH980127702417  0080000000000305072371105020     00000000201138000000000000000068KWH 00000100000000000000000000002015289000000002012846      
RABAH980127702417  0060000000000305072370905111     00000001827126000000000000000062KWHX00000100000000000000000000000000000000000000000000      
RABAH980127702417  0120000000000305072371502070     00000000000113600000000000000053KW X00000100000000000000000000000000000000000000000000      
RABAH980127702417  0130000000000305072371601015     00000000012270400000000000000058KW  00000100000000000000000000000124254000000000123285      
RABAH980127702417  0030000000000305072370606091_T   00000000104000000000000000000060   X00000100000000000000000000000000000000000000000000      
RABAH980127702417  0110000000000305072371402060     00000000000118400000000000000053KW X00000100000000000000000000000000000000000000000000      
RABAH980127702417  0160000000000305072371905222     00000000975503000000000000000053KVHX00000100000000000000000000000000000000000000000000      
RABAH980127702417  0020000000000305072370506090_2D  00000020112200000000000000000060   X00000100000000000000000000000000000000000000000000      