HGRST98000006000600000000000000000000000000000000002020062895501AR6                 
CGRST980027710591  020001369968AMR     EDMI MK10E          0000500000        202006280000202006281                         0000          8880050708101557888005    
RGRST980027710591  0180000000000232294628101118     00000000001258400000000001278458KVR 00000100000000000000000000000000013000000000000012      
RGRST980027710591  0020000000000232294626506090_2D  00000029052000000000028062000060   X00000100000000000000000000000000000000000000000000      
RGRST980027710591  0040000000000232294626706095_1   00000000000000000000000000000020   X00000100000000000000000000000000000000000000000000      
RGRST980027710591  0140000000000232294627701016     00000000001041600000000001062058KW  00000100000000000000000000000000010000000000000010      
RGRST980027710591  0050000000000232294626803096     00000000006900000000000007000080   X00000100000000000000000000000000000000000000000000      
RGRST980027710591  0120000000000232294627502070     00000000000022400000000000021653KW X00000100000000000000000000000000000000000000000000      
RGRST980027710591  0150000000000232294627801017     00000000001168400000000001190058KW  00000100000000000000000000000000012000000000000011      
RGRST980027710591  0130000000000232294627601015     00000000001238400000000001261258KW  00000100000000000000000000000000012000000000000012      
RGRST980027710591  0110000000000232294627402060     00000000000022000000000000020453KW X00000100000000000000000000000000000000000000000000      
RGRST980027710591  0080000000000232294627105020     00000000083996000000000086101068KWH 00000100000000000000000000000000884000000000000856      
RGRST980027710591  0010000000000232294626406888     00000000000000000000000000000010   X00000100000000000000000000000000000000000000000000      
RGRST980027710591  0030000000000232294626606091_T   00000000040200000000000023100060   X00000100000000000000000000000000000000000000000000      
RGRST980027710591  0060000000000232294626905111     00000000317999000000000325990062KWHX00000100000000000000000000000000000000000000000000      
RGRST980027710591  0070000000000232294627005010     00000000136356000000000139563068KWH 00000100000000000000000000000001431000000000001389      
RGRST980027710591  0170000000000232294628002280     00000000000020800000000000020053KVRX00000100000000000000000000000000000000000000000000      
RGRST980027710591  0100000000000232294627302050     00000000000028400000000000022853KW X00000100000000000000000000000000000000000000000000      
RGRST980027710591  0090000000000232294627205030     00000000097647000000000100326068KWH 00000100000000000000000000000001029000000000000996      
RGRST980027710591  0160000000000232294627905222     00000000154637000000000158812053KVHX00000100000000000000000000000000000000000000000000      
CGRST980027710604  020017407392AMR     EDMI MK10E          0000500000        202006280000202006281                         0000          8880450708101341888045    
RGRST980027710604  0160000000000232295126805222     00000000590147000000000598393053KVHX00000100000000000000000000000000000000000000000000      
RGRST980027710604  0170000000000232295126902280     00000000000022800000000000024053KVRX00000100000000000000000000000000000000000000000000      
RGRST980027710604  0030000000000232295125506091_T   00000000035700000000000022700060   X00000100000000000000000000000000000000000000000000      
RGRST980027710604  0180000000000232295127001118     00000000001840000000000001864058KVR 00000100000000000000000000000000018000000000000018      
RGRST980027710604  0060000000000232295125805111     00000001679177000000001706370062KWHX00000100000000000000000000000000000000000000000000      
RGRST980027710604  0090000000000232295126105030     00000000522304000000000531747068KWH 00000100000000000000000000000005407000000000005292      
RGRST980027710604  0050000000000232295125703096     00000000006900000000000007000080   X00000100000000000000000000000000000000000000000000      
RGRST980027710604  0080000000000232295126005020     00000000332648000000000337179068KWH 00000100000000000000000000000003431000000000003365      
RGRST980027710604  0070000000000232295125905010     00000000824225000000000837444068KWH 00000100000000000000000000000008517000000000008345      
RGRST980027710604  0140000000000232295126601016     00000000003100000000000003145658KW  00000100000000000000000000000000032000000000000031      
RGRST980027710604  0110000000000232295126302060     00000000000052400000000000045653KW X00000100000000000000000000000000000000000000000000      
RGRST980027710604  0150000000000232295126701017     00000000005380000000000005460858KW  00000100000000000000000000000000055000000000000054      
RGRST980027710604  0100000000000232295126202050     00000000000094800000000000094453KW X00000100000000000000000000000000000000000000000000      
RGRST980027710604  0120000000000232295126402070     00000000000081600000000000080853KW X00000100000000000000000000000000000000000000000000      
RGRST980027710604  0020000000000232295125406090_2D  00000029052000000000028062000060   X00000100000000000000000000000000000000000000000000      
RGRST980027710604  0040000000000232295125606095_1   00000000000000000000000000000020   X00000100000000000000000000000000000000000000000000      
RGRST980027710604  0010000000000232295125306888     00000000000000000000000000000010   X00000100000000000000000000000000000000000000000000      
RGRST980027710604  0130000000000232295126501015     00000000005701200000000005795658KW  00000100000000000000000000000000058000000000000057      
CGRST980027710314  020003615614AMR     EDMI MK10E          0000300000        202006280000202006281                         0000          8880010708101322888001    
RGRST980027710314  0070000000000232294131805010     00000000251439000000000252017068KWH 00000100000000000000000000000002529000000000002520      
RGRST980027710314  0130000000000232294132401015     00000000003403600000000003416858KW  00000100000000000000000000000000034000000000000034      
RGRST980027710314  0150000000000232294132601017     00000000003268000000000003282858KW  00000100000000000000000000000000033000000000000032      
RGRST980027710314  0060000000000232294131705111     00000000658072000000000660015062KWHX00000100000000000000000000000000000000000000000000      
RGRST980027710314  0160000000000232294132705222     00000000195433000000000195874053KVHX00000100000000000000000000000000000000000000000000      
RGRST980027710314  0110000000000232294132202060     00000000000017600000000000014453KW X00000100000000000000000000000000000000000000000000      
RGRST980027710314  0120000000000232294132302070     00000000000019600000000000014853KW X00000100000000000000000000000000000000000000000000      
RGRST980027710314  0020000000000232294131306090_2D  00000029052000000000028062000060   X00000100000000000000000000000000000000000000000000      
RGRST980027710314  0100000000000232294132102050     00000000000016400000000000013253KW X00000100000000000000000000000000000000000000000000      
RGRST980027710314  0090000000000232294132005030     00000000209859000000000210506068KWH 00000100000000000000000000000002115000000000002105      
RGRST980027710314  0140000000000232294132501016     00000000003128000000000003142458KW  00000100000000000000000000000000031000000000000031      
RGRST980027710314  0080000000000232294131905020     00000000196774000000000197492068KWH 00000100000000000000000000000001986000000000001974      
RGRST980027710314  0180000000000232294132901118     00000000000548000000000000549658KVR 00000100000000000000000000000000005000000000000005      
RGRST980027710314  0010000000000232294131206888     00000000000000000000000000000010   X00000100000000000000000000000000000000000000000000      
RGRST980027710314  0170000000000232294132802280     00000000000002000000000000001653KVRX00000100000000000000000000000000000000000000000000      
RGRST980027710314  0040000000000232294131506095_1   00000000000000000000000000000020   X00000100000000000000000000000000000000000000000000      
RGRST980027710314  0030000000000232294131406091_T   00000000040100000000000023000060   X00000100000000000000000000000000000000000000000000      
RGRST980027710314  0050000000000232294131603096     00000000006900000000000007000080   X00000100000000000000000000000000000000000000000000      
CGRST980023066400  020023310733AMR     EDMI MK6            0000800000        202006280000202006281                         0000          88811207081019111888112   
RGRST980023066400  0130000000000232294084001015     00000000034500700000000034583508KW  00000100000000000000000000000000346000000000000345      
RGRST980023066400  0050000000000232294083203096     00000000015200000000000015300060   X00000100000000000000000000000000000000000000000000      
RGRST980023066400  0060000000000232294083305111     00000008014948000000008043653002KWHX00000100000000000000000000000000000000000000000000      
RGRST980023066400  0020000000000232294082906090_2D  00000029052000000000028062000060   X00000100000000000000000000000000000000000000000000      
RGRST980023066400  0010000000000232294082806888     00000000000000000000000000000010   X00000100000000000000000000000000000000000000000000      
RGRST980023066400  0110000000000232294083802060     00000000000087800000000000094603KW X00000100000000000000000000000000000000000000000000      
RGRST980023066400  0150000000000232294084201017     00000000032120400000000032208308KW  00000100000000000000000000000000322000000000000321      
RGRST980023066400  0070000000000232294083405010     00000005107490000000005118130008KWH 00000100000000000000000000000051259000000000051144      
RGRST980023066400  0030000000000232294083006091_T   00000000035800000000000022800040   X00000100000000000000000000000000000000000000000000      
RGRST980023066400  0040000000000232294083106095_1   00000000000000000000000000000000   X00000100000000000000000000000000000000000000000000      
RGRST980023066400  0090000000000232294083605030     00000001872730000000001882219008KWH 00000100000000000000000000000018880000000000018784      
RGRST980023066400  0080000000000232294083505020     00000001034728000000001043304008KWH 00000100000000000000000000000010475000000000010395      
RGRST980023066400  0100000000000232294083702050     00000000000096000000000000082803KW X00000100000000000000000000000000000000000000000000      
RGRST980023066400  0180000000000232294084501118     00000000016627400000000016644908KVR 00000100000000000000000000000000166000000000000166      
RGRST980023066400  0140000000000232294084101016     00000000027997900000000028092508KW  00000100000000000000000000000000281000000000000280      
RGRST980023066400  0160000000000232294084305222     00000003492502000000003499057003KVHX00000100000000000000000000000000000000000000000000      
RGRST980023066400  0170000000000232294084402280     00000000000019100000000000017503KVRX00000100000000000000000000000000000000000000000000      
RGRST980023066400  0120000000000232294083902070     00000000000084000000000000087903KW X00000100000000000000000000000000000000000000000000      
CGRST980027702098  020022801696AMR     EDMI MK10E          0000300000        202006280000202006281                         0000          88810507081019111888105   
RGRST980027702098  0180000000000232295479201118     00000000000099200000000000114858KVR 00000100000000000000000000000000001000000000000001      
RGRST980027702098  0030000000000232295477706091_T   00000000035900000000000022800060   X00000100000000000000000000000000000000000000000000      
RGRST980027702098  0130000000000232295478701015     00000000004705200000000004847258KW  00000100000000000000000000000000049000000000000047      
RGRST980027702098  0020000000000232295477606090_2D  00000029052000000000028062000060   X00000100000000000000000000000000000000000000000000      
RGRST980027702098  0150000000000232295478901017     00000000004822400000000004975258KW  00000100000000000000000000000000050000000000000049      
RGRST980027702098  0090000000000232295478305030     00000000577466000000000589036068KWH 00000100000000000000000000000005947000000000005839      
RGRST980027702098  0120000000000232295478602070     00000000000122000000000000152853KW X00000100000000000000000000000000000000000000000000      
RGRST980027702098  0110000000000232295478502060     00000000000152800000000000167653KW X00000100000000000000000000000000000000000000000000      
RGRST980027702098  0140000000000232295478801016     00000000004964400000000005132058KW  00000100000000000000000000000000052000000000000050      
RGRST980027702098  0060000000000232295478005111     00000001797379000000001829925062KWHX00000100000000000000000000000000000000000000000000      
RGRST980027702098  0050000000000232295477903096     00000000007700000000000007800080   X00000100000000000000000000000000000000000000000000      
RGRST980027702098  0170000000000232295479102280     00000000000014000000000000015653KVRX00000100000000000000000000000000000000000000000000      
RGRST980027702098  0100000000000232295478402050     00000000000156000000000000142053KW X00000100000000000000000000000000000000000000000000      
RGRST980027702098  0080000000000232295478205020     00000000563149000000000574215068KWH 00000100000000000000000000000005800000000000005694      
RGRST980027702098  0010000000000232295477506888     00000000000000000000000000000010   X00000100000000000000000000000000000000000000000000      
RGRST980027702098  0160000000000232295479005222     00000000024749000000000031980062KVHX00000100000000000000000000000000000000000000000000      
RGRST980027702098  0070000000000232295478105010     00000000656764000000000666674068KWH 00000100000000000000000000000006719000000000006624      
RGRST980027702098  0040000000000232295477806095_1   00000000000000000000000000000020   X00000100000000000000000000000000000000000000000000      
CGRST980023075778  020021350453AMR     EDMI MK6            0000300000        202006280000202006281                         0000          00060007081019000000600   
RGRST980023075778  0010000000000232293829206888     00000000000000000000000000000010   X00000100000000000000000000000000000000000000000000      
RGRST980023075778  0130000000000232293860401015     00000000012724400000000012902308KW  00000100000000000000000000000000127000000000000127      
RGRST980023075778  0100000000000232293860102050     00000000000175000000000000177903KW X00000100000000000000000000000000000000000000000000      
RGRST980023075778  0060000000000232293829705111     00000002155175000000002166894002KWHX00000100000000000000000000000000000000000000000000      
RGRST980023075778  0080000000000232293829905020     00000000369965000000000371002008KWH 00000100000000000000000000000003699000000000003699      
RGRST980023075778  0120000000000232293860302070     00000000000176200000000000176503KW X00000100000000000000000000000000000000000000000000      
RGRST980023075778  0160000000000232293860705222     00000002638133000000002638137003KVHX00000100000000000000000000000000000000000000000000      
RGRST980023075778  0180000000000232293860901118     00000000014510400000000014517908KVR 00000100000000000000000000000000145000000000000145      
RGRST980023075778  0090000000000232293830005030     00000000470590000000000474692008KWH 00000100000000000000000000000004705000000000004705      
RGRST980023075778  0030000000000232293829406091_T   00000000040100000000000023000040   X00000100000000000000000000000000000000000000000000      
RGRST980023075778  0110000000000232293860202060     00000000000177400000000000177503KW X00000100000000000000000000000000000000000000000000      
RGRST980023075778  0050000000000232293829603096     00000000013600000000000013700060   X00000100000000000000000000000000000000000000000000      
RGRST980023075778  0040000000000232293829506095_1   00000000000000000000000000000000   X00000100000000000000000000000000000000000000000000      
RGRST980023075778  0170000000000232293860802280     00000000000004900000000000007503KVRX00000100000000000000000000000000000000000000000000      
RGRST980023075778  0070000000000232293829805010     00000001314620000000001321200008KWH 00000100000000000000000000000013146000000000013146      
RGRST980023075778  0020000000000232293829306090_2D  00000029052000000000028062000060   X00000100000000000000000000000000000000000000000000      
RGRST980023075778  0140000000000232293860501016     00000000010270500000000010448008KW  00000100000000000000000000000000102000000000000102      
RGRST980023075778  0150000000000232293860601017     00000000010875000000000011051608KW  00000100000000000000000000000000108000000000000108      
HGRST98010010001000000000000000000000000000000000002020062895501AR6                 
CGRST980127710587  020018315114AMR     EDMI MK10E          0000800000101/45  202006280000202006281                         0000          0010000708101908001000    
RGRST980127710587  0130000000000232420056701015     00000000000801200000000000809258KW  00000100000000000000000000000000008000000000000008      
RGRST980127710587  0050000000000232420055903096     00000000007200000000000007300080   X00000100000000000000000000000000000000000000000000      
RGRST980127710587  0180000000000232420057201118     00000000000513600000000000520058KVR 00000100000000000000000000000000005000000000000005      
RGRST980127710587  0160000000000232420057005222     00000000041756000000000042170053KVHX00000100000000000000000000000000000000000000000000      
RGRST980127710587  0070000000000232420056105010     00000000051070000000000051758068KWH 00000100000000000000000000000000526000000000000516      
RGRST980127710587  0080000000000232420056205020     00000000022915000000000023176068KWH 00000100000000000000000000000000234000000000000231      
RGRST980127710587  0100000000000232420056402050     00000000000011600000000000008053KW X00000100000000000000000000000000000000000000000000      
RGRST980127710587  0030000000000232420055706091_T   00000000040300000000000023100060   X00000100000000000000000000000000000000000000000000      
RGRST980127710587  0060000000000232420056005111     00000000095392000000000096525062KWHX00000100000000000000000000000000000000000000000000      
RGRST980127710587  0040000000000232420055806095_1   00000000000000000000000000000020   X00000100000000000000000000000000000000000000000000      
RGRST980127710587  0090000000000232420056305030     00000000021407000000000021591068KWH 00000100000000000000000000000000217000000000000215      
RGRST980127710587  0020000000000232420055606090_2D  00000029052000000000028062000060   X00000100000000000000000000000000000000000000000000      
RGRST980127710587  0140000000000232420056801016     00000000000399600000000000406058KW  00000100000000000000000000000000004000000000000004      
RGRST980127710587  0110000000000232420056502060     00000000000004400000000000006453KW X00000100000000000000000000000000000000000000000000      
RGRST980127710587  0170000000000232420057102280     00000000000006800000000000006453KVRX00000100000000000000000000000000000000000000000000      
RGRST980127710587  0150000000000232420056901017     00000000000522400000000000526458KW  00000100000000000000000000000000005000000000000005      
RGRST980127710587  0120000000000232420056602070     00000000000004400000000000004053KW X00000100000000000000000000000000000000000000000000      
RGRST980127710587  0010000000000232420055506888     00000000000000000000000000000010   X00000100000000000000000000000000000000000000000000      
CGRST980123068436  020019514450AMR     EDMI MK6            0000500000222/8   202006280000202006281                         0000          0503300708101908050330    
RGRST980123068436  0010000000000232420080906888     00000000000000000000000000000010   X00000100000000000000000000000000000000000000000000      
RGRST980123068436  0140000000000232420082201016     00000000015897400000000016051908KW  00000100000000000000000000000000162000000000000160      
RGRST980123068436  0060000000000232420081405111     00000003325035000000003356762003KWHX00000100000000000000000000000000000000000000000000      
RGRST980123068436  0150000000000232420082301017     00000000016129400000000016277708KW  00000100000000000000000000000000164000000000000162      
RGRST980123068436  0030000000000232420081106091_T   00000000040300000000000023100040   X00000100000000000000000000000000000000000000000000      
RGRST980123068436  0180000000000232420082601118     00000000005564500000000005603908KVR 00000100000000000000000000000000056000000000000055      
RGRST980123068436  0100000000000232420081802050     00000000000165500000000000168103KW X00000100000000000000000000000000000000000000000000      
RGRST980123068436  0110000000000232420081902060     00000000000165900000000000154503KW X00000100000000000000000000000000000000000000000000      
RGRST980123068436  0130000000000232420082101015     00000000017265800000000017433908KW  00000100000000000000000000000000175000000000000173      
RGRST980123068436  0070000000000232420081505010     00000002179742000000002199698008KWH 00000100000000000000000000000022239000000000021963      
RGRST980123068436  0090000000000232420081705030     00000000685347000000000692431008KWH 00000100000000000000000000000007011000000000006912      
RGRST980123068436  0080000000000232420081605020     00000000459946000000000464633008KWH 00000100000000000000000000000004701000000000004637      
RGRST980123068436  0020000000000232420081006090_2D  00000029052000000000028062000060   X00000100000000000000000000000000000000000000000000      
RGRST980123068436  0040000000000232420081206095_1   00000000000000000000000000000000   X00000100000000000000000000000000000000000000000000      
RGRST980123068436  0170000000000232420082502280     00000000000041600000000000039403KVRX00000100000000000000000000000000000000000000000000      
RGRST980123068436  0160000000000232420082405222     00000000631171000000000636305003KVHX00000100000000000000000000000000000000000000000000      
RGRST980123068436  0120000000000232420082002070     00000000000168400000000000148303KW X00000100000000000000000000000000000000000000000000      
RGRST980123068436  0050000000000232420081303096     00000000014500000000000014600060   X00000100000000000000000000000000000000000000000000      
CGRST98015701544508020017480493AMR     EDMI MK10E          000050000056/20   202006280000202006281                         0000          0505000708101908050500    
RGRST980157015445080130000000000232420039501015     00000000006941200000000007070458KW  00000100000000000000000000000000071000000000000070      
RGRST980157015445080020000000000232420038406090_2D  00000029052000000000028062000060   X00000100000000000000000000000000000000000000000000      
RGRST980157015445080160000000000232420039805222     00000000749791000000000762743053KVHX00000100000000000000000000000000000000000000000000      
RGRST980157015445080050000000000232420038703096     00000000005700000000000005800080   X00000100000000000000000000000000000000000000000000      
RGRST980157015445080170000000000232420039902280     00000000000088400000000000097253KVRX00000100000000000000000000000000000000000000000000      
RGRST980157015445080090000000000232420039105030     00000000113888000000000116042068KWH 00000100000000000000000000000001177000000000001153      
RGRST980157015445080180000000000232420040001118     00000000005581200000000005678458KVR 00000100000000000000000000000000057000000000000056      
RGRST980157015445080070000000000232420038905010     00000000744388000000000757718068KWH 00000100000000000000000000000007729000000000007550      
RGRST980157015445080150000000000232420039701017     00000000003713600000000003765258KW  00000100000000000000000000000000038000000000000037      
RGRST980157015445080100000000000232420039202050     00000000000117200000000000129253KW X00000100000000000000000000000000000000000000000000      
RGRST980157015445080140000000000232420039601016     00000000005669600000000005776458KW  00000100000000000000000000000000058000000000000057      
RGRST980157015445080110000000000232420039302060     00000000000123600000000000106853KW X00000100000000000000000000000000000000000000000000      
RGRST980157015445080010000000000232420038306888     00000000000000000000000000000010   X00000100000000000000000000000000000000000000000000      
RGRST980157015445080080000000000232420039005020     00000000148904000000000151944068KWH 00000100000000000000000000000001553000000000001513      
RGRST980157015445080030000000000232420038506091_T   00000000040300000000000023100060   X00000100000000000000000000000000000000000000000000      
RGRST980157015445080060000000000232420038805111     00000001007180000000001025704062KWHX00000100000000000000000000000000000000000000000000      
RGRST980157015445080040000000000232420038606095_1   00000000000000000000000000000020   X00000100000000000000000000000000000000000000000000      
RGRST980157015445080120000000000232420039402070     00000000000031200000000000051653KW X00000100000000000000000000000000000000000000000000      
CGRST980127710603  020019520301AMR     EDMI MK10E          0000800000101/124 202006280000202006281                         0000          0010500708101908001050    
RGRST980127710603  0060000000000232420059605111     00000000219066000000000223166062KWHX00000100000000000000000000000000000000000000000000      
RGRST980127710603  0110000000000232420080102060     00000000000016800000000000024853KW X00000100000000000000000000000000000000000000000000      
RGRST980127710603  0080000000000232420059805020     00000000039194000000000039915068KWH 00000100000000000000000000000000409000000000000398      
RGRST980127710603  0010000000000232420059106888     00000000000000000000000000000010   X00000100000000000000000000000000000000000000000000      
RGRST980127710603  0040000000000232420059406095_1   00000000000000000000000000000020   X00000100000000000000000000000000000000000000000000      
RGRST980127710603  0090000000000232420059905030     00000000035515000000000036110068KWH 00000100000000000000000000000000370000000000000360      
RGRST980127710603  0130000000000232420080301015     00000000001784000000000001825258KW  00000100000000000000000000000000018000000000000018      
RGRST980127710603  0020000000000232420059206090_2D  00000029052000000000028062000060   X00000100000000000000000000000000000000000000000000      
RGRST980127710603  0150000000000232420080501017     00000000001028400000000001043658KW  00000100000000000000000000000000010000000000000010      
RGRST980127710603  0050000000000232420059503096     00000000007100000000000007200080   X00000100000000000000000000000000000000000000000000      
RGRST980127710603  0070000000000232420059705010     00000000144357000000000147141068KWH 00000100000000000000000000000001508000000000001467      
RGRST980127710603  0180000000000232420080801118     00000000001083200000000001103658KVR 00000100000000000000000000000000011000000000000010      
RGRST980127710603  0160000000000232420080605222     00000000095004000000000096305053KVHX00000100000000000000000000000000000000000000000000      
RGRST980127710603  0120000000000232420080202070     00000000000015200000000000015253KW X00000100000000000000000000000000000000000000000000      
RGRST980127710603  0170000000000232420080702280     00000000000012800000000000020453KVRX00000100000000000000000000000000000000000000000000      
RGRST980127710603  0100000000000232420060002050     00000000000027200000000000041253KW X00000100000000000000000000000000000000000000000000      
RGRST980127710603  0030000000000232420059306091_T   00000000035800000000000022800060   X00000100000000000000000000000000000000000000000000      
RGRST980127710603  0140000000000232420080401016     00000000001261600000000001286458KW  00000100000000000000000000000000013000000000000012      
CGRST980127703100  020018255569AMR     EDMI MK10E          0000800000102/3   202006280000202006281                         0000          0503500708101908050350    
RGRST980127703100  0110000000000232420054702060     00000000000102800000000000104453KW X00000100000000000000000000000000000000000000000000      
RGRST980127703100  0050000000000232420054103096     00000000007400000000000007500080   X00000100000000000000000000000000000000000000000000      
RGRST980127703100  0070000000000232420054305010     00000001039737000000001054401068KWH 00000100000000000000000000000010729000000000010521      
RGRST980127703100  0100000000000232420054602050     00000000000114400000000000119253KW X00000100000000000000000000000000000000000000000000      
RGRST980127703100  0060000000000232420054205111     00000001447836000000001468764062KWHX00000100000000000000000000000000000000000000000000      
RGRST980127703100  0140000000000232420055001016     00000000006868800000000006973258KW  00000100000000000000000000000000070000000000000069      
RGRST980127703100  0180000000000232420055401118     00000000003100800000000003142458KVR 00000100000000000000000000000000031000000000000031      
RGRST980127703100  0020000000000232420053806090_2D  00000029052000000000028062000060   X00000100000000000000000000000000000000000000000000      
RGRST980127703100  0010000000000232420053706888     00000000000000000000000000000010   X00000100000000000000000000000000000000000000000000      
RGRST980127703100  0120000000000232420054802070     00000000000112800000000000096053KW X00000100000000000000000000000000000000000000000000      
RGRST980127703100  0170000000000232420055302280     00000000000042800000000000041653KVRX00000100000000000000000000000000000000000000000000      
RGRST980127703100  0080000000000232420054405020     00000000252190000000000256020068KWH 00000100000000000000000000000002607000000000002553      
RGRST980127703100  0130000000000232420054901015     00000000008019200000000008138458KW  00000100000000000000000000000000082000000000000081      
RGRST980127703100  0030000000000232420053906091_T   00000000040200000000000023100060   X00000100000000000000000000000000000000000000000000      
RGRST980127703100  0150000000000232420055101017     00000000003483600000000003579658KW  00000100000000000000000000000000036000000000000035      
RGRST980127703100  0040000000000232420054006095_1   00000000000000000000000000000020   X00000100000000000000000000000000000000000000000000      
RGRST980127703100  0090000000000232420054505030     00000000155909000000000158343068KWH 00000100000000000000000000000001610000000000001578      
RGRST980127703100  0160000000000232420055205222     00000000478348000000000485256053KVHX00000100000000000000000000000000000000000000000000      
CGRST980125248850  020001324397AMR     EDMI MK6            000030000056/4    202006280000202006281                         0000          0502000708101908050200    
RGRST980125248850  0160000000000232420053405222     00000000433337000000000445129003KVHX00000100000000000000000000000000000000000000000000      
RGRST980125248850  0150000000000232420053301017     00000000018346800000000018404408KW  00000100000000000000000000000000184000000000000183      
RGRST980125248850  0110000000000232420052902060     00000000000070300000000000068903KW X00000100000000000000000000000000000000000000000000      
RGRST980125248850  0040000000000232420052206095_1   00000000000000000000000000000000   X00000100000000000000000000000000000000000000000000      
RGRST980125248850  0070000000000232420052505010     00000002071041000000002079559008KWH 00000100000000000000000000000020901000000000020781      
RGRST980125248850  0180000000000232420053601118     00000000010660500000000010771208KVR 00000100000000000000000000000000108000000000000107      
RGRST980125248850  0060000000000232420052405111     00000003172548000000003185923003KWHX00000100000000000000000000000000000000000000000000      
RGRST980125248850  0080000000000232420052605020     00000000537364000000000540248008KWH 00000100000000000000000000000005437000000000005397      
RGRST980125248850  0030000000000232420052106091_T   00000000035800000000000022800040   X00000100000000000000000000000000000000000000000000      
RGRST980125248850  0100000000000232420052802050     00000000000102400000000000103803KW X00000100000000000000000000000000000000000000000000      
RGRST980125248850  0090000000000232420052705030     00000000564143000000000566116008KWH 00000100000000000000000000000005679000000000005655      
RGRST980125248850  0140000000000232420053201016     00000000015534300000000015603208KW  00000100000000000000000000000000156000000000000155      
RGRST980125248850  0120000000000232420053002070     00000000000016500000000000057603KW X00000100000000000000000000000000000000000000000000      
RGRST980125248850  0020000000000232420052006090_2D  00000029052000000000028062000060   X00000100000000000000000000000000000000000000000000      
RGRST980125248850  0170000000000232420053502280     00000000000114400000000000110603KVRX00000100000000000000000000000000000000000000000000      
RGRST980125248850  0010000000000232420051906888     00000000000000000000000000000010   X00000100000000000000000000000000000000000000000000      
RGRST980125248850  0130000000000232420053101015     00000000024920500000000025024408KW  00000100000000000000000000000000251000000000000249      
RGRST980125248850  0050000000000232420052303096     00000000012900000000000013000060   X00000100000000000000000000000000000000000000000000      
CGRST980127674187  020001258487AMR     EDMI MK10E          0000300000        202006280000202006281                         0000          0495000708101908049500    
RGRST980127674187  0170000000000232420058902280     00000000000055600000000000028053KVRX00000100000000000000000000000000000000000000000000      
RGRST980127674187  0050000000000232420057703096     00000000009700000000000009800080   X00000100000000000000000000000000000000000000000000      
RGRST980127674187  0160000000000232420058805222     00000000510929000000000514441053KVHX00000100000000000000000000000000000000000000000000      
RGRST980127674187  0140000000000232420058601016     00000000007089200000000007158058KW  00000100000000000000000000000000072000000000000071      
RGRST980127674187  0100000000000232420058202050     00000000000085600000000000072453KW X00000100000000000000000000000000000000000000000000      
RGRST980127674187  0010000000000232420057306888     00000000000000000000000000000010   X00000100000000000000000000000000000000000000000000      
RGRST980127674187  0070000000000232420057905010     00000001087905000000001091957068KWH 00000100000000000000000000000011145000000000010978      
RGRST980127674187  0130000000000232420058501015     00000000008082800000000008155258KW  00000100000000000000000000000000082000000000000081      
RGRST980127674187  0120000000000232420058402070     00000000000082400000000000068853KW X00000100000000000000000000000000000000000000000000      
RGRST980127674187  0060000000000232420057805111     00000002037874000000002046870062KWHX00000100000000000000000000000000000000000000000000      
RGRST980127674187  0090000000000232420058105030     00000000478866000000000481587068KWH 00000100000000000000000000000004916000000000004836      
RGRST980127674187  0020000000000232420057406090_2D  00000029052000000000028062000060   X00000100000000000000000000000000000000000000000000      
RGRST980127674187  0180000000000232420059001118     00000000004694400000000004722458KVR 00000100000000000000000000000000048000000000000047      
RGRST980127674187  0030000000000232420057506091_T   00000000040300000000000023100060   X00000100000000000000000000000000000000000000000000      
RGRST980127674187  0150000000000232420058701017     00000000007144800000000007213658KW  00000100000000000000000000000000073000000000000072      
RGRST980127674187  0080000000000232420058005020     00000000471103000000000473326068KWH 00000100000000000000000000000004828000000000004755      
RGRST980127674187  0040000000000232420057606095_1   00000000000000000000000000000020   X00000100000000000000000000000000000000000000000000      
RGRST980127674187  0110000000000232420058302060     00000000000079600000000000068853KW X00000100000000000000000000000000000000000000000000      
CGRST980127708655  020021217256AMR     EDMI MK10E          0000500000101/62/1202006280000202006281                         0000          001300                    
RGRST980127708655  0080000000000232420083405020     00000000078639000000000079444068KWH 00000100000000000000000000000000807000000000000794      
RGRST980127708655  0140000000000232420084001016     00000000001938800000000001978058KW  00000100000000000000000000000000020000000000000019      
RGRST980127708655  0180000000000232420084401118     00000000000138800000000000160458KVR 00000100000000000000000000000000001000000000000001      
RGRST980127708655  0040000000000232420083006095_1   00000000000000000000000000000020   X00000100000000000000000000000000000000000000000000      
RGRST980127708655  0110000000000232420083702060     00000000000052000000000000039253KW X00000100000000000000000000000000000000000000000000      
RGRST980127708655  0170000000000232420084302280     00000000000027200000000000021653KVRX00000100000000000000000000000000000000000000000000      
RGRST980127708655  0050000000000232420083103096     00000000007200000000000007300080   X00000100000000000000000000000000000000000000000000      
RGRST980127708655  0160000000000232420084205222     00000000001266000000000001339053KVHX00000100000000000000000000000000000000000000000000      
RGRST980127708655  0070000000000232420083305010     00000000255689000000000259963068KWH 00000100000000000000000000000002672000000000002600      
RGRST980127708655  0030000000000232420082906091_T   00000000040100000000000023000060   X00000100000000000000000000000000000000000000000000      
RGRST980127708655  0090000000000232420083505030     00000000086943000000000088161068KWH 00000100000000000000000000000000895000000000000879      
RGRST980127708655  0130000000000232420083901015     00000000002425200000000002481658KW  00000100000000000000000000000000025000000000000024      
RGRST980127708655  0100000000000232420083602050     00000000000067600000000000056453KW X00000100000000000000000000000000000000000000000000      
RGRST980127708655  0010000000000232420082706888     00000000000000000000000000000010   X00000100000000000000000000000000000000000000000000      
RGRST980127708655  0120000000000232420083802070     00000000000059600000000000036853KW X00000100000000000000000000000000000000000000000000      
RGRST980127708655  0150000000000232420084101017     00000000002058800000000002095658KW  00000100000000000000000000000000021000000000000021      
RGRST980127708655  0020000000000232420082806090_2D  00000029052000000000028062000060   X00000100000000000000000000000000000000000000000000      
RGRST980127708655  0060000000000232420083205111     00000000421271000000000427568062KWHX00000100000000000000000000000000000000000000000000      
