HGRST98000006000x000000?0000000000000000000000000002020062895501AR6                 
CGRST980027710591  020001369968AMR     EDMI MK10E          0000500000        202006280ss02s2006281                         0000          8880050708101557888005    
RGRST980027710591  0180000000000232294628101118     00000000001258400000000001278458KVR 00000100000000000000000000000000013000000000000012      
RGRST980027710591  0020000000000232294626506090_2D  00000029052000000000028062000060   X00000100000000000000000000000000000000000000000000      
RGRST980027710591  0040000000000232294626706095_1   00000000000000000000000000000020   X00000100000000000000000000000000000000000000000000      
RGRST980027710591  0140000000000232294627701016     00000000001041600000000001062058KW  00000100000000000000000000000000010000000000000010      
RGRST980027710591  0050000000000232294626803096     00000000006900000000000007000080   X00000100000000000000000000000000000000000000000000      
RGRST980027710591  0120000000000232294627502070     00000000000022400000000000021653KW X00000100000000000000000000000000000000000000000000      
RGRST980027710591  0150000000000232294627801017     00000000001168400000000001190058KW  00000100000000000000000000000000012000000000000011      
RGRST980027710591  0130000000000232294627601015     00000000001238400000000001261258KW  00000100000000000000000000000000012000000000000012      
RGRST980027710591  0110000000000232294627402060     00000000000022000000000000020453KW X00000100000000000000000000000000000000000000000000      
RGRST980027710591  0080000000000232294627105020     00000000083996000000000086101068KWH 00000100000000000000000000000000884000000000000856      
RGRST980027710591  0010000000000232294626406888     00000000000000000000000000000010   X00000100000000000000000000000000000000000000000000      
RGRST980027710591  0030000000000232294626606091_T   00000000040200000000000023100060   X00000100000000000000000000000000000000000000000000      
RGRST980027710591  0060000000000232294626905111     00000000317999000000000325990062KWHX00000100000000000000000000000000000000000000000000      
RGRST980027710591  0070000000000232294627005010     00000000136356000000000139563068KWH 00000100000000000000000000000001431000000000001389      
RGRST980027710591  0170000000000232294628002280     00000000000020800000000000020053KVRX00000100000000000000000000000000000000000000000000      
RGRST980027710591  0100000000000232294627302050     00000000000028400000000000022853KW X00000100000000000000000000000000000000000000000000      
RGRST980027710591  0090000000000232294627205030     00000000097647000000000100326068KWH 00000100000000000000000000000001029000000000000996      
RGRST980027710591  0160000000000232294627905222     00000000154637000000000158812053KVHX00000100000000000000000000000000000000000000000000      
CGRST980027710604  020017407392AMR     EDMI MK10E          0000500000        202006280000202006281                         0000          8880450708101341888045    
RGRST980027710604  0160000000000232295126805222     00000000590147000000000598393053KVHX00000100000000000000000000000000000000000000000000      
RGRST980027710604  0170000000000232295126902280     00000000000022800000000000024053KVRX00000100000000000000000000000000000000000000000000      
RGRST980027710604  0030000000000232295125506091_T   00000000035700000000000022700060   X00000100000000000000000000000000000000000000000000      
RGRST980027710604  0180000000000232295127001118     00000000001840000000000001864058KVR 00000100000000000000000000000000018000000000000018      
RGRST980027710604  0060000000000232295125805111     00000001679177000000001706370062KWHX00000100000000000000000000000000000000000000000000      
RGRST980027710604  0090000000000232295126105030     00000000522304000000000531747068KWH 00000100000000000000000000000005407000000000005292      
RGRST980027710604  0050000000000232295125703096     00000000006900000000000007000080   X00000100000000000000000000000000000000000000000000      
RGRST980027710604  0080000000000232295126005020     00000000332648000000000337179068KWH 00000100000000000000000000000003431000000000003365      
RGRST980027710604  0070000000000232295125905010     00000000824225000000000837444068KWH 00000100000000000000000000000008517000000000008345      
RGRST980027710604  0140000000000232295126601016     00000000003100000000000003145658KW  00000100000000000000000000000000032000000000000031      
RGRST980027710604  0110000000000232295126302060     00000000000052400000000000045653KW X00000100000000000000000000000000000000000000000000      
RGRST980027710604  0150000000000232295126701017     00000000005380000000000005460858KW  00000100000000000000000000000000055000000000000054      
RGRST980027710604  0100000000000232295126202050     00000000000094800000000000094453KW X00000100000000000000000000000000000000000000000000      
RGRST980027710604  0120000000000232295126402070     00000000000081600000000000080853KW X00000100000000000000000000000000000000000000000000      
RGRST980027710604  0020000000000232295125406090_2D  00000029052000000000028062000060   X00000100000000000000000000000000000000000000000000      
RGRST980027710604  0040000000000232295125606095_1   00000000000000000000000000000020   X00000100000000000000000000000000000000000000000000      
RGRST980027710604  0010000000000232295125306888     00000000000000000000000000000010   X00000100000000000000000000000000000000000000000000      
RGRST980027710604  0130000000000232295126501015     00000000005701200000000005795658KW  00000100000000000000000000000000058000000000000057      
CGRST980027710314  020003615614AMR     EDMI MK10E          0000300000        202006280000202006281                         0000          8880010708101322888001    
RGRST980027710314  0070000000000232294131805010     00000000251439000000000252017068KWH 00000100000000000000000000000002529000000000002520      
RGRST980027710314  0130000000000232294132401015     00000000003403600000000003416858KW  00000100000000000000000000000000034000000000000034      
RGRST980027710314  0150000000000232294132601017     00000000003268000000000003282858KW  00000100000000000000000000000000033000000000000032      
RGRST980027710314  0060000000000232294131705111     00000000658072000000000660015062KWHX00000100000000000000000000000000000000000000000000      
RGRST980027710314  0160000000000232294132705222     00000000195433000000000195874053KVHX00000100000000000000000000000000000000000000000000      
RGRST980027710314  0110000000000232294132202060     00000000000017600000000000014453KW X00000100000000000000000000000000000000000000000000      
RGRST980027710314  0120000000000232294132302070     00000000000019600000000000014853KW X00000100000000000000000000000000000000000000000000      
RGRST980027710314  0020000000000232294131306090_2D  00000029052000000000028062000060   X00000100000000000000000000000000000000000000000000      
RGRST980027710314  0100000000000232294132102050     00000000000016400000000000013253KW X00000100000000000000000000000000000000000000000000      
RGRST980027710314  0090000000000232294132005030     00000000209859000000000210506068KWH 00000100000000000000000000000002115000000000002105      
RGRST980027710314  0140000000000232294132501016     00000000003128000000000003142458KW  00000100000000000000000000000000031000000000000031      
RGRST980027710314  0080000000000232294131905020     00000000196774000000000197492068KWH 00000100000000000000000000000001986000000000001974      
RGRST980027710314  0180000000000232294132901118     00000000000548000000000000549658KVR 00000100000000000000000000000000005000000000000005      
RGRST980027710314  0010000000000232294131206888     00000000000000000000000000000010   X00000100000000000000000000000000000000000000000000      
RGRST980027710314  0170000000000232294132802280     00000000000002000000000000001653KVRX00000100000000000000000000000000000000000000000000      
RGRST980027710314  0040000000000232294131506095_1   00000000000000000000000000000020   X00000100000000000000000000000000000000000000000000      
RGRST980027710314  0030000000000232294131406091_T   00000000040100000000000023000060   X00000100000000000000000000000000000000000000000000      
RGRST980027710314  0050000000000232294131603096     00000000006900000000000007000080   X00000100000000000000000000000000000000000000000000      
CGRST980023066400  020023310733AMR     EDMI MK6            0000800000        202006280000202006281                         0000          88811207081019111888112   
RGRST980023066400  0130000000000232294084001015     00000000034500700000000034583508KW  00000100000000000000000000000000346000000000000345      
RGRST980023066400  0050000000000232294083203096     00000000015200000000000015300060   X00000100000000000000000000000000000000000000000000      
RGRST980023066400  0060000000000232294083305111     00000008014948000000008043653002KWHX00000100000000000000000000000000000000000000000000      
RGRST980023066400  0020000000000232294082906090_2D  00000029052000000000028062000060   X00000100000000000000000000000000000000000000000000      
RGRST980023066400  0010000000000232294082806888     00000000000000000000000000000010   X00000100000000000000000000000000000000000000000000      
RGRST980023066400  0110000000000232294083802060     00000000000087800000000000094603KW X00000100000000000000000000000000000000000000000000      
RGRST980023066400  0150000000000232294084201017     00000000032120400000000032208308KW  00000100000000000000000000000000322000000000000321      
RGRST980023066400  0070000000000232294083405010     00000005107490000000005118130008KWH 00000100000000000000000000000051259000000000051144      
RGRST980023066400  0030000000000232294083006091_T   00000000035800000000000022800040   X00000100000000000000000000000000000000000000000000      
RGRST980023066400  0040000000000232294083106095_1   00000000000000000000000000000000   X00000100000000000000000000000000000000000000000000      
RGRST980023066400  0090000000000232294083605030     00000001872730000000001882219008KWH 00000100000000000000000000000018880000000000018784      
RGRST980023066400  0080000000000232294083505020     00000001034728000000001043304008KWH 00000100000000000000000000000010475000000000010395      
RGRST980023066400  0100000000000232294083702050     00000000000096000000000000082803KW X00000100000000000000000000000000000000000000000000      
RGRST980023066400  0180000000000232294084501118     00000000016627400000000016644908KVR 00000100000000000000000000000000166000000000000166      
RGRST980023066400  0140000000000232294084101016     00000000027997900000000028092508KW  00000100000000000000000000000000281000000000000280      
RGRST980023066400  0160000000000232294084305222     00000003492502000000003499057003KVHX00000100000000000000000000000000000000000000000000      
RGRST980023066400  0170000000000232294084402280     00000000000019100000000000017503KVRX00000100000000000000000000000000000000000000000000      
RGRST980023066400  0120000000000232294083902070     00000000000084000000000000087903KW X00000100000000000000000000000000000000000000000000      
CGRST980027702098  020022801696AMR     EDMI MK10E          0000300000        2s2006280000202006281                         0000          88810507081019111888105   
RGRST980027702098  0180000000000232295479201118     00000000000099200000000000114858KVR 00000100000000000000000000000000001000000000000001      
RGRST980027702098  0030000000000232295477706091_T   00000000035900000000000022800060   X00000100000000000000000000000000000000000000000000      
RGRST980027702098  0130000000000232295478701015     00000000004705200000000004847258KW  00000100000000000000000000000000049000000000000047      
RGRST980027702098  0020000000000232295477606090_2D  00000029052000000000028062000060   X00000100000000000000000000000000000000000000000000      
RGRST980027702098  0150000000000232295478901017     00000000004822400000000004975258KW  00000100000000000000000000000000050000000000000049      
RGRST980027702098  0090000000000232295478305030     00000000577466000000000589036068KWH 00000100000000000000000000000005947000000000005839      
RGRST980027702098  0120000000000232295478602070     00000000000122000000000000152853KW X00000100000000000000000000000000000000000000000000      
RGRST980027702098  0110000000000232295478502060     00000000000152800000000000167653KW X00000100000000000000000000000000000000000000000000      
RGRST980027702098  0140000000000232295478801016     00000000004964400000000005132058KW  00000100000000000000000000000000052000000000000050      
RGRST980027702098  0060000000000232295478005111     00000001797379000000001829925062KWHX00000100000000000000000000000000000000000000000000      
RGRST980027702098  0050000000000232295477903096     00000000007700000000000007800080   X00000100000000000000000000000000000000000000000000      
RGRST980027702098  0170000000000232295479102280     00000000000014000000000000015653KVRX00000100000000000000000000000000000000000000000000      
RGRST980027702098  0100000000000232295478402050     00000000000156000000000000142053KW X00000100000000000000000000000000000000000000000000      
RGRST980027702098  0080000000000232295478205020     00000000563149000000000574215068KWH 00000100000000000000000000000005800000000000005694      
RGRST980027702098  0010000000000232295477506888     00000000000000000000000000000010   X00000100000000000000000000000000000000000000000000      
RGRST980027702098  0160000000000232295479005222     00000000024749000000000031980062KVHX00000100000000000000000000000000000000000000000000      
RGRST980027702098  0070000000000232295478105010     00000000656764000000000666674068KWH 00000100000000000000000000000006719000000000006624      
RGRST980027702098  0040000000000232295477806095_1   00000000000000000000000000000020   X00000100000000000000000000000000000000000000000000      
CGRST980023075778  020021350453AMR     EDMI MK6            0000300000        202006280000202006281                         0000          00060007081019000000600   
RGRST980023075778  0010000000000232293829206888     00000000000000000000000000000010   X00000100000000000000000000000000000000000000000000      
RGRST980023075778  0130000000000232293860401015     00000000012724400000000012902308KW  00000100000000000000000000000000127000000000000127      
RGRST980023075778  0100000000000232293860102050     00000000000175000000000000177903KW X00000100000000000000000000000000000000000000000000      
RGRST980023075778  0060000000000232293829705111     00000002155175000000002166894002KWHX00000100000000000000000000000000000000000000000000      
RGRST980023075778  0080000000000232293829905020     00000000369965000000000371002008KWH 00000100000000000000000000000003699000000000003699      
RGRST980023075778  0120000000000232293860302070     00000000000176200000000000176503KW X00000100000000000000000000000000000000000000000000      
RGRST980023075778  0160000000000232293860705222     00000002638133000000002638137003KVHX00000100000000000000000000000000000000000000000000      
RGRST980023075778  0180000000000232293860901118     00000000014510400000000014517908KVR 00000100000000000000000000000000145000000000000145      
RGRST980023075778  0090000000000232293830005030     00000000470590000000000474692008KWH 00000100000000000000000000000004705000000000004705      
RGRST980023075778  0030000000000232293829406091_T   00000000040100000000000023000040   X00000100000000000000000000000000000000000000000000      
RGRST980023075778  0110000000000232293860202060     00000000000177400000000000177503KW X00000100000000000000000000000000000000000000000000      
RGRST980023075778  0050000000000232293829603096     00000000013600000000000013700060   X00000100000000000000000000000000000000000000000000      
RGRST980023075778  0040000000000232293829506095_1   00000000000000000000000000000000   X00000100000000000000000000000000000000000000000000      
RGRST980023075778  0170000000000232293860802280     00000000000004900000000000007503KVRX00000100000000000000000000000000000000000000000000      
RGRST980023075778  0070000000000232293829805010     00000001314620000000001321200008KWH 00000100000000000000000000000013146000000000013146      
RGRST980023075778  0020000000000232293829306090_2D  00000029052000000000028062000060   X00000100000000000000000000000000000000000000000000      
RGRST980023075778  0140000000000232293860501016     00000000010270500000000010448008KW  00000100000000000000000000000000102000000000000102      
RGRST980023075778  0150000000000232293860601017     00000000010875000000000011051608KW  00000100000000000000000000000000108000000000000108      
HGRST98010010001s00000000000000000000000000000000002020062895501AR6                 
CGRST980127710587  020018315114AMR     EDMI MK10E          0000800000101/45  202006280000202006281                         0000          0010000708101908001000    
RGRST980127710587  0130000000000232420056701015     00000000000801200000000000809258KW  00000100000000000000000000000000008000000000000008      
RGRST980127710587  0050000000000232420055903096     00000000007200000000000007300080   X00000100000000000000000000000000000000000000000000      
RGRST980127710587  0180000000000232420057201118     00000000000513600000000000520058KVR 00000100000000000000000000000000005000000000000005      
RGRST980127710587  0160000000000232420057005222     00000000041756000000000042170053KVHX00000100000000000000000000000000000000000000000000      
RGRST980127710587  0070000000000232420056105010     00000000051070000000000051758068KWH 00000100000000000000000000000000526000000000000516      
RGRST980127710587  0080000000000232420056205020     00000000022915000000000023176068KWH 00000100000000000000000000000000234000000000000231      
RGRST980127710587  0100000000000232420056402050     00000000000011600000000000008053KW X00000100000000000000000000000000000000000000000000      
RGRST980127710587  0030000000000232420055706091_T   00000000040300000000000023100060   X00000100000000000000000000000000000000000000000000      
RGRST980127710587  0060000000000232420056005111     00000000095392000000000096525062KWHX00000100000000000000000000000000000000000000000000      
RGRST980127710587  0040000000000232420055806095_1   00000000000000000000000000000020   X00000100000000000000000000000000000000000000000000      
RGRST980127710587  0090000000000232420056305030     00000000021407000000000021591068KWH 00000100000000000000000000000000217000000000000215      
RGRST980127710587  0020000000000232420055606090_2D  00000029052000000000028062000060   X00000100000000000000000000000000000000000000000000      
RGRST980127710587  0140000000000232420056801016     00000000000399600000000000406058KW  00000100000000000000000000000000004000000000000004      
RGRST980127710587  0110000000000232420056502060     00000000000004400000000000006453KW X00000100000000000000000000000000000000000000000000      
RGRST980127710587  0170000000000232420057102280     00000000000006800000000000006453KVRX00000100000000000000000000000000000000000000000000      
RGRST980127710587  0150000000000232420056901017     00000000000522400000000000526458KW  00000100000000000000000000000000005000000000000005      
RGRST980127710587  0120000000000232420056602070     00000000000004400000000000004053KW X00000100000000000000000000000000000000000000000000      
RGRST980127710587  0010000000000232420055506888     00000000000000000000000000000010   X00000100000000000000000000000000000000000000000000      
CGRST980123068436  020019514450AMR     EDMI MK6            0000500000222/8   202006280000202006281                         0000          0503300708101908050330    
RGRST980123068436  0010000000000232420080906888     00000000000000000000000000000010   X00000100000000000000000000000000000000000000000000      
RGRST980123068436  0140000000000232420082201016     00000000015897400000000016051908KW  00000100000000000000000000000000162000000000000160      
RGRST980123068436  0060000000000232420081405111     00000003325035000000003356762003KWHX00000100000000000000000000000000000000000000000000      
RGRST980123068436  0150000000000232420082301017     00000000016129400000000016277708KW  00000100000000000000000000000000164000000000000162      
RGRST980123068436  0030000000000232420081106091_T   00000000040300000000000023100040   X00000100000000000000000000000000000000000000000000      
RGRST980123068436  0180000000000232420082601118     00000000005564500000000005603908KVR 00000100000000000000000000000000056000000000000055      
RGRST980123068436  0100000000000232420081802050     00000000000165500000000000168103KW X00000100000000000000000000000000000000000000000000      
RGRST980123068436  0110000000000232420081902060     00000000000165900000000000154503KW X00000100000000000000000000000000000000000000000000      
RGRST980123068436  0130000000000232420082101015     00000000017265800000000017433908KW  00000100000000000000000000000000175000000000000173      
RGRST980123068436  0070000000000232420081505010     00000002179742000000002199698008KWH 00000100000000000000000000000022239000000000021963      
RGRST980123068436  0090000000000232420081705030     00000000685347000000000692431008KWH 00000100000000000000000000000007011000000000006912      
RGRST980123068436  0080000000000232420081605020     00000000459946000000000464633008KWH 00000100000000000000000000000004701000000000004637      
RGRST980123068436  0020000000000232420081006090_2D  00000029052000000000028062000060   X00000100000000000000000000000000000000000000000000      
RGRST980123068436  0040000000000232420081206095_1   00000000000000000000000000000000   X00000100000000000000000000000000000000000000000000      
RGRST980123068436  0170000000000232420082502280     00000000000041600000000000039403KVRX00000100000000000000000000000000000000000000000000      
RGRST980123068436  0160000000000232420082405222     00000000631171000000000636305003KVHX00000100000000000000000000000000000000000000000000      
RGRST980123068436  0120000000000232420082002070     00000000000168400000000000148303KW X00000100000000000000000000000000000000000000000000      
RGRST980123068436  0050000000000232420081303096     00000000014500000000000014600060   X00000100000000000000000000000000000000000000000000      
CGRST98015701544508020017480493AMR     EDMI MK10E          000050000056/20   202006280000202006281                         0000          0505000708101908050500    
RGRST980157015445080130000000000232420039501015     00000000006941200000000007070458KW  00000100000000000000000000000000071000000000000070      
RGRST980157015445080020000000000232420038406090_2D  00000029052000000000028062000060   X00000100000000000000000000000000000000000000000000      
RGRST980157015445080160000000000232420039805222     00000000749791000000000762743053KVHX00000100000000000000000000000000000000000000000000      
RGRST980157015445080050000000000232420038703096     00000000005700000000000005800080   X00000100000000000000000000000000000000000000000000      
RGRST980157015445080170000000000232420039902280     00000000000088400000000000097253KVRX00000100000000000000000000000000000000000000000000      
RGRST980157015445080090000000000232420039105030     00000000113888000000000116042068KWH 00000100000000000000000000000001177000000000001153      
RGRST980157015445080180000000000232420040001118     00000000005581200000000005678458KVR 00000100000000000000000000000000057000000000000056      
RGRST980157015445080070000000000232420038905010     00000000744388000000000757718068KWH 00000100000000000000000000000007729000000000007550      
RGRST980157015445080150000000000232420039701017     00000000003713600000000003765258KW  00000100000000000000000000000000038000000000000037      
RGRST980157015445080100000000000232420039202050     00000000000117200000000000129253KW X00000100000000000000000000000000000000000000000000      
RGRST980157015445080140000000000232420039601016     00000000005669600000000005776458KW  00000100000000000000000000000000058000000000000057      
RGRST980157015445080110000000000232420039302060     00000000000123600000000000106853KW X00000100000000000000000000000000000000000000000000      
RGRST980157015445080010000000000232420038306888     00000000000000000000000000000010   X00000100000000000000000000000000000000000000000000      
RGRST980157015445080080000000000232420039005020     00000000148904000000000151944068KWH 00000100000000000000000000000001553000000000001513      
RGRST980157015445080030000000000232420038506091_T   00000000040300000000000023100060   X00000100000000000000000000000000000000000000000000      
RGRST980157015445080060000000000232420038805111     00000001007180000000001025704062KWHX00000100000000000000000000000000000000000000000000      
RGRST980157015445080040000000000232420038606095_1   00000000000000000000000000000020   X00000100000000000000000000000000000000000000000000      
RGRST980157015445080120000000000232420039402070     00000000000031200000000000051653KW X00000100000000000000000000000000000000000000000000      
CGRST980127710603  020019520301AMR     EDMI MK10E          0000800000101/124 202006280000202006281                         0000          0010500708101908001050    
RGRST980127710603  0060000000000232420059605111     00000000219066000000000223166062KWHX00000100000000000000000000000000000000000000000000      
RGRST980127710603  0110000000000232420080102060     00000000000016800000000000024853KW X00000100000000000000000000000000000000000000000000      
RGRST980127710603  0080000000000232420059805020     00000000039194000000000039915068KWH 00000100000000000000000000000000409000000000000398      
RGRST980127710603  0010000000000232420059106888     00000000000000000000000000000010   X00000100000000000000000000000000000000000000000000      
RGRST980127710603  0040000000000232420059406095_1   00000000000000000000000000000020   X00000100000000000000000000000000000000000000000000      
RGRST980127710603  0090000000000232420059905030     00000000035515000000000036110068KWH 00000100000000000000000000000000370000000000000360      
RGRST980127710603  0130000000000232420080301015     00000000001784000000000001825258KW  00000100000000000000000000000000018000000000000018      
RGRST980127710603  0020000000000232420059206090_2D  00000029052000000000028062000060   X00000100000000000000000000000000000000000000000000      
RGRST980127710603  0150000000000232420080501017     00000000001028400000000001043658KW  00000100000000000000000000000000010000000000000010      
RGRST980127710603  0050000000000232420059503096     00000000007100000000000007200080   X00000100000000000000000000000000000000000000000000      
RGRST980127710603  0070000000000232420059705010     00000000144357000000000147141068KWH 00000100000000000000000000000001508000000000001467      
RGRST980127710603  0180000000000232420080801118     00000000001083200000000001103658KVR 00000100000000000000000000000000011000000000000010      
RGRST980127710603  0160000000000232420080605222     00000000095004000000000096305053KVHX00000100000000000000000000000000000000000000000000      
RGRST980127710603  0120000000000232420080202070     00000000000015200000000000015253KW X00000100000000000000000000000000000000000000000000      
RGRST980127710603  0170000000000232420080702280     00000000000012800000000000020453KVRX00000100000000000000000000000000000000000000000000      
RGRST980127710603  0100000000000232420060002050     00000000000027200000000000041253KW X00000100000000000000000000000000000000000000000000      
RGRST980127710603  0030000000000232420059306091_T   00000000035800000000000022800060   X00000100000000000000000000000000000000000000000000      
RGRST980127710603  0140000000000232420080401016     00000000001261600000000001286458KW  00000100000000000000000000000000013000000000000012      
CGRST980127703100  020018255569AMR     EDMI MK10E          0000800000102/3   202006280000202006281                         0000          0503500708101908050350    
RGRST980127703100  0110000000000232420054702060     00000000000102800000000000104453KW X00000100000000000000000000000000000000000000000000      
RGRST980127703100  0050000000000232420054103096     00000000007400000000000007500080   X00000100000000000000000000000000000000000000000000      
RGRST980127703100  0070000000000232420054305010     00000001039737000000001054401068KWH 00000100000000000000000000000010729000000000010521      
RGRST980127703100  0100000000000232420054602050     00000000000114400000000000119253KW X00000100000000000000000000000000000000000000000000      
RGRST980127703100  0060000000000232420054205111     00000001447836000000001468764062KWHX00000100000000000000000000000000000000000000000000      
RGRST980127703100  0140000000000232420055001016     00000000006868800000000006973258KW  00000100000000000000000000000000070000000000000069      
RGRST980127703100  0180000000000232420055401118     00000000003100800000000003142458KVR 00000100000000000000000000000000031000000000000031      
RGRST980127703100  0020000000000232420053806090_2D  00000029052000000000028062000060   X00000100000000000000000000000000000000000000000000      
RGRST980127703100  0010000000000232420053706888     00000000000000000000000000000010   X00000100000000000000000000000000000000000000000000      
RGRST980127703100  0120000000000232420054802070     00000000000112800000000000096053KW X00000100000000000000000000000000000000000000000000      
RGRST980127703100  0170000000000232420055302280     00000000000042800000000000041653KVRX00000100000000000000000000000000000000000000000000      
RGRST980127703100  0080000000000232420054405020     00000000252190000000000256020068KWH 00000100000000000000000000000002607000000000002553      
RGRST980127703100  0130000000000232420054901015     00000000008019200000000008138458KW  00000100000000000000000000000000082000000000000081      
RGRST980127703100  0030000000000232420053906091_T   00000000040200000000000023100060   X00000100000000000000000000000000000000000000000000      
RGRST980127703100  0150000000000232420055101017     00000000003483600000000003579658KW  00000100000000000000000000000000036000000000000035      
RGRST980127703100  0040000000000232420054006095_1   00000000000000000000000000000020   X00000100000000000000000000000000000000000000000000      
RGRST980127703100  0090000000000232420054505030     00000000155909000000000158343068KWH 00000100000000000000000000000001610000000000001578      
RGRST980127703100  0160000000000232420055205222     00000000478348000000000485256053KVHX00000100000000000000000000000000000000000000000000      
CGRST980125248850  020001324397AMR     EDMI MK6            000030000056/4    202006280000202006281                         0000          0502000708101908050200    
RGRST980125248850  0160000000000232420053405222     00000000433337000000000445129003KVHX00000100000000000000000000000000000000000000000000      
RGRST980125248850  0150000000000232420053301017     00000000018346800000000018404408KW  00000100000000000000000000000000184000000000000183      
RGRST980125248850  0110000000000232420052902060     00000000000070300000000000068903KW X00000100000000000000000000000000000000000000000000      
RGRST980125248850  0040000000000232420052206095_1   00000000000000000000000000000000   X00000100000000000000000000000000000000000000000000      
RGRST980125248850  0070000000000232420052505010     00000002071041000000002079559008KWH 00000100000000000000000000000020901000000000020781      
RGRST980125248850  0180000000000232420053601118     00000000010660500000000010771208KVR 00000100000000000000000000000000108000000000000107      
RGRST980125248850  0060000000000232420052405111     00000003172548000000003185923003KWHX00000100000000000000000000000000000000000000000000      
RGRST980125248850  0080000000000232420052605020     00000000537364000000000540248008KWH 00000100000000000000000000000005437000000000005397      
RGRST980125248850  0030000000000232420052106091_T   00000000035800000000000022800040   X00000100000000000000000000000000000000000000000000      
RGRST980125248850  0100000000000232420052802050     00000000000102400000000000103803KW X00000100000000000000000000000000000000000000000000      
RGRST980125248850  0090000000000232420052705030     00000000564143000000000566116008KWH 00000100000000000000000000000005679000000000005655      
RGRST980125248850  0140000000000232420053201016     00000000015534300000000015603208KW  00000100000000000000000000000000156000000000000155      
RGRST980125248850  0120000000000232420053002070     00000000000016500000000000057603KW X00000100000000000000000000000000000000000000000000      
RGRST980125248850  0020000000000232420052006090_2D  00000029052000000000028062000060   X00000100000000000000000000000000000000000000000000      
RGRST980125248850  0170000000000232420053502280     00000000000114400000000000110603KVRX00000100000000000000000000000000000000000000000000      
RGRST980125248850  0010000000000232420051906888     00000000000000000000000000000010   X00000100000000000000000000000000000000000000000000      
RGRST980125248850  0130000000000232420053101015     00000000024920500000000025024408KW  00000100000000000000000000000000251000000000000249      
RGRST980125248850  0050000000000232420052303096     00000000012900000000000013000060   X00000100000000000000000000000000000000000000000000      
CGRST980127674187  020001258487AMR     EDMI MK10E          0000300000        202006280000202006281                         0000          0495000708101908049500    
RGRST980127674187  0170000000000232420058902280     00000000000055600000000000028053KVRX00000100000000000000000000000000000000000000000000      
RGRST980127674187  0050000000000232420057703096     00000000009700000000000009800080   X00000100000000000000000000000000000000000000000000      
RGRST980127674187  0160000000000232420058805222     00000000510929000000000514441053KVHX00000100000000000000000000000000000000000000000000      
RGRST980127674187  0140000000000232420058601016     00000000007089200000000007158058KW  00000100000000000000000000000000072000000000000071      
RGRST980127674187  0100000000000232420058202050     00000000000085600000000000072453KW X00000100000000000000000000000000000000000000000000      
RGRST980127674187  0010000000000232420057306888     00000000000000000000000000000010   X00000100000000000000000000000000000000000000000000      
RGRST980127674187  0070000000000232420057905010     00000001087905000000001091957068KWH 00000100000000000000000000000011145000000000010978      
RGRST980127674187  0130000000000232420058501015     00000000008082800000000008155258KW  00000100000000000000000000000000082000000000000081      
RGRST980127674187  0120000000000232420058402070     00000000000082400000000000068853KW X00000100000000000000000000000000000000000000000000      
RGRST980127674187  0060000000000232420057805111     00000002037874000000002046870062KWHX00000100000000000000000000000000000000000000000000      
RGRST980127674187  0090000000000232420058105030     00000000478866000000000481587068KWH 00000100000000000000000000000004916000000000004836      
RGRST980127674187  0020000000000232420057406090_2D  00000029052000000000028062000060   X00000100000000000000000000000000000000000000000000      
RGRST980127674187  0180000000000232420059001118     00000000004694400000000004722458KVR 00000100000000000000000000000000048000000000000047      
RGRST980127674187  0030000000000232420057506091_T   00000000040300000000000023100060   X00000100000000000000000000000000000000000000000000      
RGRST980127674187  0150000000000232420058701017     00000000007144800000000007213658KW  00000100000000000000000000000000073000000000000072      
RGRST980127674187  0080000000000232420058005020     00000000471103000000000473326068KWH 00000100000000000000000000000004828000000000004755      
RGRST980127674187  0040000000000232420057606095_1   00000000000000000000000000000020   X00000100000000000000000000000000000000000000000000      
RGRST980127674187  0110000000000232420058302060     00000000000079600000000000068853KW X00000100000000000000000000000000000000000000000000      
CGRST980127708655  020021217256AMR     EDMI MK10E          0000500000101/62/1202006280000202006281                         0000          001300                    
RGRST980127708655  0080000000000232420083405020     00000000078639000000000079444068KWH 00000100000000000000000000000000807000000000000794      
RGRST980127708655  0140000000000232420084001016     00000000001938800000000001978058KW  00000100000000000000000000000000020000000000000019      
RGRST980127708655  0180000000000232420084401118     00000000000138800000000000160458KVR 00000100000000000000000000000000001000000000000001      
RGRST980127708655  0040000000000232420083006095_1   00000000000000000000000000000020   X00000100000000000000000000000000000000000000000000      
RGRST980127708655  0110000000000232420083702060     00000000000052000000000000039253KW X00000100000000000000000000000000000000000000000000      
RGRST980127708655  0170000000000232420084302280     00000000000027200000000000021653KVRX00000100000000000000000000000000000000000000000000      
RGRST980127708655  0050000000000232420083103096     00000000007200000000000007300080   X00000100000000000000000000000000000000000000000000      
RGRST980127708655  0160000000000232420084205222     00000000001266000000000001339053KVHX00000100000000000000000000000000000000000000000000      
RGRST980127708655  0070000000000232420083305010     00000000255689000000000259963068KWH 00000100000000000000000000000002672000000000002600      
RGRST980127708655  0030000000000232420082906091_T   00000000040100000000000023000060   X00000100000000000000000000000000000000000000000000      
RGRST980127708655  0090000000000232420083505030     00000000086943000000000088161068KWH 00000100000000000000000000000000895000000000000879      
RGRST980127708655  0130000000000232420083901015     00000000002425200000000002481658KW  00000100000000000000000000000000025000000000000024      
RGRST980127708655  0100000000000232420083602050     00000000000067600000000000056453KW X00000100000000000000000000000000000000000000000000      
RGRST980127708655  0010000000000232420082706888     00000000000000000000000000000010   X00000100000000000000000000000000000000000000000000      
RGRST980127708655  0120000000000232420083802070     00000000000059600000000000036853KW X00000100000000000000000000000000000000000000000000      
RGRST980127708655  0150000000000232420084101017     00000000002058800000000002095658KW  00000100000000000000000000000000021000000000000021      
RGRST980127708655  0020000000000232420082806090_2D  00000029052000000000028062000060   X00000100000000000000000000000000000000000000000000      
RGRST980127708655  0060000000000232420083205111     00000000421271000000000427568062KWHX00000100000000000000000000000000000000000000000000      
CGRST980127584528  020001326335AMR     EDMI MK6N           000050000056      202006280000202006281                         0000          0500000708101908050000    
RGRST980127584528  0040000000000232420050406095_1   00000000000000000000000000000000   X00000100000000000000000000000000000000000000000000      
RGRST980127584528  0180000000000232420051801118     00000000002147600000000002175468KVR 00000100000000000000000000000000021000000000000021      
RGRST980127584528  0100000000000232420051002050     00000000000006800000000000036263KW X00000100000000000000000000000000000000000000000000      
RGRST980127584528  0160000000000232420051605222     00000000080672000000000080797062KVHX00000100000000000000000000000000000000000000000000      
RGRST980127584528  0050000000000232420050503096     00000000010100000000000010200060   X00000100000000000000000000000000000000000000000000      
RGRST980127584528  0010000000000232420050106888     00000000000000000000000000000010   X00000100000000000000000000000000000000000000000000      
RGRST980127584528  0170000000000232420051702280     00000000000001700000000000027863KVRX00000100000000000000000000000000000000000000000000      
RGRST980127584528  0070000000000232420050705010     00000000147487000000000148176068KWH 00000100000000000000000000000001487000000000001479      
RGRST980127584528  0020000000000232420050206090_2D  00000029052000000000028062000060   X00000100000000000000000000000000000000000000000000      
RGRST980127584528  0080000000000232420050805020     00000000184550000000000185422068KWH 00000100000000000000000000000001867000000000001853      
RGRST980127584528  0140000000000232420051401016     00000000002037500000000002043668KW  00000100000000000000000000000000020000000000000020      
RGRST980127584528  0060000000000232420050605111     00000000466654000000000468897062KWHX00000100000000000000000000000000000000000000000000      
RGRST980127584528  0130000000000232420051301015     00000000004187800000000004223968KW  00000100000000000000000000000000042000000000000042      
RGRST980127584528  0150000000000232420051501017     00000000001964300000000001970368KW  00000100000000000000000000000000019000000000000019      
RGRST980127584528  0030000000000232420050306091_T   00000000040000000000000022900040   X00000100000000000000000000000000000000000000000000      
RGRST980127584528  0110000000000232420051102060     00000000000006800000000000006163KW X00000100000000000000000000000000000000000000000000      
RGRST980127584528  0090000000000232420050905030     00000000134617000000000135299068KWH 00000100000000000000000000000001362000000000001352      
RGRST980127584528  0120000000000232420051202070     00000000000006900000000000006063KW X00000100000000000000000000000000000000000000000000      
CGRST980127584524  020001086066AMR     EDMI MK6N           0000300000101/111 202006280000202006281                         0000          0490000708101908049000    
RGRST980127584524  0120000000000232420085602070     00000000000175500000000000151003KW X00000100000000000000000000000000000000000000000000      
RGRST980127584524  0030000000000232420084706091_T   00000000040000000000000023000040   X00000100000000000000000000000000000000000000000000      
RGRST980127584524  0080000000000232420085205020     00000000371773000000000376445008KWH 00000100000000000000000000000003816000000000003754      
RGRST980127584524  0010000000000232420084506888     00000000000000000000000000000010   X00000100000000000000000000000000000000000000000000      
RGRST980127584524  0110000000000232420085502060     00000000000156000000000000154403KW X00000100000000000000000000000000000000000000000000      
RGRST980127584524  0150000000000232420085901017     00000000014148200000000014299208KW  00000100000000000000000000000000144000000000000142      
RGRST980127584524  0070000000000232420085105010     00000001658290000000001676295008KWH 00000100000000000000000000000016927000000000016712      
RGRST980127584524  0130000000000232420085701015     00000000015422200000000015589608KW  00000100000000000000000000000000157000000000000155      
RGRST980127584524  0160000000000232420086005222     00000002294826000000002321064003KVHX00000100000000000000000000000000000000000000000000      
RGRST980127584524  0060000000000232420085005111     00000002526241000000002556294002KWHX00000100000000000000000000000000000000000000000000      
RGRST980127584524  0090000000000232420085305030     00000000496178000000000503554008KWH 00000100000000000000000000000005096000000000005012      
RGRST980127584524  0140000000000232420085801016     00000000014040200000000014194508KW  00000100000000000000000000000000143000000000000141      
RGRST980127584524  0020000000000232420084606090_2D  00000029052000000000028062000060   X00000100000000000000000000000000000000000000000000      
RGRST980127584524  0180000000000232420086201118     00000000011021300000000011144908KVR 00000100000000000000000000000000112000000000000111      
RGRST980127584524  0050000000000232420084903096     00000000010100000000000010200060   X00000100000000000000000000000000000000000000000000      
RGRST980127584524  0170000000000232420086102280     00000000000132300000000000123703KVRX00000100000000000000000000000000000000000000000000      
RGRST980127584524  0100000000000232420085402050     00000000000182000000000000167403KW X00000100000000000000000000000000000000000000000000      
RGRST980127584524  0040000000000232420084806095_1   00000000000000000000000000000000   X00000100000000000000000000000000000000000000000000      
HGRST98060013001200000000000000000000000000000000002020062895501AR6                 
CGRST980623066413  020001095901AMR     EDMI MK6            0000500000355/204 202006280000202006281                         0000          0025500708101915002550    
RGRST980623066413  0060000000000232333396905111     00000005338016000000005376725003KWHX00000100000000000000000000000000000000000000000000      
RGRST980623066413  0100000000000232333397302050     00000000000096500000000000100303KW X00000100000000000000000000000000000000000000000000      
RGRST980623066413  0120000000000232333397502070     00000000000100000000000000093903KW X00000100000000000000000000000000000000000000000000      
RGRST980623066413  0110000000000232333397402060     00000000000098600000000000093803KW X00000100000000000000000000000000000000000000000000      
RGRST980623066413  0040000000000232333396706095_1   00000000000000000000000000000000   X00000100000000000000000000000000000000000000000000      
RGRST980623066413  0010000000000232333396406888     00000000000000000000000000000010   X00000100000000000000000000000000000000000000000000      
RGRST980623066413  0140000000000232333397701016     00000000013453300000000013547108KW  00000100000000000000000000000000136000000000000135      
RGRST980623066413  0080000000000232333397105020     00000001495457000000001506577008KWH 00000100000000000000000000000015161000000000015032      
RGRST980623066413  0030000000000232333396606091_T   00000000040100000000000023000040   X00000100000000000000000000000000000000000000000000      
RGRST980623066413  0150000000000232333397801017     00000000014405300000000014499308KW  00000100000000000000000000000000146000000000000144      
RGRST980623066413  0050000000000232333396803096     00000000015100000000000015200060   X00000100000000000000000000000000000000000000000000      
RGRST980623066413  0170000000000232333398002280     00000000000048900000000000049003KVRX00000100000000000000000000000000000000000000000000      
RGRST980623066413  0160000000000232333397905222     00000001078792000000001091328003KVHX00000100000000000000000000000000000000000000000000      
RGRST980623066413  0180000000000232333398101118     00000000006661000000000006710008KVR 00000100000000000000000000000000067000000000000066      
RGRST980623066413  0090000000000232333397205030     00000001706584000000001719036008KWH 00000100000000000000000000000017317000000000017160      
RGRST980623066413  0070000000000232333397005010     00000002135975000000002151112008KWH 00000100000000000000000000000021666000000000021474      
RGRST980623066413  0130000000000232333397601015     00000000014714100000000014814408KW  00000100000000000000000000000000149000000000000147      
RGRST980623066413  0020000000000232333396506090_2D  00000029052000000000028062000060   X00000100000000000000000000000000000000000000000000      
CGRST980623068460  020001086214AMR     EDMI MK6            0000800000355/115-202006280000202006281                         0000          0017000708101915001700    
RGRST980623068460  0070000000000232331734205010     00000002325889000000002346363008KWH 00000100000000000000000000000023653000000000023407      
RGRST980623068460  0050000000000232331734003096     00000000014200000000000014300060   X00000100000000000000000000000000000000000000000000      
RGRST980623068460  0080000000000232331734305020     00000002456984000000002477069008KWH 00000100000000000000000000000024969000000000024719      
RGRST980623068460  0130000000000232331734801015     00000000013824500000000013940208KW  00000100000000000000000000000000140000000000000139      
RGRST980623068460  0170000000000232331735202280     00000000000051200000000000050103KVRX00000100000000000000000000000000000000000000000000      
RGRST980623068460  0180000000000232331735301118     00000000009151800000000009201908KVR 00000100000000000000000000000000092000000000000091      
RGRST980623068460  0090000000000232331734405030     00000002225083000000002245089008KWH 00000100000000000000000000000022646000000000022399      
RGRST980623068460  0020000000000232331733706090_2D  00000029052000000000028062000060   X00000100000000000000000000000000000000000000000000      
RGRST980623068460  0100000000000232331734502050     00000000000121000000000000115703KW X00000100000000000000000000000000000000000000000000      
RGRST980623068460  0140000000000232331734901016     00000000013814100000000013929008KW  00000100000000000000000000000000140000000000000138      
RGRST980623068460  0040000000000232331733906095_1   00000000000000000000000000000000   X00000100000000000000000000000000000000000000000000      
RGRST980623068460  0110000000000232331734602060     00000000000120300000000000114903KW X00000100000000000000000000000000000000000000000000      
RGRST980623068460  0120000000000232331734702070     00000000000121000000000000111803KW X00000100000000000000000000000000000000000000000000      
RGRST980623068460  0160000000000232331735105222     00000004360062000000004386056003KVHX00000100000000000000000000000000000000000000000000      
RGRST980623068460  0030000000000232331733806091_T   00000000040200000000000023100040   X00000100000000000000000000000000000000000000000000      
RGRST980623068460  0150000000000232331735001017     00000000013673400000000013785208KW  00000100000000000000000000000000138000000000000137      
RGRST980623068460  0060000000000232331734105111     00000007007956000000007068521003KWHX00000100000000000000000000000000000000000000000000      
RGRST980623068460  0010000000000232331733606888     00000000000000000000000000000010   X00000100000000000000000000000000000000000000000000      
CGRST980627674212  020001095900AMR     EDMI MK10E          0000500000115-116 202006280000202006281                         0000          0021500708101915002150    
RGRST980627674212  0120000000000232334432702070     00000000000016000000000000018053KW X00000100000000000000000000000000000000000000000000      
RGRST980627674212  0040000000000232334431906095_1   00000000000000000000000000000020   X00000100000000000000000000000000000000000000000000      
RGRST980627674212  0020000000000232334431706090_2D  00000029052000000000028062000060   X00000100000000000000000000000000000000000000000000      
RGRST980627674212  0080000000000232334432305020     00000000120783000000000121631068KWH 00000100000000000000000000000001225000000000001214      
RGRST980627674212  0060000000000232334432105111     00000000503129000000000507373062KWHX00000100000000000000000000000000000000000000000000      
RGRST980627674212  0160000000000232334433105222     00000000253573000000000255791053KVHX00000100000000000000000000000000000000000000000000      
RGRST980627674212  0070000000000232334432205010     00000000237533000000000239566068KWH 00000100000000000000000000000002418000000000002391      
RGRST980627674212  0090000000000232334432405030     00000000144813000000000146176068KWH 00000100000000000000000000000001475000000000001458      
RGRST980627674212  0110000000000232334432602060     00000000000013600000000000012853KW X00000100000000000000000000000000000000000000000000      
RGRST980627674212  0150000000000232334433001017     00000000001754400000000001772458KW  00000100000000000000000000000000017000000000000017      
RGRST980627674212  0180000000000232334433301118     00000000001912400000000001929258KVR 00000100000000000000000000000000019000000000000019      
RGRST980627674212  0170000000000232334433202280     00000000000020400000000000016853KVRX00000100000000000000000000000000000000000000000000      
RGRST980627674212  0050000000000232334432003096     00000000009700000000000009800080   X00000100000000000000000000000000000000000000000000      
RGRST980627674212  0030000000000232334431806091_T   00000000040100000000000023000060   X00000100000000000000000000000000000000000000000000      
RGRST980627674212  0010000000000232334431606888     00000000000000000000000000000010   X00000100000000000000000000000000000000000000000000      
RGRST980627674212  0100000000000232334432502050     00000000000019200000000000019253KW X00000100000000000000000000000000000000000000000000      
RGRST980627674212  0130000000000232334432801015     00000000001930000000000001949258KW  00000100000000000000000000000000019000000000000019      
RGRST980627674212  0140000000000232334432901016     00000000001519200000000001532058KW  00000100000000000000000000000000015000000000000015      
CGRST980623068461  020001086215AMR     EDMI MK6            0000800000355/115-000000000000000000000                         0000          0018000708101915001800    
RGRST980623068461  0040000000000232332288206095_1   00000000000000000000000000000000   X00000100000000000000000000000000000000000000000000      
RGRST980623068461  0160000000000232332289405222     00000000952007000000000000000003KVHX00000100000000000000000000000000000000000000000000      
RGRST980623068461  0110000000000232332288902060     00000000000148600000000000000003KW X00000100000000000000000000000000000000000000000000      
RGRST980623068461  0120000000000232332289002070     00000000000153200000000000000003KW X00000100000000000000000000000000000000000000000000      
RGRST980623068461  0130000000000232332289101015     00000000025299500000000000000008KW  00000100000000000000000000000000255000000000000253      
RGRST980623068461  0140000000000232332289201016     00000000024333500000000000000008KW  00000100000000000000000000000000245000000000000244      
RGRST980623068461  0180000000000232332289601118     00000000006093200000000000000008KVR 00000100000000000000000000000000061000000000000061      
RGRST980623068461  0030000000000232332288106091_T   00000000000000000000000000000040   X00000100000000000000000000000000000000000000000000      
RGRST980623068461  0060000000000232332288405111     00000011547225000000000000000003KWHX00000100000000000000000000000000000000000000000000      
RGRST980623068461  0050000000000232332288303096     00000000014100000000000000000060   X00000100000000000000000000000000000000000000000000      
RGRST980623068461  0090000000000232332288705030     00000003639440000000000000000008KWH 00000100000000000000000000000036623000000000036480      
RGRST980623068461  0070000000000232332288505010     00000004112964000000000000000008KWH 00000100000000000000000000000041411000000000041235      
RGRST980623068461  0010000000000232332287906888     00000000000000000000000000000010   X00000100000000000000000000000000000000000000000000      
RGRST980623068461  0080000000000232332288605020     00000003794816000000000000000008KWH 00000100000000000000000000000038210000000000038046      
RGRST980623068461  0100000000000232332288802050     00000000000150300000000000000003KW X00000100000000000000000000000000000000000000000000      
RGRST980623068461  0020000000000232332288006090_2D  00000000000000000000000000000060   X00000100000000000000000000000000000000000000000000      
RGRST980623068461  0150000000000232332289301017     00000000024579500000000000000008KW  00000100000000000000000000000000247000000000000246      
RGRST980623068461  0170000000000232332289502280     00000000000016600000000000000003KVRX00000100000000000000000000000000000000000000000000      
CGRST980623068462  020001086217AMR     EDMI MK6            0000800000355/115-202006280000202006281                         0000          0020000708101915002000    
RGRST980623068462  0020000000000232332836206090_2D  00000029052000000000028062000060   X00000100000000000000000000000000000000000000000000      
RGRST980623068462  0160000000000232332837605222     00000000000000000000000000000003KVHX00000100000000000000000000000000000000000000000000      
RGRST980623068462  0100000000000232332837002050     00000000000140900000000000154803KW X00000100000000000000000000000000000000000000000000      
RGRST980623068462  0170000000000232332837702280     00000000000000100000000000000003KVRX00000100000000000000000000000000000000000000000000      
RGRST980623068462  0130000000000232332837301015     00000000015131700000000015286608KW  00000100000000000000000000000000154000000000000152      
RGRST980623068462  0050000000000232332836503096     00000000014300000000000014400060   X00000100000000000000000000000000000000000000000000      
RGRST980623068462  0040000000000232332836406095_1   00000000000000000000000000000000   X00000100000000000000000000000000000000000000000000      
RGRST980623068462  0090000000000232332836905030     00000000334889000000000342744008KWH 00000100000000000000000000000003487000000000003400      
RGRST980623068462  0070000000000232332836705010     00000002041570000000002063591008KWH 00000100000000000000000000000020849000000000020578      
RGRST980623068462  0010000000000232332836106888     00000000000000000000000000000010   X00000100000000000000000000000000000000000000000000      
RGRST980623068462  0060000000000232332836605111     00000003036651000000003076777003KWHX00000100000000000000000000000000000000000000000000      
RGRST980623068462  0150000000000232332837501017     00000000005683300000000005742808KW  00000100000000000000000000000000058000000000000057      
RGRST980623068462  0080000000000232332836805020     00000000660192000000000670442008KWH 00000100000000000000000000000006769000000000006664      
RGRST980623068462  0140000000000232332837401016     00000000014206900000000014360608KW  00000100000000000000000000000000144000000000000143      
RGRST980623068462  0110000000000232332837102060     00000000000133900000000000153603KW X00000100000000000000000000000000000000000000000000      
RGRST980623068462  0180000000000232332837801118     00000000000000600000000000000608KVR 00000100000000000000000000000000000000000000000000      
RGRST980623068462  0120000000000232332837202070     00000000000134500000000000059503KW X00000100000000000000000000000000000000000000000000      
RGRST980623068462  0030000000000232332836306091_T   00000000040100000000000023000040   X00000100000000000000000000000000000000000000000000      
CGRST980623064320  020020491783AMR     EDMI MK6            000080000068/5    202006280000202006281                         0000          0016000708101915001600    
RGRST980623064320  0060000000000232329299405111     00000001602856000000001609763003KWHX00000100000000000000000000000000000000000000000000      
RGRST980623064320  0150000000000232329400301017     00000000004340600000000004360808KW  00000100000000000000000000000000043000000000000043      
RGRST980623064320  0130000000000232329400101015     00000000004491500000000004511708KW  00000100000000000000000000000000045000000000000045      
RGRST980623064320  0090000000000232329299705030     00000000508363000000000510655008KWH 00000100000000000000000000000005128000000000005100      
RGRST980623064320  0170000000000232329400502280     00000000000009500000000000010003KVRX00000100000000000000000000000000000000000000000000      
RGRST980623064320  0040000000000232329299206095_1   00000000000000000000000000000000   X00000100000000000000000000000000000000000000000000      
RGRST980623064320  0080000000000232329299605020     00000000448923000000000451002008KWH 00000100000000000000000000000004530000000000004504      
RGRST980623064320  0030000000000232329299106091_T   00000000040100000000000023000040   X00000100000000000000000000000000000000000000000000      
RGRST980623064320  0140000000000232329400201016     00000000003930400000000003947408KW  00000100000000000000000000000000039000000000000039      
RGRST980623064320  0100000000000232329299802050     00000000000021900000000000020203KW X00000100000000000000000000000000000000000000000000      
RGRST980623064320  0160000000000232329400405222     00000000803209000000000806059003KVHX00000100000000000000000000000000000000000000000000      
RGRST980623064320  0110000000000232329299902060     00000000000016300000000000017003KW X00000100000000000000000000000000000000000000000000      
RGRST980623064320  0180000000000232329400601118     00000000002636200000000002646308KVR 00000100000000000000000000000000026000000000000026      
RGRST980623064320  0070000000000232329299505010     00000000645570000000000648106008KWH 00000100000000000000000000000006508000000000006475      
RGRST980623064320  0020000000000232329299006090_2D  00000029052000000000028062000060   X00000100000000000000000000000000000000000000000000      
RGRST980623064320  0120000000000232329300002070     00000000000021900000000000020203KW X00000100000000000000000000000000000000000000000000      
RGRST980623064320  0050000000000232329299303096     00000000015000000000000015100060   X00000100000000000000000000000000000000000000000000      
RGRST980623064320  0010000000000232329298906888     00000000000000000000000000000010   X00000100000000000000000000000000000000000000000000      
CGRST980627674211  020021800128AMR     EDMI MK10E          000050000068/7    202006280000202006281                         0000          0014000708101915001400    
RGRST980627674211  0120000000000232329967902070     00000000000070000000000000049653KW X00000100000000000000000000000000000000000000000000      
RGRST980627674211  0040000000000232329967106095_1   00000000000000000000000000000020   X00000100000000000000000000000000000000000000000000      
RGRST980627674211  0010000000000232329966806888     00000000000000000000000000000010   X00000100000000000000000000000000000000000000000000      
RGRST980627674211  0050000000000232329967203096     00000000009700000000000009800080   X00000100000000000000000000000000000000000000000000      
RGRST980627674211  0070000000000232329967405010     00000000321128000000000325029068KWH 00000100000000000000000000000003308000000000003247      
RGRST980627674211  0080000000000232329967505020     00000000462470000000000468403068KWH 00000100000000000000000000000004771000000000004679      
RGRST980627674211  0030000000000232329967006091_T   00000000040000000000000022900060   X00000100000000000000000000000000000000000000000000      
RGRST980627674211  0180000000000232329968501118     00000000001747600000000001769658KVR 00000100000000000000000000000000017000000000000017      
RGRST980627674211  0130000000000232329968001015     00000000003497200000000003537658KW  00000100000000000000000000000000035000000000000035      
RGRST980627674211  0110000000000232329967802060     00000000000064400000000000056453KW X00000100000000000000000000000000000000000000000000      
RGRST980627674211  0020000000000232329966906090_2D  00000029052000000000028062000060   X00000100000000000000000000000000000000000000000000      
RGRST980627674211  0140000000000232329968101016     00000000003902400000000003958858KW  00000100000000000000000000000000040000000000000039      
RGRST980627674211  0100000000000232329967702050     00000000000054800000000000040453KW X00000100000000000000000000000000000000000000000000      
RGRST980627674211  0160000000000232329968305222     00000000462555000000000469843053KVHX00000100000000000000000000000000000000000000000000      
RGRST980627674211  0060000000000232329967305111     00000001152356000000001167127062KWHX00000100000000000000000000000000000000000000000000      
RGRST980627674211  0150000000000232329968201017     00000000003674800000000003724458KW  00000100000000000000000000000000037000000000000037      
RGRST980627674211  0170000000000232329968402280     00000000000023200000000000022053KVRX00000100000000000000000000000000000000000000000000      
RGRST980627674211  0090000000000232329967605030     00000000368758000000000373695068KWH 00000100000000000000000000000003812000000000003734      
CGRST980627671242  020001086218AMR     EDMI MK10E          0000800000355/639 202006280000202006281                         0000          0022000708101915002200    
RGRST980627671242  0180000000000232334911501118     00000000000929200000000000938058KVR 00000100000000000000000000000000009000000000000009      
RGRST980627671242  0100000000000232334910702050     00000000000014800000000000014053KW X00000100000000000000000000000000000000000000000000      
RGRST980627671242  0170000000000232334911402280     00000000000008800000000000008853KVRX00000100000000000000000000000000000000000000000000      
RGRST980627671242  0110000000000232334910802060     00000000000018400000000000015653KW X00000100000000000000000000000000000000000000000000      
RGRST980627671242  0040000000000232334910106095_1   00000000000000000000000000000020   X00000100000000000000000000000000000000000000000000      
RGRST980627671242  0150000000000232334911201017     00000000001596800000000001613258KW  00000100000000000000000000000000016000000000000016      
RGRST980627671242  0160000000000232334911305222     00000000278191000000000280946053KVHX00000100000000000000000000000000000000000000000000      
RGRST980627671242  0140000000000232334911101016     00000000001514000000000001529658KW  00000100000000000000000000000000015000000000000015      
RGRST980627671242  0090000000000232334910605030     00000000202657000000000204790068KWH 00000100000000000000000000000002071000000000002043      
RGRST980627671242  0050000000000232334910203096     00000000009800000000000009900080   X00000100000000000000000000000000000000000000000000      
RGRST980627671242  0060000000000232334910305111     00000000630203000000000636472062KWHX00000100000000000000000000000000000000000000000000      
RGRST980627671242  0020000000000232334809906090_2D  00000029052000000000028062000060   X00000100000000000000000000000000000000000000000000      
RGRST980627671242  0080000000000232334910505020     00000000185822000000000187852068KWH 00000100000000000000000000000001901000000000001874      
RGRST980627671242  0070000000000232334910405010     00000000241724000000000243830068KWH 00000100000000000000000000000002465000000000002435      
RGRST980627671242  0130000000000232334911001015     00000000001633200000000001647258KW  00000100000000000000000000000000016000000000000016      
RGRST980627671242  0030000000000232334810006091_T   00000000035800000000000022800060   X00000100000000000000000000000000000000000000000000      
RGRST980627671242  0120000000000232334910902070     00000000000018000000000000016453KW X00000100000000000000000000000000000000000000000000      
RGRST980627671242  0010000000000232334809806888     00000000000000000000000000000010   X00000100000000000000000000000000000000000000000000      
CGRST980627674213  020001086219AMR     EDMI MK10E          0000300000355/1123202006280000202006281                         0000          0023000708101915002300    
RGRST980627674213  0010000000000232335311106888     00000000000000000000000000000010   X00000100000000000000000000000000000000000000000000      
RGRST980627674213  0030000000000232335311306091_T   00000000040000000000000022900060   X00000100000000000000000000000000000000000000000000      
RGRST980627674213  0020000000000232335311206090_2D  00000029052000000000028062000060   X00000100000000000000000000000000000000000000000000      
RGRST980627674213  0180000000000232335312801118     00000000001972400000000002002058KVR 00000100000000000000000000000000020000000000000019      
RGRST980627674213  0070000000000232335311705010     00000000881906000000000891823068KWH 00000100000000000000000000000009028000000000008897      
RGRST980627674213  0100000000000232335312002050     00000000000058000000000000055253KW X00000100000000000000000000000000000000000000000000      
RGRST980627674213  0150000000000232335312501017     00000000005027600000000005084058KW  00000100000000000000000000000000051000000000000050      
RGRST980627674213  0090000000000232335311905030     00000000748182000000000757465068KWH 00000100000000000000000000000007670000000000007552      
RGRST980627674213  0130000000000232335312301015     00000000005056000000000005111258KW  00000100000000000000000000000000051000000000000050      
RGRST980627674213  0050000000000232335311503096     00000000009700000000000009800080   X00000100000000000000000000000000000000000000000000      
RGRST980627674213  0160000000000232335312605222     00000000473346000000000484118053KVHX00000100000000000000000000000000000000000000000000      
RGRST980627674213  0170000000000232335312702280     00000000000028800000000000029653KVRX00000100000000000000000000000000000000000000000000      
RGRST980627674213  0110000000000232335312102060     00000000000056000000000000057653KW X00000100000000000000000000000000000000000000000000      
RGRST980627674213  0140000000000232335312401016     00000000004694400000000004752058KW  00000100000000000000000000000000048000000000000047      
RGRST980627674213  0060000000000232335311605111     00000002332703000000002360204062KWHX00000100000000000000000000000000000000000000000000      
RGRST980627674213  0040000000000232335311406095_1   00000000000000000000000000000020   X00000100000000000000000000000000000000000000000000      
RGRST980627674213  0120000000000232335312202070     00000000000058800000000000056453KW X00000100000000000000000000000000000000000000000000      
RGRST980627674213  0080000000000232335311805020     00000000702615000000000710916068KWH 00000100000000000000000000000007197000000000007090      
CGRST980623066276  020001086208AMR     EDMI MK6            000050000015/31   202006280000202006281                         0000          0006000708101915000600    
RGRST980623066276  0060000000000232330441305111     00000008740619000000008787152003KWHX00000100000000000000000000000000000000000000000000      
RGRST980623066276  0080000000000232330441505020     00000002761063000000002773814008KWH 00000100000000000000000000000027918000000000027726      
RGRST980623066276  0120000000000232330441902070     00000000000090500000000000088603KW X00000100000000000000000000000000000000000000000000      
RGRST980623066276  0100000000000232330441702050     00000000000089900000000000089703KW X00000100000000000000000000000000000000000000000000      
RGRST980623066276  0110000000000232330441802060     00000000000088400000000000078803KW X00000100000000000000000000000000000000000000000000      
RGRST980623066276  0010000000000232330440806888     00000000000000000000000000000010   X00000100000000000000000000000000000000000000000000      
RGRST980623066276  0130000000000232330442001015     00000000017888200000000017977908KW  00000100000000000000000000000000180000000000000179      
RGRST980623066276  0180000000000232330442501118     00000000012898500000000012940808KVR 00000100000000000000000000000000129000000000000129      
RGRST980623066276  0150000000000232330442201017     00000000017459900000000017548508KW  00000100000000000000000000000000176000000000000175      
RGRST980623066276  0090000000000232330441605030     00000002817915000000002833640008KWH 00000100000000000000000000000028519000000000028306      
RGRST980623066276  0070000000000232330441405010     00000003161641000000003179698008KWH 00000100000000000000000000000032005000000000031762      
RGRST980623066276  0030000000000232330441006091_T   00000000035900000000000022900040   X00000100000000000000000000000000000000000000000000      
RGRST980623066276  0050000000000232330441203096     00000000015100000000000015200060   X00000100000000000000000000000000000000000000000000      
RGRST980623066276  0140000000000232330442101016     00000000016844400000000016923208KW  00000100000000000000000000000000170000000000000169      
RGRST980623066276  0040000000000232330441106095_1   00000000000000000000000000000000   X00000100000000000000000000000000000000000000000000      
RGRST980623066276  0170000000000232330442402280     00000000000043100000000000042403KVRX00000100000000000000000000000000000000000000000000      
RGRST980623066276  0160000000000232330442305222     00000005377835000000005392677003KVHX00000100000000000000000000000000000000000000000000      
RGRST980623066276  0020000000000232330440906090_2D  00000029052000000000028062000060   X00000100000000000000000000000000000000000000000000      
CGRST980627674209  020001086210AMR     EDMI MK10E          00003000001/816   202006280000202006281                         0000          0012010708101915001201    
RGRST980627674209  0140000000000232333945301016     00000000004623200000000004674458KW  00000100000000000000000000000000047000000000000046      
RGRST980627674209  0160000000000232333945505222     00000000315909000000000319207053KVHX00000100000000000000000000000000000000000000000000      
RGRST980627674209  0090000000000232333944805030     00000000054304000000000054845068KWH 00000100000000000000000000000000560000000000000549      
RGRST980627674209  0050000000000232333944403096     00000000009700000000000009800080   X00000100000000000000000000000000000000000000000000      
RGRST980627674209  0070000000000232333944605010     00000000564134000000000571691068KWH 00000100000000000000000000000005807000000000005703      
RGRST980627674209  0080000000000232333944705020     00000000116020000000000117544068KWH 00000100000000000000000000000001198000000000001174      
RGRST980627674209  0100000000000232333944902050     00000000000067600000000000055653KW X00000100000000000000000000000000000000000000000000      
RGRST980627674209  0180000000000232333945701118     00000000002449200000000002472058KVR 00000100000000000000000000000000024000000000000024      
RGRST980627674209  0150000000000232333945401017     00000000002259600000000002284858KW  00000100000000000000000000000000023000000000000022      
RGRST980627674209  0010000000000232333944006888     00000000000000000000000000000010   X00000100000000000000000000000000000000000000000000      
RGRST980627674209  0060000000000232333944505111     00000000734458000000000744080062KWHX00000100000000000000000000000000000000000000000000      
RGRST980627674209  0130000000000232333945201015     00000000005116800000000005172458KW  00000100000000000000000000000000052000000000000051      
RGRST980627674209  0120000000000232333945102070     00000000000063200000000000025253KW X00000100000000000000000000000000000000000000000000      
RGRST980627674209  0170000000000232333945602280     00000000000026000000000000022853KVRX00000100000000000000000000000000000000000000000000      
RGRST980627674209  0030000000000232333944206091_T   00000000040200000000000023100060   X00000100000000000000000000000000000000000000000000      
RGRST980627674209  0110000000000232333945002060     00000000000066800000000000051253KW X00000100000000000000000000000000000000000000000000      
RGRST980627674209  0040000000000232333944306095_1   00000000000000000000000000000020   X00000100000000000000000000000000000000000000000000      
RGRST980627674209  0020000000000232333944106090_2D  00000029052000000000028062000060   X00000100000000000000000000000000000000000000000000      
CGRST980623064522  020001086209AMR     EDMI MK6            00008000001/814   202006280000202006281                         0000          0012000708101915001200    
RGRST980623064522  0080000000000232331096305020     00000000423826000000000426589008KWH 00000100000000000000000000000004305000000000004263      
RGRST980623064522  0070000000000232331096205010     00000002144396000000002157373008KWH 00000100000000000000000000000021752000000000021559      
RGRST980623064522  0120000000000232331096702070     00000000000094500000000000026203KW X00000100000000000000000000000000000000000000000000      
RGRST980623064522  0170000000000232331097202280     00000000000042700000000000042203KVRX00000100000000000000000000000000000000000000000000      
RGRST980623064522  0030000000000232331095806091_T   00000000040300000000000023100040   X00000100000000000000000000000000000000000000000000      
RGRST980623064522  0180000000000232331097301118     00000000010398800000000010441008KVR 00000100000000000000000000000000104000000000000104      
RGRST980623064522  0090000000000232331096405030     00000000245514000000000246527008KWH 00000100000000000000000000000002483000000000002465      
RGRST980623064522  0040000000000232331095906095_1   00000000000000000000000000000000   X00000100000000000000000000000000000000000000000000      
RGRST980623064522  0060000000000232331096105111     00000002813736000000002830489003KWHX00000100000000000000000000000000000000000000000000      
RGRST980623064522  0130000000000232331096801015     00000000016871800000000016979708KW  00000100000000000000000000000000171000000000000169      
RGRST980623064522  0160000000000232331097105222     00000001712229000000001717619003KVHX00000100000000000000000000000000000000000000000000      
RGRST980623064522  0100000000000232331096502050     00000000000121200000000000107903KW X00000100000000000000000000000000000000000000000000      
RGRST980623064522  0140000000000232331096901016     00000000015159500000000015250008KW  00000100000000000000000000000000153000000000000152      
RGRST980623064522  0020000000000232331095706090_2D  00000029052000000000028062000060   X00000100000000000000000000000000000000000000000000      
RGRST980623064522  0110000000000232331096602060     00000000000106800000000000090603KW X00000100000000000000000000000000000000000000000000      
RGRST980623064522  0010000000000232331095606888     00000000000000000000000000000010   X00000100000000000000000000000000000000000000000000      
RGRST980623064522  0050000000000232331096003096     00000000014900000000000015000060   X00000100000000000000000000000000000000000000000000      
RGRST980623064522  0150000000000232331097001017     00000000006592200000000006618408KW  00000100000000000000000000000000067000000000000066      
CGRST980627674210  020001086211AMR     EDMI MK10E          000050000014/23   202006280000202006281                         0000          0012100708101915001210    
RGRST980627674210  0130000000000232328876801015     00000000001126000000000001134058KW  00000100000000000000000000000000011000000000000011      
RGRST980627674210  0140000000000232328876901016     00000000000974800000000000986858KW  00000100000000000000000000000000009000000000000009      
RGRST980627674210  0010000000000232328875606888     00000000000000000000000000000010   X00000100000000000000000000000000000000000000000000      
RGRST980627674210  0050000000000232328876003096     00000000009700000000000009800080   X00000100000000000000000000000000000000000000000000      
RGRST980627674210  0030000000000232328875806091_T   00000000040300000000000023100060   X00000100000000000000000000000000000000000000000000      
RGRST980627674210  0180000000000232328877301118     00000000001157600000000001169258KVR 00000100000000000000000000000000011000000000000011      
RGRST980627674210  0150000000000232328877001017     00000000001164400000000001172458KW  00000100000000000000000000000000011000000000000011      
RGRST980627674210  0020000000000232328875706090_2D  00000029052000000000028062000060   X00000100000000000000000000000000000000000000000000      
RGRST980627674210  0090000000000232328876405030     00000000042745000000000042937068KWH 00000100000000000000000000000000433000000000000429      
RGRST980627674210  0170000000000232328877202280     00000000000012000000000000011653KVRX00000100000000000000000000000000000000000000000000      
RGRST980627674210  0160000000000232328877105222     00000000135385000000000136036053KVHX00000100000000000000000000000000000000000000000000      
RGRST980627674210  0100000000000232328876502050     00000000000003600000000000008053KW X00000100000000000000000000000000000000000000000000      
RGRST980627674210  0110000000000232328876602060     00000000000014000000000000012053KW X00000100000000000000000000000000000000000000000000      
RGRST980627674210  0060000000000232328876105111     00000000122321000000000122920062KWHX00000100000000000000000000000000000000000000000000      
RGRST980627674210  0080000000000232328876305020     00000000040578000000000040826068KWH 00000100000000000000000000000000412000000000000408      
RGRST980627674210  0040000000000232328875906095_1   00000000000000000000000000000020   X00000100000000000000000000000000000000000000000000      
RGRST980627674210  0120000000000232328876702070     00000000000014000000000000008053KW X00000100000000000000000000000000000000000000000000      
RGRST980627674210  0070000000000232328876205010     00000000038998000000000039157068KWH 00000100000000000000000000000000394000000000000391      
HGRST98070019001900000000000000000000000000000000002020062895501AR6                 
CGRST980723066531  020001095908AMR     EDMI MK6            0000500000520     202006280000202006281                         0000          0036500708101916003650    
RGRST980723066531  0180000000000232343211301118     00000000013999400000000014028108KVR 00000100000000000000000000000000141000000000000140      
RGRST980723066531  0160000000000232343211105222     00000000810793000000000811437003KVHX00000100000000000000000000000000000000000000000000      
RGRST980723066531  0020000000000232343109706090_2D  00000029052000000000028062000060   X00000100000000000000000000000000000000000000000000      
RGRST980723066531  0110000000000232343210602060     00000000000067100000000000055903KW X00000100000000000000000000000000000000000000000000      
RGRST980723066531  0150000000000232343211001017     00000000012832600000000012848708KW  00000100000000000000000000000000129000000000000128      
RGRST980723066531  0100000000000232343210502050     00000000000119600000000000095103KW X00000100000000000000000000000000000000000000000000      
RGRST980723066531  0050000000000232343110003096     00000000013200000000000013300060   X00000100000000000000000000000000000000000000000000      
RGRST980723066531  0090000000000232343210405030     00000000217193000000000217832008KWH 00000100000000000000000000000002186000000000002177      
RGRST980723066531  0080000000000232343210305020     00000000502580000000000503935008KWH 00000100000000000000000000000005063000000000005040      
RGRST980723066531  0070000000000232343210205010     00000002595412000000002602341008KWH 00000100000000000000000000000026095000000000026007      
RGRST980723066531  0130000000000232343210801015     00000000030797900000000030893108KW  00000100000000000000000000000000310000000000000308      
RGRST980723066531  0010000000000232343109606888     00000000000000000000000000000010   X00000100000000000000000000000000000000000000000000      
RGRST980723066531  0120000000000232343210702070     00000000000077500000000000016103KW X00000100000000000000000000000000000000000000000000      
RGRST980723066531  0140000000000232343210901016     00000000030261300000000030317208KW  00000100000000000000000000000000304000000000000303      
RGRST980723066531  0030000000000232343109806091_T   00000000040000000000000022900040   X00000100000000000000000000000000000000000000000000      
RGRST980723066531  0170000000000232343211202280     00000000000039000000000000028703KVRX00000100000000000000000000000000000000000000000000      
RGRST980723066531  0060000000000232343210105111     00000003315185000000003324108003KWHX00000100000000000000000000000000000000000000000000      
RGRST980723066531  0040000000000232343109906095_1   00000000000000000000000000000000   X00000100000000000000000000000000000000000000000000      
CGRST980727671243  020001086235AMR     EDMI MK10E          0000800000315/133 202006280000202006281                         0000          0036000708101916003600    
RGRST980727671243  0120000000000232342769102070     00000000000019200000000000019253KW X00000100000000000000000000000000000000000000000000      
RGRST980727671243  0040000000000232342768306095_1   00000000000000000000000000000020   X00000100000000000000000000000000000000000000000000      
RGRST980727671243  0170000000000232342769602280     00000000000010000000000000010053KVRX00000100000000000000000000000000000000000000000000      
RGRST980727671243  0140000000000232342769301016     00000000001416800000000001431658KW  00000100000000000000000000000000014000000000000014      
RGRST980727671243  0160000000000232342769505222     00000000401069000000000404498053KVHX00000100000000000000000000000000000000000000000000      
RGRST980727671243  0100000000000232342768902050     00000000000017200000000000017253KW X00000100000000000000000000000000000000000000000000      
RGRST980727671243  0080000000000232342768705020     00000000180354000000000182260068KWH 00000100000000000000000000000001847000000000001819      
RGRST980727671243  0070000000000232342768605010     00000000220506000000000222861068KWH 00000100000000000000000000000002255000000000002224      
RGRST980727671243  0050000000000232342768403096     00000000009900000000000010000080   X00000100000000000000000000000000000000000000000000      
RGRST980727671243  0010000000000232342768006888     00000000000000000000000000000010   X00000100000000000000000000000000000000000000000000      
RGRST980727671243  0130000000000232342769201015     00000000001586800000000001604058KW  00000100000000000000000000000000016000000000000015      
RGRST980727671243  0150000000000232342769401017     00000000001459600000000001478858KW  00000100000000000000000000000000014000000000000014      
RGRST980727671243  0030000000000232342768206091_T   00000000040000000000000022900060   X00000100000000000000000000000000000000000000000000      
RGRST980727671243  0090000000000232342768805030     00000000178934000000000180896068KWH 00000100000000000000000000000001833000000000001805      
RGRST980727671243  0020000000000232342768106090_2D  00000029052000000000028062000060   X00000100000000000000000000000000000000000000000000      
RGRST980727671243  0060000000000232342768505111     00000000579794000000000586017062KWHX00000100000000000000000000000000000000000000000000      
RGRST980727671243  0180000000000232342769701118     00000000001131200000000001141258KVR 00000100000000000000000000000000011000000000000011      
RGRST980727671243  0110000000000232342769002060     00000000000016400000000000014853KW X00000100000000000000000000000000000000000000000000      
CGRST980727672613  020001086236AMR     EDMI MK10E          0000300000265/68-6202006280000202006281                         0000          0039000708101916003900    
RGRST980727672613  0160000000000232343647205222     00000000814809000000000835245053KVHX00000100000000000000000000000000000000000000000000      
RGRST980727672613  0090000000000232343646505030     00000000583809000000000601682068KWH 00000100000000000000000000000006154000000000005956      
RGRST980727672613  0040000000000232343646006095_1   00000000000000000000000000000020   X00000100000000000000000000000000000000000000000000      
RGRST980727672613  0150000000000232343647101017     00000000007320800000000007494858KW  00000100000000000000000000000000076000000000000074      
RGRST980727672613  0070000000000232343646305010     00000000589351000000000605468068KWH 00000100000000000000000000000006188000000000006004      
RGRST980727672613  0110000000000232343646702060     00000000000187600000000000168053KW X00000100000000000000000000000000000000000000000000      
RGRST980727672613  0080000000000232343646405020     00000000659005000000000677066068KWH 00000100000000000000000000000006928000000000006716      
RGRST980727672613  0020000000000232343645806090_2D  00000029052000000000028062000060   X00000100000000000000000000000000000000000000000000      
RGRST980727672613  0120000000000232343646802070     00000000000168000000000000174053KW X00000100000000000000000000000000000000000000000000      
RGRST980727672613  0100000000000232343646602050     00000000000158400000000000158853KW X00000100000000000000000000000000000000000000000000      
RGRST980727672613  0180000000000232343647401118     00000000003324400000000003370458KVR 00000100000000000000000000000000034000000000000033      
RGRST980727672613  0140000000000232343647001016     00000000007222400000000007390458KW  00000100000000000000000000000000075000000000000073      
RGRST980727672613  0170000000000232343647302280     00000000000046400000000000046053KVRX00000100000000000000000000000000000000000000000000      
RGRST980727672613  0050000000000232343646103096     00000000009600000000000009700080   X00000100000000000000000000000000000000000000000000      
RGRST980727672613  0030000000000232343645906091_T   00000000035900000000000022900060   X00000100000000000000000000000000000000000000000000      
RGRST980727672613  0060000000000232343646205111     00000001832165000000001884216062KWHX00000100000000000000000000000000000000000000000000      
RGRST980727672613  0130000000000232343646901015     00000000006993200000000007152058KW  00000100000000000000000000000000072000000000000071      
RGRST980727672613  0010000000000232343645706888     00000000000000000000000000000010   X00000100000000000000000000000000000000000000000000      
CGRST980727672611  020001086233AMR     EDMI MK10E          0000300000512/769 202006280000202006281                         0000          0031000708101916003100    
RGRST980727672611  0040000000000232342491906095_1   00000000000000000000000000000020   X00000100000000000000000000000000000000000000000000      
RGRST980727672611  0150000000000232342493001017     00000000004244400000000004298858KW  00000100000000000000000000000000043000000000000042      
RGRST980727672611  0060000000000232342492105111     00000001595048000000001615233062KWHX00000100000000000000000000000000000000000000000000      
RGRST980727672611  0120000000000232342492702070     00000000000058400000000000054453KW X00000100000000000000000000000000000000000000000000      
RGRST980727672611  0180000000000232342493301118     00000000001732400000000001750858KVR 00000100000000000000000000000000017000000000000017      
RGRST980727672611  0010000000000232342491606888     00000000000000000000000000000010   X00000100000000000000000000000000000000000000000000      
RGRST980727672611  0160000000000232342493105222     00000000512383000000000517574053KVHX00000100000000000000000000000000000000000000000000      
RGRST980727672611  0030000000000232342491806091_T   00000000040100000000000023000060   X00000100000000000000000000000000000000000000000000      
RGRST980727672611  0050000000000232342492003096     00000000009600000000000009700080   X00000100000000000000000000000000000000000000000000      
RGRST980727672611  0140000000000232342492901016     00000000004383600000000004430858KW  00000100000000000000000000000000044000000000000044      
RGRST980727672611  0110000000000232342492602060     00000000000062000000000000047253KW X00000100000000000000000000000000000000000000000000      
RGRST980727672611  0130000000000232342492801015     00000000004185600000000004232858KW  00000100000000000000000000000000042000000000000042      
RGRST980727672611  0080000000000232342492305020     00000000565313000000000572021068KWH 00000100000000000000000000000005809000000000005711      
RGRST980727672611  0020000000000232342491706090_2D  00000029052000000000028062000060   X00000100000000000000000000000000000000000000000000      
RGRST980727672611  0070000000000232342492205010     00000000517470000000000524721068KWH 00000100000000000000000000000005338000000000005236      
RGRST980727672611  0170000000000232342493202280     00000000000017200000000000018453KVRX00000100000000000000000000000000000000000000000000      
RGRST980727672611  0090000000000232342492405030     00000000512265000000000518491068KWH 00000100000000000000000000000005275000000000005180      
RGRST980727672611  0100000000000232342492502050     00000000000058800000000000047253KW X00000100000000000000000000000000000000000000000000      
CGRST980727672610  020001086232AMR     EDMI MK10E          0000500000318/12  202006280000202006281                         0000          0029000708101916002900    
RGRST980727672610  0170000000000232342169702280     00000000000009600000000000009653KVRX00000100000000000000000000000000000000000000000000      
RGRST980727672610  0080000000000232342168805020     00000000167299000000000168630068KWH 00000100000000000000000000000001704000000000001684      
RGRST980727672610  0150000000000232342169501017     00000000001338000000000001350058KW  00000100000000000000000000000000013000000000000013      
RGRST980727672610  0140000000000232342169401016     00000000001312800000000001324458KW  00000100000000000000000000000000013000000000000013      
RGRST980727672610  0030000000000232342168306091_T   00000000040300000000000023100060   X00000100000000000000000000000000000000000000000000      
RGRST980727672610  0110000000000232342169102060     00000000000011600000000000011653KW X00000100000000000000000000000000000000000000000000      
RGRST980727672610  0060000000000232342168605111     00000000472443000000000476090062KWHX00000100000000000000000000000000000000000000000000      
RGRST980727672610  0050000000000232342168503096     00000000009700000000000009800080   X00000100000000000000000000000000000000000000000000      
RGRST980727672610  0120000000000232342169202070     00000000000012000000000000012053KW X00000100000000000000000000000000000000000000000000      
RGRST980727672610  0180000000000232342169801118     00000000001264400000000001274058KVR 00000100000000000000000000000000012000000000000012      
RGRST980727672610  0130000000000232342169301015     00000000001363200000000001374858KW  00000100000000000000000000000000013000000000000013      
RGRST980727672610  0070000000000232342168705010     00000000154518000000000155623068KWH 00000100000000000000000000000001570000000000001554      
RGRST980727672610  0160000000000232342169605222     00000000409167000000000411698053KVHX00000100000000000000000000000000000000000000000000      
RGRST980727672610  0010000000000232342168106888     00000000000000000000000000000010   X00000100000000000000000000000000000000000000000000      
RGRST980727672610  0020000000000232342168206090_2D  00000029052000000000028062000060   X00000100000000000000000000000000000000000000000000      
RGRST980727672610  0100000000000232342169002050     00000000000012000000000000011653KW X00000100000000000000000000000000000000000000000000      
RGRST980727672610  0040000000000232342168406095_1   00000000000000000000000000000020   X00000100000000000000000000000000000000000000000000      
RGRST980727672610  0090000000000232342168905030     00000000150626000000000151837068KWH 00000100000000000000000000000001535000000000001517      
CGRST980723048642  020001086222AMR     EDMI MK6            0008000000147     202006280000202006281                         0000          0008000708101916000800    
RGRST980723048642  0060000000000232338611105111     00000000705985000000000710190003KWHX00000100000000000000000000000000000000000000000000      
RGRST980723048642  0010000000000232338610606888     00000000000000000000000000000010   X00000100000000000000000000000000000000000000000000      
RGRST980723048642  0170000000000232338612202280     00000000000013300000000000013203KVRX00000100000000000000000000000000000000000000000000      
RGRST980723048642  0180000000000232338612301118     00000000002373900000000002387208KVR 00000100000000000000000000000000024000000000000023      
RGRST980723048642  0130000000000232338611801015     00000000002993500000000003011408KW  00000100000000000000000000000000030000000000000030      
RGRST980723048642  0020000000000232338610706090_2D  00000029052000000000028062000060   X00000100000000000000000000000000000000000000000000      
RGRST980723048642  0140000000000232338611901016     00000000002830000000000002846508KW  00000100000000000000000000000000028000000000000028      
RGRST980723048642  0160000000000232338612105222     00000000558801000000000561781003KVHX00000100000000000000000000000000000000000000000000      
RGRST980723048642  0110000000000232338611602060     00000000000016300000000000016503KW X00000100000000000000000000000000000000000000000000      
RGRST980723048642  0120000000000232338611702070     00000000000007800000000000006703KW X00000100000000000000000000000000000000000000000000      
RGRST980723048642  0070000000000232338611205010     00000000443670000000000446212008KWH 00000100000000000000000000000004490000000000004456      
RGRST980723048642  0050000000000232338611003096     00000000015300000000000015400060   X00000100000000000000000000000000000000000000000000      
RGRST980723048642  0030000000000232338610806091_T   00000000040100000000000023000040   X00000100000000000000000000000000000000000000000000      
RGRST980723048642  0090000000000232338611405030     00000000123512000000000124285008KWH 00000100000000000000000000000001251000000000001241      
RGRST980723048642  0100000000000232338611502050     00000000000017600000000000017803KW X00000100000000000000000000000000000000000000000000      
RGRST980723048642  0080000000000232338611305020     00000000138803000000000139693008KWH 00000100000000000000000000000001406000000000001394      
RGRST980723048642  0150000000000232338612001017     00000000001632800000000001639508KW  00000100000000000000000000000000016000000000000016      
RGRST980723048642  0040000000000232338610906095_1   00000000000000000000000000000000   X00000100000000000000000000000000000000000000000000      
CGRST980723066409  020001086225AMR     EDMI MK6            000030000055/111-1202006280000202006281                         0000          0011000708101916001100    
RGRST980723066409  0140000000000232339143301016     00000000014631500000000014731908KW  00000100000000000000000000000000148000000000000147      
RGRST980723066409  0040000000000232339142306095_1   00000000000000000000000000000000   X00000100000000000000000000000000000000000000000000      
RGRST980723066409  0120000000000232339143102070     00000000000139800000000000116603KW X00000100000000000000000000000000000000000000000000      
RGRST980723066409  0080000000000232339142705020     00000002299252000000002313126008KWH 00000100000000000000000000000023308000000000023111      
RGRST980723066409  0090000000000232339142805030     00000002705579000000002723954008KWH 00000100000000000000000000000027471000000000027211      
RGRST980723066409  0050000000000232339142403096     00000000015000000000000015100060   X00000100000000000000000000000000000000000000000000      
RGRST980723066409  0180000000000232339143701118     00000000003800100000000003845708KVR 00000100000000000000000000000000039000000000000038      
RGRST980723066409  0060000000000232339142505111     00000008492174000000008547815003KWHX00000100000000000000000000000000000000000000000000      
RGRST980723066409  0160000000000232339143505222     00000001535842000000001558750003KVHX00000100000000000000000000000000000000000000000000      
RGRST980723066409  0130000000000232339143201015     00000000018493500000000018620808KW  00000100000000000000000000000000187000000000000186      
RGRST980723066409  0170000000000232339143602280     00000000000050600000000000045603KVRX00000100000000000000000000000000000000000000000000      
RGRST980723066409  0010000000000232339142006888     00000000000000000000000000000010   X00000100000000000000000000000000000000000000000000      
RGRST980723066409  0020000000000232339142106090_2D  00000029052000000000028062000060   X00000100000000000000000000000000000000000000000000      
RGRST980723066409  0030000000000232339142206091_T   00000000035800000000000022800040   X00000100000000000000000000000000000000000000000000      
RGRST980723066409  0150000000000232339143401017     00000000017602300000000017718908KW  00000100000000000000000000000000178000000000000177      
RGRST980723066409  0070000000000232339142605010     00000003487343000000003510735008KWH 00000100000000000000000000000035419000000000035078      
