HGRST98000006000000000000000000000000000000000000002020062895501AR6     
CGRST980027710591  020001369968AMR     EDMI MK10E          0000500000        000000000000000000000                                       8880050708101557888005    
RGRST980027710591  0180000000000232294628101118     00000000001258400000000000000058KVR 00000100000000000000000000000013048000000000012758      
RGRST980027710591  0020000000000232294626506090_2D  00000029052000000000000000000060   X00000100000000000000000000000000000000000000000000      
RGRST980027710591  0040000000000232294626706095_1   00000000000000000000000000000020   X00000100000000000000000000000000000000000000000000      
RGRST980027710591  0140000000000232294627701016     00000000001041600000000000000058KW  00000100000000000000000000000010856000000000010581      
RGRST980027710591  0050000000000232294626803096     00000000006900000000000000000080   X00000100000000000000000000000000000000000000000000      
RGRST980027710591  0120000000000232294627502070     00000000000022400000000000000053KW X00000100000000000000000000000000000000000000000000      
RGRST980027710591  0150000000000232294627801017     00000000001168400000000000000058KW  00000100000000000000000000000012166000000000011864      
RGRST980027710591  0130000000000232294627601015     00000000001238400000000000000058KW  00000100000000000000000000000012904000000000012579      
RGRST980027710591  0110000000000232294627402060     00000000000022000000000000000053KW X00000100000000000000000000000000000000000000000000      
RGRST980027710591  0080000000000232294627105020     00000000083996000000000000000068KWH 00000100000000000000000000000884600000000000856700      
RGRST980027710591  0010000000000232294626406888     00000000000000000000000000000010   X00000100000000000000000000000000000000000000000000      
RGRST980027710591  0030000000000232294626606091_T   00000000040200000000000000000060   X00000100000000000000000000000000000000000000000000      
RGRST980027710591  0060000000000232294626905111     00000000317999000000000000000062KWHX00000100000000000000000000000000000000000000000000      
RGRST980027710591  0070000000000232294627005010     00000000136356000000000000000068KWH 00000100000000000000000000001431800000000001389150      
RGRST980027710591  0170000000000232294628002280     00000000000020800000000000000053KVRX00000100000000000000000000000000000000000000000000      
RGRST980027710591  0100000000000232294627302050     00000000000028400000000000000053KW X00000100000000000000000000000000000000000000000000      
RGRST980027710591  0090000000000232294627205030     00000000097647000000000000000068KWH 00000100000000000000000000001029978000000000996535      
RGRST980027710591  0160000000000232294627905222     00000000154637000000000000000053KVHX00000100000000000000000000000000000000000000000000      
CGRST980027710604  020017407392AMR     EDMI MK10E          0000500000        000000000000000000000                                       8880450708101341888045    
RGRST980027710604  0160000000000232295126805222     00000000590147000000000000000053KVHX00000100000000000000000000000000000000000000000000      
RGRST980027710604  0170000000000232295126902280     00000000000022800000000000000053KVRX00000100000000000000000000000000000000000000000000      
RGRST980027710604  0030000000000232295125506091_T   00000000035700000000000000000060   X00000100000000000000000000000000000000000000000000      
RGRST980027710604  0180000000000232295127001118     00000000001840000000000000000058KVR 00000100000000000000000000000018840000000000018565      
RGRST980027710604  0060000000000232295125805111     00000001679177000000000000000062KWHX00000100000000000000000000000000000000000000000000      
RGRST980027710604  0090000000000232295126105030     00000000522304000000000000000068KWH 00000100000000000000000000005407712000000005292292      
RGRST980027710604  0050000000000232295125703096     00000000006900000000000000000080   X00000100000000000000000000000000000000000000000000      
RGRST980027710604  0080000000000232295126005020     00000000332648000000000000000068KWH 00000100000000000000000000003431111000000003365716      
RGRST980027710604  0070000000000232295125905010     00000000824225000000000000000068KWH 00000100000000000000000000008517523000000008345477      
RGRST980027710604  0140000000000232295126601016     00000000003100000000000000000058KW  00000100000000000000000000000032021000000000031383      
RGRST980027710604  0110000000000232295126302060     00000000000052400000000000000053KW X00000100000000000000000000000000000000000000000000      
RGRST980027710604  0150000000000232295126701017     00000000005380000000000000000058KW  00000100000000000000000000000055440000000000054415      
RGRST980027710604  0100000000000232295126202050     00000000000094800000000000000053KW X00000100000000000000000000000000000000000000000000      
RGRST980027710604  0120000000000232295126402070     00000000000081600000000000000053KW X00000100000000000000000000000000000000000000000000      
RGRST980027710604  0020000000000232295125406090_2D  00000029052000000000000000000060   X00000100000000000000000000000000000000000000000000      
RGRST980027710604  0040000000000232295125606095_1   00000000000000000000000000000020   X00000100000000000000000000000000000000000000000000      
RGRST980027710604  0010000000000232295125306888     00000000000000000000000000000010   X00000100000000000000000000000000000000000000000000      
RGRST980027710604  0130000000000232295126501015     00000000005701200000000000000058KW  00000100000000000000000000000058817000000000057689      
CGRST980027710314  020003615614AMR     EDMI MK10E          0000300000        000000000000000000000                                       8880010708101322888001    
RGRST980027710314  0070000000000232294131805010     00000000251439000000000000000068KWH 00000100000000000000000000002529937000000002520220      
RGRST980027710314  0130000000000232294132401015     00000000003403600000000000000058KW  00000100000000000000000000000034340000000000034150      
RGRST980027710314  0150000000000232294132601017     00000000003268000000000000000058KW  00000100000000000000000000000033029000000000032811      
RGRST980027710314  0060000000000232294131705111     00000000658072000000000000000062KWHX00000100000000000000000000000000000000000000000000      
RGRST980027710314  0160000000000232294132705222     00000000195433000000000000000053KVHX00000100000000000000000000000000000000000000000000      
RGRST980027710314  0110000000000232294132202060     00000000000017600000000000000053KW X00000100000000000000000000000000000000000000000000      
RGRST980027710314  0120000000000232294132302070     00000000000019600000000000000053KW X00000100000000000000000000000000000000000000000000      
RGRST980027710314  0020000000000232294131306090_2D  00000029052000000000000000000060   X00000100000000000000000000000000000000000000000000      
RGRST980027710314  0100000000000232294132102050     00000000000016400000000000000053KW X00000100000000000000000000000000000000000000000000      
RGRST980027710314  0090000000000232294132005030     00000000209859000000000000000068KWH 00000100000000000000000000002115788000000002105039      
RGRST980027710314  0140000000000232294132501016     00000000003128000000000000000058KW  00000100000000000000000000000031640000000000031415      
RGRST980027710314  0080000000000232294131905020     00000000196774000000000000000068KWH 00000100000000000000000000001986663000000001974836      
RGRST980027710314  0180000000000232294132901118     00000000000548000000000000000058KVR 00000100000000000000000000000005522000000000005495      
RGRST980027710314  0010000000000232294131206888     00000000000000000000000000000010   X00000100000000000000000000000000000000000000000000      
RGRST980027710314  0170000000000232294132802280     00000000000002000000000000000053KVRX00000100000000000000000000000000000000000000000000      
RGRST980027710314  0040000000000232294131506095_1   00000000000000000000000000000020   X00000100000000000000000000000000000000000000000000      
RGRST980027710314  0030000000000232294131406091_T   00000000040100000000000000000060   X00000100000000000000000000000000000000000000000000      
RGRST980027710314  0050000000000232294131603096     00000000006900000000000000000080   X00000100000000000000000000000000000000000000000000      
CGRST980023066400  020023310733AMR     EDMI MK6            0000800000        000000000000000000000                                       88811207081019111888112   
RGRST980023066400  0130000000000232294084001015     00000000034500700000000000000008KW  00000100000000000000000000000346446000000000345546      
RGRST980023066400  0050000000000232294083203096     00000000015200000000000000000060   X00000100000000000000000000000000000000000000000000      
RGRST980023066400  0060000000000232294083305111     00000008014948000000000000000002KWHX00000100000000000000000000000000000000000000000000      
RGRST980023066400  0020000000000232294082906090_2D  00000029052000000000000000000060   X00000100000000000000000000000000000000000000000000      
RGRST980023066400  0010000000000232294082806888     00000000000000000000000000000010   X00000100000000000000000000000000000000000000000000      
RGRST980023066400  0110000000000232294083802060     00000000000087800000000000000003KW X00000100000000000000000000000000000000000000000000      
RGRST980023066400  0150000000000232294084201017     00000000032120400000000000000008KW  00000100000000000000000000000322644000000000321744      
RGRST980023066400  0070000000000232294083405010     00000005107490000000000000000008KWH 00000100000000000000000000051259694000000051144197      
RGRST980023066400  0030000000000232294083006091_T   00000000035800000000000000000040   X00000100000000000000000000000000000000000000000000      
RGRST980023066400  0040000000000232294083106095_1   00000000000000000000000000000000   X00000100000000000000000000000000000000000000000000      
RGRST980023066400  0090000000000232294083605030     00000001872730000000000000000008KWH 00000100000000000000000000018880405000000018784714      
RGRST980023066400  0080000000000232294083505020     00000001034728000000000000000008KWH 00000100000000000000000000010475899000000010395512      
RGRST980023066400  0100000000000232294083702050     00000000000096000000000000000003KW X00000100000000000000000000000000000000000000000000      
RGRST980023066400  0180000000000232294084501118     00000000016627400000000000000008KVR 00000100000000000000000000000166751000000000166453      
RGRST980023066400  0140000000000232294084101016     00000000027997900000000000000008KW  00000100000000000000000000000281440000000000280527      
RGRST980023066400  0160000000000232294084305222     00000003492502000000000000000003KVHX00000100000000000000000000000000000000000000000000      
RGRST980023066400  0170000000000232294084402280     00000000000019100000000000000003KVRX00000100000000000000000000000000000000000000000000      
RGRST980023066400  0120000000000232294083902070     00000000000084000000000000000003KW X00000100000000000000000000000000000000000000000000      
CGRST980027702098  020022801696AMR     EDMI MK10E          0000300000        000000000000000000000                                       88810507081019111888105   
RGRST980027702098  0180000000000232295479201118     00000000000099200000000000000058KVR 00000100000000000000000000000001216000000000001076      
RGRST980027702098  0030000000000232295477706091_T   00000000035900000000000000000060   X00000100000000000000000000000000000000000000000000      
RGRST980027702098  0130000000000232295478701015     00000000004705200000000000000058KW  00000100000000000000000000000049577000000000047999      
RGRST980027702098  0020000000000232295477606090_2D  00000029052000000000000000000060   X00000100000000000000000000000000000000000000000000      
RGRST980027702098  0150000000000232295478901017     00000000004822400000000000000058KW  00000100000000000000000000000050362000000000049025      
RGRST980027702098  0090000000000232295478305030     00000000577466000000000000000068KWH 00000100000000000000000000005947929000000005839636      
RGRST980027702098  0120000000000232295478602070     00000000000122000000000000000053KW X00000100000000000000000000000000000000000000000000      
RGRST980027702098  0110000000000232295478502060     00000000000152800000000000000053KW X00000100000000000000000000000000000000000000000000      
RGRST980027702098  0140000000000232295478801016     00000000004964400000000000000058KW  00000100000000000000000000000052044000000000050544      
RGRST980027702098  0060000000000232295478005111     00000001797379000000000000000062KWHX00000100000000000000000000000000000000000000000000      
RGRST980027702098  0050000000000232295477903096     00000000007700000000000000000080   X00000100000000000000000000000000000000000000000000      
RGRST980027702098  0170000000000232295479102280     00000000000014000000000000000053KVRX00000100000000000000000000000000000000000000000000      
RGRST980027702098  0100000000000232295478402050     00000000000156000000000000000053KW X00000100000000000000000000000000000000000000000000      
RGRST980027702098  0080000000000232295478205020     00000000563149000000000000000068KWH 00000100000000000000000000005800143000000005694735      
RGRST980027702098  0010000000000232295477506888     00000000000000000000000000000010   X00000100000000000000000000000000000000000000000000      
RGRST980027702098  0160000000000232295479005222     00000000024749000000000000000062KVHX00000100000000000000000000000000000000000000000000      
RGRST980027702098  0070000000000232295478105010     00000000656764000000000000000068KWH 00000100000000000000000000006719903000000006624738      
RGRST980027702098  0040000000000232295477806095_1   00000000000000000000000000000020   X00000100000000000000000000000000000000000000000000      
CGRST980023075778  020021350453AMR     EDMI MK6            0000300000        000000000000000000000                                       00060007081019000000600   
RGRST980023075778  0010000000000232293829206888     00000000000000000000000000000010   X00000100000000000000000000000000000000000000000000      
RGRST980023075778  0130000000000232293860401015     00000000012724400000000000000008KW  00000100000000000000000000000127244000000000127244      
RGRST980023075778  0100000000000232293860102050     00000000000175000000000000000003KW X00000100000000000000000000000000000000000000000000      
RGRST980023075778  0060000000000232293829705111     00000002155175000000000000000002KWHX00000100000000000000000000000000000000000000000000      
RGRST980023075778  0080000000000232293829905020     00000000369965000000000000000008KWH 00000100000000000000000000003699650000000003699650      
RGRST980023075778  0120000000000232293860302070     00000000000176200000000000000003KW X00000100000000000000000000000000000000000000000000      
RGRST980023075778  0160000000000232293860705222     00000002638133000000000000000003KVHX00000100000000000000000000000000000000000000000000      
RGRST980023075778  0180000000000232293860901118     00000000014510400000000000000008KVR 00000100000000000000000000000145104000000000145104      
RGRST980023075778  0090000000000232293830005030     00000000470590000000000000000008KWH 00000100000000000000000000004705900000000004705900      
RGRST980023075778  0030000000000232293829406091_T   00000000040100000000000000000040   X00000100000000000000000000000000000000000000000000      
RGRST980023075778  0110000000000232293860202060     00000000000177400000000000000003KW X00000100000000000000000000000000000000000000000000      
RGRST980023075778  0050000000000232293829603096     00000000013600000000000000000060   X00000100000000000000000000000000000000000000000000      
RGRST980023075778  0040000000000232293829506095_1   00000000000000000000000000000000   X00000100000000000000000000000000000000000000000000      
RGRST980023075778  0170000000000232293860802280     00000000000004900000000000000003KVRX00000100000000000000000000000000000000000000000000      
RGRST980023075778  0070000000000232293829805010     00000001314620000000000000000008KWH 00000100000000000000000000013146200000000013146200      
RGRST980023075778  0020000000000232293829306090_2D  00000029052000000000000000000060   X00000100000000000000000000000000000000000000000000      
RGRST980023075778  0140000000000232293860501016     00000000010270500000000000000008KW  00000100000000000000000000000102705000000000102705      
RGRST980023075778  0150000000000232293860601017     00000000010875000000000000000008KW  00000100000000000000000000000108750000000000108750      
HGRST98010010000000000000000000000000000000000000002020062895501AR6     
CGRST980127710587  020018315114AMR     EDMI MK10E          0000800000101/45  000000000000000000000                                       0010000708101908001000    
RGRST980127710587  0130000000000232420056701015     00000000000801200000000000000058KW  00000100000000000000000000000008228000000000008093      
RGRST980127710587  0050000000000232420055903096     00000000007200000000000000000080   X00000100000000000000000000000000000000000000000000      
RGRST980127710587  0180000000000232420057201118     00000000000513600000000000000058KVR 00000100000000000000000000000005264000000000005184      
RGRST980127710587  0160000000000232420057005222     00000000041756000000000000000053KVHX00000100000000000000000000000000000000000000000000      
RGRST980127710587  0070000000000232420056105010     00000000051070000000000000000068KWH 00000100000000000000000000000526712000000000516704      
RGRST980127710587  0080000000000232420056205020     00000000022915000000000000000068KWH 00000100000000000000000000000234905000000000231308      
RGRST980127710587  0100000000000232420056402050     00000000000011600000000000000053KW X00000100000000000000000000000000000000000000000000      
RGRST980127710587  0030000000000232420055706091_T   00000000040300000000000000000060   X00000100000000000000000000000000000000000000000000      
RGRST980127710587  0060000000000232420056005111     00000000095392000000000000000062KWHX00000100000000000000000000000000000000000000000000      
RGRST980127710587  0040000000000232420055806095_1   00000000000000000000000000000020   X00000100000000000000000000000000000000000000000000      
RGRST980127710587  0090000000000232420056305030     00000000021407000000000000000068KWH 00000100000000000000000000000217891000000000215502      
RGRST980127710587  0020000000000232420055606090_2D  00000029052000000000000000000060   X00000100000000000000000000000000000000000000000000      
RGRST980127710587  0140000000000232420056801016     00000000000399600000000000000058KW  00000100000000000000000000000004084000000000004029      
RGRST980127710587  0110000000000232420056502060     00000000000004400000000000000053KW X00000100000000000000000000000000000000000000000000      
RGRST980127710587  0170000000000232420057102280     00000000000006800000000000000053KVRX00000100000000000000000000000000000000000000000000      
RGRST980127710587  0150000000000232420056901017     00000000000522400000000000000058KW  00000100000000000000000000000005352000000000005272      
RGRST980127710587  0120000000000232420056602070     00000000000004400000000000000053KW X00000100000000000000000000000000000000000000000000      
RGRST980127710587  0010000000000232420055506888     00000000000000000000000000000010   X00000100000000000000000000000000000000000000000000      
CGRST980123068436  020019514450AMR     EDMI MK6            0000500000222/8   000000000000000000000                                       0503300708101908050330    
RGRST980123068436  0010000000000232420080906888     00000000000000000000000000000010   X00000100000000000000000000000000000000000000000000      
RGRST980123068436  0140000000000232420082201016     00000000015897400000000000000008KW  00000100000000000000000000000162231000000000160195      
RGRST980123068436  0060000000000232420081405111     00000003325035000000000000000003KWHX00000100000000000000000000000000000000000000000000      
RGRST980123068436  0150000000000232420082301017     00000000016129400000000000000008KW  00000100000000000000000000000164598000000000162533      
RGRST980123068436  0030000000000232420081106091_T   00000000040300000000000000000040   X00000100000000000000000000000000000000000000000000      
RGRST980123068436  0180000000000232420082601118     00000000005564500000000000000008KVR 00000100000000000000000000000056496000000000055964      
RGRST980123068436  0100000000000232420081802050     00000000000165500000000000000003KW X00000100000000000000000000000000000000000000000000      
RGRST980123068436  0110000000000232420081902060     00000000000165900000000000000003KW X00000100000000000000000000000000000000000000000000      
RGRST980123068436  0130000000000232420082101015     00000000017265800000000000000008KW  00000100000000000000000000000175973000000000173901      
RGRST980123068436  0070000000000232420081505010     00000002179742000000000000000008KWH 00000100000000000000000000022239632000000021963249      
RGRST980123068436  0090000000000232420081705030     00000000685347000000000000000008KWH 00000100000000000000000000007011219000000006912626      
RGRST980123068436  0080000000000232420081605020     00000000459946000000000000000008KWH 00000100000000000000000000004701970000000004637901      
RGRST980123068436  0020000000000232420081006090_2D  00000029052000000000000000000060   X00000100000000000000000000000000000000000000000000      
RGRST980123068436  0040000000000232420081206095_1   00000000000000000000000000000000   X00000100000000000000000000000000000000000000000000      
RGRST980123068436  0170000000000232420082502280     00000000000041600000000000000003KVRX00000100000000000000000000000000000000000000000000      
RGRST980123068436  0160000000000232420082405222     00000000631171000000000000000003KVHX00000100000000000000000000000000000000000000000000      
RGRST980123068436  0120000000000232420082002070     00000000000168400000000000000003KW X00000100000000000000000000000000000000000000000000      
RGRST980123068436  0050000000000232420081303096     00000000014500000000000000000060   X00000100000000000000000000000000000000000000000000      
CGRST98015701544508020017480493AMR     EDMI MK10E          000050000056/20   000000000000000000000                                       0505000708101908050500    
RGRST980157015445080130000000000232420039501015     00000000006941200000000000000058KW  00000100000000000000000000000071911000000000070349      
RGRST980157015445080020000000000232420038406090_2D  00000029052000000000000000000060   X00000100000000000000000000000000000000000000000000      
RGRST980157015445080160000000000232420039805222     00000000749791000000000000000053KVHX00000100000000000000000000000000000000000000000000      
RGRST980157015445080050000000000232420038703096     00000000005700000000000000000080   X00000100000000000000000000000000000000000000000000      
RGRST980157015445080170000000000232420039902280     00000000000088400000000000000053KVRX00000100000000000000000000000000000000000000000000      
RGRST980157015445080090000000000232420039105030     00000000113888000000000000000068KWH 00000100000000000000000000001177676000000001153428      
RGRST980157015445080180000000000232420040001118     00000000005581200000000000000058KVR 00000100000000000000000000000057606000000000056484      
RGRST980157015445080070000000000232420038905010     00000000744388000000000000000068KWH 00000100000000000000000000007729181000000007550868      
RGRST980157015445080150000000000232420039701017     00000000003713600000000000000058KW  00000100000000000000000000000038583000000000037678      
RGRST980157015445080100000000000232420039202050     00000000000117200000000000000053KW X00000100000000000000000000000000000000000000000000      
RGRST980157015445080140000000000232420039601016     00000000005669600000000000000058KW  00000100000000000000000000000058882000000000057516      
RGRST980157015445080110000000000232420039302060     00000000000123600000000000000053KW X00000100000000000000000000000000000000000000000000      
RGRST980157015445080010000000000232420038306888     00000000000000000000000000000010   X00000100000000000000000000000000000000000000000000      
RGRST980157015445080080000000000232420039005020     00000000148904000000000000000068KWH 00000100000000000000000000001553537000000001513226      
RGRST980157015445080030000000000232420038506091_T   00000000040300000000000000000060   X00000100000000000000000000000000000000000000000000      
RGRST980157015445080060000000000232420038805111     00000001007180000000000000000062KWHX00000100000000000000000000000000000000000000000000      
RGRST980157015445080040000000000232420038606095_1   00000000000000000000000000000020   X00000100000000000000000000000000000000000000000000      
RGRST980157015445080120000000000232420039402070     00000000000031200000000000000053KW X00000100000000000000000000000000000000000000000000      
CGRST980127710603  020019520301AMR     EDMI MK10E          0000800000101/124 000000000000000000000                                       0010500708101908001050    
RGRST980127710603  0060000000000232420059605111     00000000219066000000000000000062KWHX00000100000000000000000000000000000000000000000000      
RGRST980127710603  0110000000000232420080102060     00000000000016800000000000000053KW X00000100000000000000000000000000000000000000000000      
RGRST980127710603  0080000000000232420059805020     00000000039194000000000000000068KWH 00000100000000000000000000000409062000000000398361      
RGRST980127710603  0010000000000232420059106888     00000000000000000000000000000010   X00000100000000000000000000000000000000000000000000      
RGRST980127710603  0040000000000232420059406095_1   00000000000000000000000000000020   X00000100000000000000000000000000000000000000000000      
RGRST980127710603  0090000000000232420059905030     00000000035515000000000000000068KWH 00000100000000000000000000000370203000000000360795      
RGRST980127710603  0130000000000232420080301015     00000000001784000000000000000058KW  00000100000000000000000000000018405000000000018052      
RGRST980127710603  0020000000000232420059206090_2D  00000029052000000000000000000060   X00000100000000000000000000000000000000000000000000      
RGRST980127710603  0150000000000232420080501017     00000000001028400000000000000058KW  00000100000000000000000000000010700000000000010440      
RGRST980127710603  0050000000000232420059503096     00000000007100000000000000000080   X00000100000000000000000000000000000000000000000000      
RGRST980127710603  0070000000000232420059705010     00000000144357000000000000000068KWH 00000100000000000000000000001508342000000001467859      
RGRST980127710603  0180000000000232420080801118     00000000001083200000000000000058KVR 00000100000000000000000000000011101000000000010933      
RGRST980127710603  0160000000000232420080605222     00000000095004000000000000000053KVHX00000100000000000000000000000000000000000000000000      
RGRST980127710603  0120000000000232420080202070     00000000000015200000000000000053KW X00000100000000000000000000000000000000000000000000      
RGRST980127710603  0170000000000232420080702280     00000000000012800000000000000053KVRX00000100000000000000000000000000000000000000000000      
RGRST980127710603  0100000000000232420060002050     00000000000027200000000000000053KW X00000100000000000000000000000000000000000000000000      
RGRST980127710603  0030000000000232420059306091_T   00000000035800000000000000000060   X00000100000000000000000000000000000000000000000000      
RGRST980127710603  0140000000000232420080401016     00000000001261600000000000000058KW  00000100000000000000000000000013048000000000012778      
CGRST980127703100  020018255569AMR     EDMI MK10E          0000800000102/3   000000000000000000000                                       0503500708101908050350    
RGRST980127703100  0110000000000232420054702060     00000000000102800000000000000053KW X00000100000000000000000000000000000000000000000000      
RGRST980127703100  0050000000000232420054103096     00000000007400000000000000000080   X00000100000000000000000000000000000000000000000000      
RGRST980127703100  0070000000000232420054305010     00000001039737000000000000000068KWH 00000100000000000000000000010729441000000010521896      
RGRST980127703100  0100000000000232420054602050     00000000000114400000000000000053KW X00000100000000000000000000000000000000000000000000      
RGRST980127703100  0060000000000232420054205111     00000001447836000000000000000062KWHX00000100000000000000000000000000000000000000000000      
RGRST980127703100  0140000000000232420055001016     00000000006868800000000000000058KW  00000100000000000000000000000070782000000000069473      
RGRST980127703100  0180000000000232420055401118     00000000003100800000000000000058KVR 00000100000000000000000000000031802000000000031305      
RGRST980127703100  0020000000000232420053806090_2D  00000029052000000000000000000060   X00000100000000000000000000000000000000000000000000      
RGRST980127703100  0010000000000232420053706888     00000000000000000000000000000010   X00000100000000000000000000000000000000000000000000      
RGRST980127703100  0120000000000232420054802070     00000000000112800000000000000053KW X00000100000000000000000000000000000000000000000000      
RGRST980127703100  0170000000000232420055302280     00000000000042800000000000000053KVRX00000100000000000000000000000000000000000000000000      
RGRST980127703100  0080000000000232420054405020     00000000252190000000000000000068KWH 00000100000000000000000000002607384000000002553956      
RGRST980127703100  0130000000000232420054901015     00000000008019200000000000000058KW  00000100000000000000000000000082506000000000081059      
RGRST980127703100  0030000000000232420053906091_T   00000000040200000000000000000060   X00000100000000000000000000000000000000000000000000      
RGRST980127703100  0150000000000232420055101017     00000000003483600000000000000058KW  00000100000000000000000000000036813000000000035577      
RGRST980127703100  0040000000000232420054006095_1   00000000000000000000000000000020   X00000100000000000000000000000000000000000000000000      
RGRST980127703100  0090000000000232420054505030     00000000155909000000000000000068KWH 00000100000000000000000000001610829000000001578492      
RGRST980127703100  0160000000000232420055205222     00000000478348000000000000000053KVHX00000100000000000000000000000000000000000000000000      
CGRST980125248850  020001324397AMR     EDMI MK6            000030000056/4    000000000000000000000                                       0502000708101908050200    
RGRST980125248850  0160000000000232420053405222     00000000433337000000000000000003KVHX00000100000000000000000000000000000000000000000000      
RGRST980125248850  0150000000000232420053301017     00000000018346800000000000000008KW  00000100000000000000000000000184848000000000183985      
RGRST980125248850  0110000000000232420052902060     00000000000070300000000000000003KW X00000100000000000000000000000000000000000000000000      
RGRST980125248850  0040000000000232420052206095_1   00000000000000000000000000000000   X00000100000000000000000000000000000000000000000000      
RGRST980125248850  0070000000000232420052505010     00000002071041000000000000000008KWH 00000100000000000000000000020901030000000020781892      
RGRST980125248850  0180000000000232420053601118     00000000010660500000000000000008KVR 00000100000000000000000000000108853000000000107448      
RGRST980125248850  0060000000000232420052405111     00000003172548000000000000000003KWHX00000100000000000000000000000000000000000000000000      
RGRST980125248850  0080000000000232420052605020     00000000537364000000000000000008KWH 00000100000000000000000000005437093000000005397434      
RGRST980125248850  0030000000000232420052106091_T   00000000035800000000000000000040   X00000100000000000000000000000000000000000000000000      
RGRST980125248850  0100000000000232420052802050     00000000000102400000000000000003KW X00000100000000000000000000000000000000000000000000      
RGRST980125248850  0090000000000232420052705030     00000000564143000000000000000008KWH 00000100000000000000000000005679745000000005655798      
RGRST980125248850  0140000000000232420053201016     00000000015534300000000000000008KW  00000100000000000000000000000156601000000000155814      
RGRST980125248850  0120000000000232420053002070     00000000000016500000000000000003KW X00000100000000000000000000000000000000000000000000      
RGRST980125248850  0020000000000232420052006090_2D  00000029052000000000000000000060   X00000100000000000000000000000000000000000000000000      
RGRST980125248850  0170000000000232420053502280     00000000000114400000000000000003KVRX00000100000000000000000000000000000000000000000000      
RGRST980125248850  0010000000000232420051906888     00000000000000000000000000000010   X00000100000000000000000000000000000000000000000000      
RGRST980125248850  0130000000000232420053101015     00000000024920500000000000000008KW  00000100000000000000000000000251252000000000249972      
RGRST980125248850  0050000000000232420052303096     00000000012900000000000000000060   X00000100000000000000000000000000000000000000000000      
CGRST980127674187  020001258487AMR     EDMI MK10E          0000300000        000000000000000000000                                       0495000708101908049500    
RGRST980127674187  0170000000000232420058902280     00000000000055600000000000000053KVRX00000100000000000000000000000000000000000000000000      
RGRST980127674187  0050000000000232420057703096     00000000009700000000000000000080   X00000100000000000000000000000000000000000000000000      
RGRST980127674187  0160000000000232420058805222     00000000510929000000000000000053KVHX00000100000000000000000000000000000000000000000000      
RGRST980127674187  0140000000000232420058601016     00000000007089200000000000000058KW  00000100000000000000000000000072532000000000071507      
RGRST980127674187  0100000000000232420058202050     00000000000085600000000000000053KW X00000100000000000000000000000000000000000000000000      
RGRST980127674187  0010000000000232420057306888     00000000000000000000000000000010   X00000100000000000000000000000000000000000000000000      
RGRST980127674187  0070000000000232420057905010     00000001087905000000000000000068KWH 00000100000000000000000000011145297000000010978892      
RGRST980127674187  0130000000000232420058501015     00000000008082800000000000000058KW  00000100000000000000000000000082576000000000081483      
RGRST980127674187  0120000000000232420058402070     00000000000082400000000000000053KW X00000100000000000000000000000000000000000000000000      
RGRST980127674187  0060000000000232420057805111     00000002037874000000000000000062KWHX00000100000000000000000000000000000000000000000000      
RGRST980127674187  0090000000000232420058105030     00000000478866000000000000000068KWH 00000100000000000000000000004916906000000004836752      
RGRST980127674187  0020000000000232420057406090_2D  00000029052000000000000000000060   X00000100000000000000000000000000000000000000000000      
RGRST980127674187  0180000000000232420059001118     00000000004694400000000000000058KVR 00000100000000000000000000000048240000000000047430      
RGRST980127674187  0030000000000232420057506091_T   00000000040300000000000000000060   X00000100000000000000000000000000000000000000000000      
RGRST980127674187  0150000000000232420058701017     00000000007144800000000000000058KW  00000100000000000000000000000073332000000000072154      
RGRST980127674187  0080000000000232420058005020     00000000471103000000000000000068KWH 00000100000000000000000000004828855000000004755214      
RGRST980127674187  0040000000000232420057606095_1   00000000000000000000000000000020   X00000100000000000000000000000000000000000000000000      
RGRST980127674187  0110000000000232420058302060     00000000000079600000000000000053KW X00000100000000000000000000000000000000000000000000      
CGRST980127708655  020021217256AMR     EDMI MK10E          0000500000101/62/1000000000000000000000                                       001300                    
RGRST980127708655  0080000000000232420083405020     00000000078639000000000000000068KWH 00000100000000000000000000000807637000000000794357      
RGRST980127708655  0140000000000232420084001016     00000000001938800000000000000058KW  00000100000000000000000000000020372000000000019757      
RGRST980127708655  0180000000000232420084401118     00000000000138800000000000000058KVR 00000100000000000000000000000001886000000000001574      
RGRST980127708655  0040000000000232420083006095_1   00000000000000000000000000000020   X00000100000000000000000000000000000000000000000000      
RGRST980127708655  0110000000000232420083702060     00000000000052000000000000000053KW X00000100000000000000000000000000000000000000000000      
RGRST980127708655  0170000000000232420084302280     00000000000027200000000000000053KVRX00000100000000000000000000000000000000000000000000      
RGRST980127708655  0050000000000232420083103096     00000000007200000000000000000080   X00000100000000000000000000000000000000000000000000      
RGRST980127708655  0160000000000232420084205222     00000000001266000000000000000053KVHX00000100000000000000000000000000000000000000000000      
RGRST980127708655  0070000000000232420083305010     00000000255689000000000000000068KWH 00000100000000000000000000002672605000000002600283      
RGRST980127708655  0030000000000232420082906091_T   00000000040100000000000000000060   X00000100000000000000000000000000000000000000000000      
RGRST980127708655  0090000000000232420083505030     00000000086943000000000000000068KWH 00000100000000000000000000000895597000000000879242      
RGRST980127708655  0130000000000232420083901015     00000000002425200000000000000058KW  00000100000000000000000000000025476000000000024711      
RGRST980127708655  0100000000000232420083602050     00000000000067600000000000000053KW X00000100000000000000000000000000000000000000000000      
RGRST980127708655  0010000000000232420082706888     00000000000000000000000000000010   X00000100000000000000000000000000000000000000000000      
RGRST980127708655  0120000000000232420083802070     00000000000059600000000000000053KW X00000100000000000000000000000000000000000000000000      
RGRST980127708655  0150000000000232420084101017     00000000002058800000000000000058KW  00000100000000000000000000000021702000000000021005      
RGRST980127708655  0020000000000232420082806090_2D  00000029052000000000000000000060   X00000100000000000000000000000000000000000000000000      
RGRST980127708655  0060000000000232420083205111     00000000421271000000000000000062KWHX00000100000000000000000000000000000000000000000000      
CGRST980127584528  020001326335AMR     EDMI MK6N           000050000056      000000000000000000000                                       0500000708101908050000    
RGRST980127584528  0040000000000232420050406095_1   00000000000000000000000000000000   X00000100000000000000000000000000000000000000000000      
RGRST980127584528  0180000000000232420051801118     00000000002147600000000000000068KVR 00000100000000000000000000000021734000000000021572      
RGRST980127584528  0100000000000232420051002050     00000000000006800000000000000063KW X00000100000000000000000000000000000000000000000000      
RGRST980127584528  0160000000000232420051605222     00000000080672000000000000000062KVHX00000100000000000000000000000000000000000000000000      
RGRST980127584528  0050000000000232420050503096     00000000010100000000000000000060   X00000100000000000000000000000000000000000000000000      
RGRST980127584528  0010000000000232420050106888     00000000000000000000000000000010   X00000100000000000000000000000000000000000000000000      
RGRST980127584528  0170000000000232420051702280     00000000000001700000000000000063KVRX00000100000000000000000000000000000000000000000000      
RGRST980127584528  0070000000000232420050705010     00000000147487000000000000000068KWH 00000100000000000000000000001487708000000001479684      
RGRST980127584528  0020000000000232420050206090_2D  00000029052000000000000000000060   X00000100000000000000000000000000000000000000000000      
RGRST980127584528  0080000000000232420050805020     00000000184550000000000000000068KWH 00000100000000000000000000001867368000000001853700      
RGRST980127584528  0140000000000232420051401016     00000000002037500000000000000068KW  00000100000000000000000000000020659000000000020481      
RGRST980127584528  0060000000000232420050605111     00000000466654000000000000000062KWHX00000100000000000000000000000000000000000000000000      
RGRST980127584528  0130000000000232420051301015     00000000004187800000000000000068KW  00000100000000000000000000000042288000000000042031      
RGRST980127584528  0150000000000232420051501017     00000000001964300000000000000068KW  00000100000000000000000000000019787000000000019697      
RGRST980127584528  0030000000000232420050306091_T   00000000040000000000000000000040   X00000100000000000000000000000000000000000000000000      
RGRST980127584528  0110000000000232420051102060     00000000000006800000000000000063KW X00000100000000000000000000000000000000000000000000      
RGRST980127584528  0090000000000232420050905030     00000000134617000000000000000068KWH 00000100000000000000000000001362364000000001352242      
RGRST980127584528  0120000000000232420051202070     00000000000006900000000000000063KW X00000100000000000000000000000000000000000000000000      
CGRST980127584524  020001086066AMR     EDMI MK6N           0000300000101/111 000000000000000000000                                       0490000708101908049000    
RGRST980127584524  0120000000000232420085602070     00000000000175500000000000000003KW X00000100000000000000000000000000000000000000000000      
RGRST980127584524  0030000000000232420084706091_T   00000000040000000000000000000040   X00000100000000000000000000000000000000000000000000      
RGRST980127584524  0080000000000232420085205020     00000000371773000000000000000008KWH 00000100000000000000000000003816961000000003754941      
RGRST980127584524  0010000000000232420084506888     00000000000000000000000000000010   X00000100000000000000000000000000000000000000000000      
RGRST980127584524  0110000000000232420085502060     00000000000156000000000000000003KW X00000100000000000000000000000000000000000000000000      
RGRST980127584524  0150000000000232420085901017     00000000014148200000000000000008KW  00000100000000000000000000000144662000000000142674      
RGRST980127584524  0070000000000232420085105010     00000001658290000000000000000008KWH 00000100000000000000000000016927750000000016712218      
RGRST980127584524  0130000000000232420085701015     00000000015422200000000000000008KW  00000100000000000000000000000157409000000000155417      
RGRST980127584524  0160000000000232420086005222     00000002294826000000000000000003KVHX00000100000000000000000000000000000000000000000000      
RGRST980127584524  0060000000000232420085005111     00000002526241000000000000000002KWHX00000100000000000000000000000000000000000000000000      
RGRST980127584524  0090000000000232420085305030     00000000496178000000000000000008KWH 00000100000000000000000000005096694000000005012372      
RGRST980127584524  0140000000000232420085801016     00000000014040200000000000000008KW  00000100000000000000000000000143358000000000141510      
RGRST980127584524  0020000000000232420084606090_2D  00000029052000000000000000000060   X00000100000000000000000000000000000000000000000000      
RGRST980127584524  0180000000000232420086201118     00000000011021300000000000000008KVR 00000100000000000000000000000112520000000000111078      
RGRST980127584524  0050000000000232420084903096     00000000010100000000000000000060   X00000100000000000000000000000000000000000000000000      
RGRST980127584524  0170000000000232420086102280     00000000000132300000000000000003KVRX00000100000000000000000000000000000000000000000000      
RGRST980127584524  0100000000000232420085402050     00000000000182000000000000000003KW X00000100000000000000000000000000000000000000000000      
RGRST980127584524  0040000000000232420084806095_1   00000000000000000000000000000000   X00000100000000000000000000000000000000000000000000      
HGRST98060013000000000000000000000000000000000000002020062895501AR6     
CGRST980623066413  020001095901AMR     EDMI MK6            0000500000355/204 000000000000000000000                                       0025500708101915002550    
RGRST980623066413  0060000000000232333396905111     00000005338016000000000000000003KWHX00000100000000000000000000000000000000000000000000      
RGRST980623066413  0100000000000232333397302050     00000000000096500000000000000003KW X00000100000000000000000000000000000000000000000000      
RGRST980623066413  0120000000000232333397502070     00000000000100000000000000000003KW X00000100000000000000000000000000000000000000000000      
RGRST980623066413  0110000000000232333397402060     00000000000098600000000000000003KW X00000100000000000000000000000000000000000000000000      
RGRST980623066413  0040000000000232333396706095_1   00000000000000000000000000000000   X00000100000000000000000000000000000000000000000000      
RGRST980623066413  0010000000000232333396406888     00000000000000000000000000000010   X00000100000000000000000000000000000000000000000000      
RGRST980623066413  0140000000000232333397701016     00000000013453300000000000000008KW  00000100000000000000000000000136425000000000135242      
RGRST980623066413  0080000000000232333397105020     00000001495457000000000000000008KWH 00000100000000000000000000015161742000000015032259      
RGRST980623066413  0030000000000232333396606091_T   00000000040100000000000000000040   X00000100000000000000000000000000000000000000000000      
RGRST980623066413  0150000000000232333397801017     00000000014405300000000000000008KW  00000100000000000000000000000146003000000000144784      
RGRST980623066413  0050000000000232333396803096     00000000015100000000000000000060   X00000100000000000000000000000000000000000000000000      
RGRST980623066413  0170000000000232333398002280     00000000000048900000000000000003KVRX00000100000000000000000000000000000000000000000000      
RGRST980623066413  0160000000000232333397905222     00000001078792000000000000000003KVHX00000100000000000000000000000000000000000000000000      
RGRST980623066413  0180000000000232333398101118     00000000006661000000000000000008KVR 00000100000000000000000000000067578000000000066973      
RGRST980623066413  0090000000000232333397205030     00000001706584000000000000000008KWH 00000100000000000000000000017317239000000017160114      
RGRST980623066413  0070000000000232333397005010     00000002135975000000000000000008KWH 00000100000000000000000000021666422000000021474752      
RGRST980623066413  0130000000000232333397601015     00000000014714100000000000000008KW  00000100000000000000000000000149092000000000147872      
RGRST980623066413  0020000000000232333396506090_2D  00000029052000000000000000000060   X00000100000000000000000000000000000000000000000000      
CGRST980623068460  020001086214AMR     EDMI MK6            0000800000355/115-000000000000000000000                                       0017000708101915001700    
RGRST980623068460  0070000000000232331734205010     00000002325889000000000000000008KWH 00000100000000000000000000023653961000000023407041      
RGRST980623068460  0050000000000232331734003096     00000000014200000000000000000060   X00000100000000000000000000000000000000000000000000      
RGRST980623068460  0080000000000232331734305020     00000002456984000000000000000008KWH 00000100000000000000000000024969262000000024719623      
RGRST980623068460  0130000000000232331734801015     00000000013824500000000000000008KW  00000100000000000000000000000140436000000000139066      
RGRST980623068460  0170000000000232331735202280     00000000000051200000000000000003KVRX00000100000000000000000000000000000000000000000000      
RGRST980623068460  0180000000000232331735301118     00000000009151800000000000000008KVR 00000100000000000000000000000092473000000000091876      
RGRST980623068460  0090000000000232331734405030     00000002225083000000000000000008KWH 00000100000000000000000000022646100000000022399056      
RGRST980623068460  0020000000000232331733706090_2D  00000029052000000000000000000060   X00000100000000000000000000000000000000000000000000      
RGRST980623068460  0100000000000232331734502050     00000000000121000000000000000003KW X00000100000000000000000000000000000000000000000000      
RGRST980623068460  0140000000000232331734901016     00000000013814100000000000000008KW  00000100000000000000000000000140317000000000138957      
RGRST980623068460  0040000000000232331733906095_1   00000000000000000000000000000000   X00000100000000000000000000000000000000000000000000      
RGRST980623068460  0110000000000232331734602060     00000000000120300000000000000003KW X00000100000000000000000000000000000000000000000000      
RGRST980623068460  0120000000000232331734702070     00000000000121000000000000000003KW X00000100000000000000000000000000000000000000000000      
RGRST980623068460  0160000000000232331735105222     00000004360062000000000000000003KVHX00000100000000000000000000000000000000000000000000      
RGRST980623068460  0030000000000232331733806091_T   00000000040200000000000000000040   X00000100000000000000000000000000000000000000000000      
RGRST980623068460  0150000000000232331735001017     00000000013673400000000000000008KW  00000100000000000000000000000138923000000000137555      
RGRST980623068460  0060000000000232331734105111     00000007007956000000000000000003KWHX00000100000000000000000000000000000000000000000000      
RGRST980623068460  0010000000000232331733606888     00000000000000000000000000000010   X00000100000000000000000000000000000000000000000000      
CGRST980627674212  020001095900AMR     EDMI MK10E          0000500000115-116 000000000000000000000                                       0021500708101915002150    
RGRST980627674212  0120000000000232334432702070     00000000000016000000000000000053KW X00000100000000000000000000000000000000000000000000      
RGRST980627674212  0040000000000232334431906095_1   00000000000000000000000000000020   X00000100000000000000000000000000000000000000000000      
RGRST980627674212  0020000000000232334431706090_2D  00000029052000000000000000000060   X00000100000000000000000000000000000000000000000000      
RGRST980627674212  0080000000000232334432305020     00000000120783000000000000000068KWH 00000100000000000000000000001225547000000001214473      
RGRST980627674212  0060000000000232334432105111     00000000503129000000000000000062KWHX00000100000000000000000000000000000000000000000000      
RGRST980627674212  0160000000000232334433105222     00000000253573000000000000000053KVHX00000100000000000000000000000000000000000000000000      
RGRST980627674212  0070000000000232334432205010     00000000237533000000000000000068KWH 00000100000000000000000000002418662000000002391579      
RGRST980627674212  0090000000000232334432405030     00000000144813000000000000000068KWH 00000100000000000000000000001475201000000001458281      
RGRST980627674212  0110000000000232334432602060     00000000000013600000000000000053KW X00000100000000000000000000000000000000000000000000      
RGRST980627674212  0150000000000232334433001017     00000000001754400000000000000058KW  00000100000000000000000000000017882000000000017670      
RGRST980627674212  0180000000000232334433301118     00000000001912400000000000000058KVR 00000100000000000000000000000019417000000000019234      
RGRST980627674212  0170000000000232334433202280     00000000000020400000000000000053KVRX00000100000000000000000000000000000000000000000000      
RGRST980627674212  0050000000000232334432003096     00000000009700000000000000000080   X00000100000000000000000000000000000000000000000000      
RGRST980627674212  0030000000000232334431806091_T   00000000040100000000000000000060   X00000100000000000000000000000000000000000000000000      
RGRST980627674212  0010000000000232334431606888     00000000000000000000000000000010   X00000100000000000000000000000000000000000000000000      
RGRST980627674212  0100000000000232334432502050     00000000000019200000000000000053KW X00000100000000000000000000000000000000000000000000      
RGRST980627674212  0130000000000232334432801015     00000000001930000000000000000058KW  00000100000000000000000000000019644000000000019429      
RGRST980627674212  0140000000000232334432901016     00000000001519200000000000000058KW  00000100000000000000000000000015426000000000015279      
CGRST980623068461  020001086215AMR     EDMI MK6            0000800000355/115-000000000000000000000                                       0018000708101915001800    
RGRST980623068461  0040000000000232332288206095_1   00000000000000000000000000000000   X00000100000000000000000000000000000000000000000000      
RGRST980623068461  0160000000000232332289405222     00000000952007000000000000000003KVHX00000100000000000000000000000000000000000000000000      
RGRST980623068461  0110000000000232332288902060     00000000000148600000000000000003KW X00000100000000000000000000000000000000000000000000      
RGRST980623068461  0120000000000232332289002070     00000000000153200000000000000003KW X00000100000000000000000000000000000000000000000000      
RGRST980623068461  0130000000000232332289101015     00000000025299500000000000000008KW  00000100000000000000000000000255123000000000253793      
RGRST980623068461  0140000000000232332289201016     00000000024333500000000000000008KW  00000100000000000000000000000245388000000000244105      
RGRST980623068461  0180000000000232332289601118     00000000006093200000000000000008KVR 00000100000000000000000000000061162000000000061018      
RGRST980623068461  0030000000000232332288106091_T   00000000000000000000000000000040   X00000100000000000000000000000000000000000000000000      
RGRST980623068461  0060000000000232332288405111     00000011547225000000000000000003KWHX00000100000000000000000000000000000000000000000000      
RGRST980623068461  0050000000000232332288303096     00000000014100000000000000000060   X00000100000000000000000000000000000000000000000000      
RGRST980623068461  0090000000000232332288705030     00000003639440000000000000000008KWH 00000100000000000000000000036623280000000036480230      
RGRST980623068461  0070000000000232332288505010     00000004112964000000000000000008KWH 00000100000000000000000000041411834000000041235463      
RGRST980623068461  0010000000000232332287906888     00000000000000000000000000000010   X00000100000000000000000000000000000000000000000000      
RGRST980623068461  0080000000000232332288605020     00000003794816000000000000000008KWH 00000100000000000000000000038210434000000038046512      
RGRST980623068461  0100000000000232332288802050     00000000000150300000000000000003KW X00000100000000000000000000000000000000000000000000      
RGRST980623068461  0020000000000232332288006090_2D  00000000000000000000000000000060   X00000100000000000000000000000000000000000000000000      
RGRST980623068461  0150000000000232332289301017     00000000024579500000000000000008KW  00000100000000000000000000000247913000000000246589      
RGRST980623068461  0170000000000232332289502280     00000000000016600000000000000003KVRX00000100000000000000000000000000000000000000000000      
CGRST980623068462  020001086217AMR     EDMI MK6            0000800000355/115-000000000000000000000                                       0020000708101915002000    
RGRST980623068462  0020000000000232332836206090_2D  00000029052000000000000000000060   X00000100000000000000000000000000000000000000000000      
RGRST980623068462  0160000000000232332837605222     00000000000000000000000000000003KVHX00000100000000000000000000000000000000000000000000      
RGRST980623068462  0100000000000232332837002050     00000000000140900000000000000003KW X00000100000000000000000000000000000000000000000000      
RGRST980623068462  0170000000000232332837702280     00000000000000100000000000000003KVRX00000100000000000000000000000000000000000000000000      
RGRST980623068462  0130000000000232332837301015     00000000015131700000000000000008KW  00000100000000000000000000000154119000000000152367      
RGRST980623068462  0050000000000232332836503096     00000000014300000000000000000060   X00000100000000000000000000000000000000000000000000      
RGRST980623068462  0040000000000232332836406095_1   00000000000000000000000000000000   X00000100000000000000000000000000000000000000000000      
RGRST980623068462  0090000000000232332836905030     00000000334889000000000000000008KWH 00000100000000000000000000003487715000000003400949      
RGRST980623068462  0070000000000232332836705010     00000002041570000000000000000008KWH 00000100000000000000000000020849746000000020578467      
RGRST980623068462  0010000000000232332836106888     00000000000000000000000000000010   X00000100000000000000000000000000000000000000000000      
RGRST980623068462  0060000000000232332836605111     00000003036651000000000000000003KWHX00000100000000000000000000000000000000000000000000      
RGRST980623068462  0150000000000232332837501017     00000000005683300000000000000008KW  00000100000000000000000000000058771000000000057559      
RGRST980623068462  0080000000000232332836805020     00000000660192000000000000000008KWH 00000100000000000000000000006769471000000006664751      
RGRST980623068462  0140000000000232332837401016     00000000014206900000000000000008KW  00000100000000000000000000000144727000000000143066      
RGRST980623068462  0110000000000232332837102060     00000000000133900000000000000003KW X00000100000000000000000000000000000000000000000000      
RGRST980623068462  0180000000000232332837801118     00000000000000600000000000000008KVR 00000100000000000000000000000000006000000000000006      
RGRST980623068462  0120000000000232332837202070     00000000000134500000000000000003KW X00000100000000000000000000000000000000000000000000      
RGRST980623068462  0030000000000232332836306091_T   00000000040100000000000000000040   X00000100000000000000000000000000000000000000000000      
CGRST980623064320  020020491783AMR     EDMI MK6            000080000068/5    000000000000000000000                                       0016000708101915001600    
RGRST980623064320  0060000000000232329299405111     00000001602856000000000000000003KWHX00000100000000000000000000000000000000000000000000      
RGRST980623064320  0150000000000232329400301017     00000000004340600000000000000008KW  00000100000000000000000000000043789000000000043549      
RGRST980623064320  0130000000000232329400101015     00000000004491500000000000000008KW  00000100000000000000000000000045322000000000045067      
RGRST980623064320  0090000000000232329299705030     00000000508363000000000000000008KWH 00000100000000000000000000005128175000000005100334      
RGRST980623064320  0170000000000232329400502280     00000000000009500000000000000003KVRX00000100000000000000000000000000000000000000000000      
RGRST980623064320  0040000000000232329299206095_1   00000000000000000000000000000000   X00000100000000000000000000000000000000000000000000      
RGRST980623064320  0080000000000232329299605020     00000000448923000000000000000008KWH 00000100000000000000000000004530763000000004504804      
RGRST980623064320  0030000000000232329299106091_T   00000000040100000000000000000040   X00000100000000000000000000000000000000000000000000      
RGRST980623064320  0140000000000232329400201016     00000000003930400000000000000008KW  00000100000000000000000000000039612000000000039419      
RGRST980623064320  0100000000000232329299802050     00000000000021900000000000000003KW X00000100000000000000000000000000000000000000000000      
RGRST980623064320  0160000000000232329400405222     00000000803209000000000000000003KVHX00000100000000000000000000000000000000000000000000      
RGRST980623064320  0110000000000232329299902060     00000000000016300000000000000003KW X00000100000000000000000000000000000000000000000000      
RGRST980623064320  0180000000000232329400601118     00000000002636200000000000000008KVR 00000100000000000000000000000026566000000000026438      
RGRST980623064320  0070000000000232329299505010     00000000645570000000000000000008KWH 00000100000000000000000000006508278000000006475417      
RGRST980623064320  0020000000000232329299006090_2D  00000029052000000000000000000060   X00000100000000000000000000000000000000000000000000      
RGRST980623064320  0120000000000232329300002070     00000000000021900000000000000003KW X00000100000000000000000000000000000000000000000000      
RGRST980623064320  0050000000000232329299303096     00000000015000000000000000000060   X00000100000000000000000000000000000000000000000000      
RGRST980623064320  0010000000000232329298906888     00000000000000000000000000000010   X00000100000000000000000000000000000000000000000000      
CGRST980627674211  020021800128AMR     EDMI MK10E          000050000068/7    000000000000000000000                                       0014000708101915001400    
RGRST980627674211  0120000000000232329967902070     00000000000070000000000000000053KW X00000100000000000000000000000000000000000000000000      
RGRST980627674211  0040000000000232329967106095_1   00000000000000000000000000000020   X00000100000000000000000000000000000000000000000000      
RGRST980627674211  0010000000000232329966806888     00000000000000000000000000000010   X00000100000000000000000000000000000000000000000000      
RGRST980627674211  0050000000000232329967203096     00000000009700000000000000000080   X00000100000000000000000000000000000000000000000000      
RGRST980627674211  0070000000000232329967405010     00000000321128000000000000000068KWH 00000100000000000000000000003308937000000003247901      
RGRST980627674211  0080000000000232329967505020     00000000462470000000000000000068KWH 00000100000000000000000000004771842000000004679878      
RGRST980627674211  0030000000000232329967006091_T   00000000040000000000000000000060   X00000100000000000000000000000000000000000000000000      
RGRST980627674211  0180000000000232329968501118     00000000001747600000000000000058KVR 00000100000000000000000000000017932000000000017647      
RGRST980627674211  0130000000000232329968001015     00000000003497200000000000000058KW  00000100000000000000000000000035973000000000035347      
RGRST980627674211  0110000000000232329967802060     00000000000064400000000000000053KW X00000100000000000000000000000000000000000000000000      
RGRST980627674211  0020000000000232329966906090_2D  00000029052000000000000000000060   X00000100000000000000000000000000000000000000000000      
RGRST980627674211  0140000000000232329968101016     00000000003902400000000000000058KW  00000100000000000000000000000040196000000000039463      
RGRST980627674211  0100000000000232329967702050     00000000000054800000000000000053KW X00000100000000000000000000000000000000000000000000      
RGRST980627674211  0160000000000232329968305222     00000000462555000000000000000053KVHX00000100000000000000000000000000000000000000000000      
RGRST980627674211  0060000000000232329967305111     00000001152356000000000000000062KWHX00000100000000000000000000000000000000000000000000      
RGRST980627674211  0150000000000232329968201017     00000000003674800000000000000058KW  00000100000000000000000000000037952000000000037199      
RGRST980627674211  0170000000000232329968402280     00000000000023200000000000000053KVRX00000100000000000000000000000000000000000000000000      
RGRST980627674211  0090000000000232329967605030     00000000368758000000000000000068KWH 00000100000000000000000000003812802000000003734538      
CGRST980627671242  020001086218AMR     EDMI MK10E          0000800000355/639 000000000000000000000                                       0022000708101915002200    
RGRST980627671242  0180000000000232334911501118     00000000000929200000000000000058KVR 00000100000000000000000000000009470000000000009358      
RGRST980627671242  0100000000000232334910702050     00000000000014800000000000000053KW X00000100000000000000000000000000000000000000000000      
RGRST980627671242  0170000000000232334911402280     00000000000008800000000000000053KVRX00000100000000000000000000000000000000000000000000      
RGRST980627671242  0110000000000232334910802060     00000000000018400000000000000053KW X00000100000000000000000000000000000000000000000000      
RGRST980627671242  0040000000000232334910106095_1   00000000000000000000000000000020   X00000100000000000000000000000000000000000000000000      
RGRST980627671242  0150000000000232334911201017     00000000001596800000000000000058KW  00000100000000000000000000000016298000000000016091      
RGRST980627671242  0160000000000232334911305222     00000000278191000000000000000053KVHX00000100000000000000000000000000000000000000000000      
RGRST980627671242  0140000000000232334911101016     00000000001514000000000000000058KW  00000100000000000000000000000015481000000000015268      
RGRST980627671242  0090000000000232334910605030     00000000202657000000000000000068KWH 00000100000000000000000000002071344000000002043360      
RGRST980627671242  0050000000000232334910203096     00000000009800000000000000000080   X00000100000000000000000000000000000000000000000000      
RGRST980627671242  0060000000000232334910305111     00000000630203000000000000000062KWHX00000100000000000000000000000000000000000000000000      
RGRST980627671242  0020000000000232334809906090_2D  00000029052000000000000000000060   X00000100000000000000000000000000000000000000000000      
RGRST980627671242  0080000000000232334910505020     00000000185822000000000000000068KWH 00000100000000000000000000001901276000000001874366      
RGRST980627671242  0070000000000232334910405010     00000000241724000000000000000068KWH 00000100000000000000000000002465997000000002435524      
RGRST980627671242  0130000000000232334911001015     00000000001633200000000000000058KW  00000100000000000000000000000016641000000000016448      
RGRST980627671242  0030000000000232334810006091_T   00000000035800000000000000000060   X00000100000000000000000000000000000000000000000000      
RGRST980627671242  0120000000000232334910902070     00000000000018000000000000000053KW X00000100000000000000000000000000000000000000000000      
RGRST980627671242  0010000000000232334809806888     00000000000000000000000000000010   X00000100000000000000000000000000000000000000000000      
CGRST980627674213  020001086219AMR     EDMI MK10E          0000300000355/1123000000000000000000000                                       0023000708101915002300    
RGRST980627674213  0010000000000232335311106888     00000000000000000000000000000010   X00000100000000000000000000000000000000000000000000      
RGRST980627674213  0030000000000232335311306091_T   00000000040000000000000000000060   X00000100000000000000000000000000000000000000000000      
RGRST980627674213  0020000000000232335311206090_2D  00000029052000000000000000000060   X00000100000000000000000000000000000000000000000000      
RGRST980627674213  0180000000000232335312801118     00000000001972400000000000000058KVR 00000100000000000000000000000020246000000000019919      
RGRST980627674213  0070000000000232335311705010     00000000881906000000000000000068KWH 00000100000000000000000000009028653000000008897657      
RGRST980627674213  0100000000000232335312002050     00000000000058000000000000000053KW X00000100000000000000000000000000000000000000000000      
RGRST980627674213  0150000000000232335312501017     00000000005027600000000000000058KW  00000100000000000000000000000051404000000000050699      
RGRST980627674213  0090000000000232335311905030     00000000748182000000000000000068KWH 00000100000000000000000000007670859000000007552709      
RGRST980627674213  0130000000000232335312301015     00000000005056000000000000000058KW  00000100000000000000000000000051682000000000050980      
RGRST980627674213  0050000000000232335311503096     00000000009700000000000000000080   X00000100000000000000000000000000000000000000000000      
RGRST980627674213  0160000000000232335312605222     00000000473346000000000000000053KVHX00000100000000000000000000000000000000000000000000      
RGRST980627674213  0170000000000232335312702280     00000000000028800000000000000053KVRX00000100000000000000000000000000000000000000000000      
RGRST980627674213  0110000000000232335312102060     00000000000056000000000000000053KW X00000100000000000000000000000000000000000000000000      
RGRST980627674213  0140000000000232335312401016     00000000004694400000000000000058KW  00000100000000000000000000000048048000000000047358      
RGRST980627674213  0060000000000232335311605111     00000002332703000000000000000062KWHX00000100000000000000000000000000000000000000000000      
RGRST980627674213  0040000000000232335311406095_1   00000000000000000000000000000020   X00000100000000000000000000000000000000000000000000      
RGRST980627674213  0120000000000232335312202070     00000000000058800000000000000053KW X00000100000000000000000000000000000000000000000000      
RGRST980627674213  0080000000000232335311805020     00000000702615000000000000000068KWH 00000100000000000000000000007197425000000007090378      
CGRST980623066276  020001086208AMR     EDMI MK6            000050000015/31   000000000000000000000                                       0006000708101915000600    
RGRST980623066276  0060000000000232330441305111     00000008740619000000000000000003KWHX00000100000000000000000000000000000000000000000000      
RGRST980623066276  0080000000000232330441505020     00000002761063000000000000000008KWH 00000100000000000000000000027918292000000027726003      
RGRST980623066276  0120000000000232330441902070     00000000000090500000000000000003KW X00000100000000000000000000000000000000000000000000      
RGRST980623066276  0100000000000232330441702050     00000000000089900000000000000003KW X00000100000000000000000000000000000000000000000000      
RGRST980623066276  0110000000000232330441802060     00000000000088400000000000000003KW X00000100000000000000000000000000000000000000000000      
RGRST980623066276  0010000000000232330440806888     00000000000000000000000000000010   X00000100000000000000000000000000000000000000000000      
RGRST980623066276  0130000000000232330442001015     00000000017888200000000000000008KW  00000100000000000000000000000180732000000000179575      
RGRST980623066276  0180000000000232330442501118     00000000012898500000000000000008KVR 00000100000000000000000000000129813000000000129295      
RGRST980623066276  0150000000000232330442201017     00000000017459900000000000000008KW  00000100000000000000000000000176429000000000175285      
RGRST980623066276  0090000000000232330441605030     00000002817915000000000000000008KWH 00000100000000000000000000028519869000000028306919      
RGRST980623066276  0070000000000232330441405010     00000003161641000000000000000008KWH 00000100000000000000000000032005205000000031762208      
RGRST980623066276  0030000000000232330441006091_T   00000000035900000000000000000040   X00000100000000000000000000000000000000000000000000      
RGRST980623066276  0050000000000232330441203096     00000000015100000000000000000060   X00000100000000000000000000000000000000000000000000      
RGRST980623066276  0140000000000232330442101016     00000000016844400000000000000008KW  00000100000000000000000000000170262000000000169125      
RGRST980623066276  0040000000000232330441106095_1   00000000000000000000000000000000   X00000100000000000000000000000000000000000000000000      
RGRST980623066276  0170000000000232330442402280     00000000000043100000000000000003KVRX00000100000000000000000000000000000000000000000000      
RGRST980623066276  0160000000000232330442305222     00000005377835000000000000000003KVHX00000100000000000000000000000000000000000000000000      
RGRST980623066276  0020000000000232330440906090_2D  00000029052000000000000000000060   X00000100000000000000000000000000000000000000000000      
CGRST980627674209  020001086210AMR     EDMI MK10E          00003000001/816   000000000000000000000                                       0012010708101915001201    
RGRST980627674209  0140000000000232333945301016     00000000004623200000000000000058KW  00000100000000000000000000000047477000000000046699      
RGRST980627674209  0160000000000232333945505222     00000000315909000000000000000053KVHX00000100000000000000000000000000000000000000000000      
RGRST980627674209  0090000000000232333944805030     00000000054304000000000000000068KWH 00000100000000000000000000000560352000000000549532      
RGRST980627674209  0050000000000232333944403096     00000000009700000000000000000080   X00000100000000000000000000000000000000000000000000      
RGRST980627674209  0070000000000232333944605010     00000000564134000000000000000068KWH 00000100000000000000000000005807520000000005703657      
RGRST980627674209  0080000000000232333944705020     00000000116020000000000000000068KWH 00000100000000000000000000001198538000000001174577      
RGRST980627674209  0100000000000232333944902050     00000000000067600000000000000053KW X00000100000000000000000000000000000000000000000000      
RGRST980627674209  0180000000000232333945701118     00000000002449200000000000000058KVR 00000100000000000000000000000024993000000000024680      
RGRST980627674209  0150000000000232333945401017     00000000002259600000000000000058KW  00000100000000000000000000000023593000000000022970      
RGRST980627674209  0010000000000232333944006888     00000000000000000000000000000010   X00000100000000000000000000000000000000000000000000      
RGRST980627674209  0060000000000232333944505111     00000000734458000000000000000062KWHX00000100000000000000000000000000000000000000000000      
RGRST980627674209  0130000000000232333945201015     00000000005116800000000000000058KW  00000100000000000000000000000052472000000000051657      
RGRST980627674209  0120000000000232333945102070     00000000000063200000000000000053KW X00000100000000000000000000000000000000000000000000      
RGRST980627674209  0170000000000232333945602280     00000000000026000000000000000053KVRX00000100000000000000000000000000000000000000000000      
RGRST980627674209  0030000000000232333944206091_T   00000000040200000000000000000060   X00000100000000000000000000000000000000000000000000      
RGRST980627674209  0110000000000232333945002060     00000000000066800000000000000053KW X00000100000000000000000000000000000000000000000000      
RGRST980627674209  0040000000000232333944306095_1   00000000000000000000000000000020   X00000100000000000000000000000000000000000000000000      
RGRST980627674209  0020000000000232333944106090_2D  00000029052000000000000000000060   X00000100000000000000000000000000000000000000000000      
CGRST980623064522  020001086209AMR     EDMI MK6            00008000001/814   000000000000000000000                                       0012000708101915001200    
RGRST980623064522  0080000000000232331096305020     00000000423826000000000000000008KWH 00000100000000000000000000004305040000000004263302      
RGRST980623064522  0070000000000232331096205010     00000002144396000000000000000008KWH 00000100000000000000000000021752859000000021559797      
RGRST980623064522  0120000000000232331096702070     00000000000094500000000000000003KW X00000100000000000000000000000000000000000000000000      
RGRST980623064522  0170000000000232331097202280     00000000000042700000000000000003KVRX00000100000000000000000000000000000000000000000000      
RGRST980623064522  0030000000000232331095806091_T   00000000040300000000000000000040   X00000100000000000000000000000000000000000000000000      
RGRST980623064522  0180000000000232331097301118     00000000010398800000000000000008KVR 00000100000000000000000000000104823000000000104301      
RGRST980623064522  0090000000000232331096405030     00000000245514000000000000000008KWH 00000100000000000000000000002483976000000002465953      
RGRST980623064522  0040000000000232331095906095_1   00000000000000000000000000000000   X00000100000000000000000000000000000000000000000000      
RGRST980623064522  0060000000000232331096105111     00000002813736000000000000000003KWHX00000100000000000000000000000000000000000000000000      
RGRST980623064522  0130000000000232331096801015     00000000016871800000000000000008KW  00000100000000000000000000000171138000000000169625      
RGRST980623064522  0160000000000232331097105222     00000001712229000000000000000003KVHX00000100000000000000000000000000000000000000000000      
RGRST980623064522  0100000000000232331096502050     00000000000121200000000000000003KW X00000100000000000000000000000000000000000000000000      
RGRST980623064522  0140000000000232331096901016     00000000015159500000000000000008KW  00000100000000000000000000000153712000000000152389      
RGRST980623064522  0020000000000232331095706090_2D  00000029052000000000000000000060   X00000100000000000000000000000000000000000000000000      
RGRST980623064522  0110000000000232331096602060     00000000000106800000000000000003KW X00000100000000000000000000000000000000000000000000      
RGRST980623064522  0010000000000232331095606888     00000000000000000000000000000010   X00000100000000000000000000000000000000000000000000      
RGRST980623064522  0050000000000232331096003096     00000000014900000000000000000060   X00000100000000000000000000000000000000000000000000      
RGRST980623064522  0150000000000232331097001017     00000000006592200000000000000008KW  00000100000000000000000000000067487000000000066509      
CGRST980627674210  020001086211AMR     EDMI MK10E          000050000014/23   000000000000000000000                                       0012100708101915001210    
RGRST980627674210  0130000000000232328876801015     00000000001126000000000000000058KW  00000100000000000000000000000011382000000000011305      
RGRST980627674210  0140000000000232328876901016     00000000000974800000000000000058KW  00000100000000000000000000000009913000000000009810      
RGRST980627674210  0010000000000232328875606888     00000000000000000000000000000010   X00000100000000000000000000000000000000000000000000      
RGRST980627674210  0050000000000232328876003096     00000000009700000000000000000080   X00000100000000000000000000000000000000000000000000      
RGRST980627674210  0030000000000232328875806091_T   00000000040300000000000000000060   X00000100000000000000000000000000000000000000000000      
RGRST980627674210  0180000000000232328877301118     00000000001157600000000000000058KVR 00000100000000000000000000000011752000000000011642      
RGRST980627674210  0150000000000232328877001017     00000000001164400000000000000058KW  00000100000000000000000000000011825000000000011712      
RGRST980627674210  0020000000000232328875706090_2D  00000029052000000000000000000060   X00000100000000000000000000000000000000000000000000      
RGRST980627674210  0090000000000232328876405030     00000000042745000000000000000068KWH 00000100000000000000000000000433575000000000429747      
RGRST980627674210  0170000000000232328877202280     00000000000012000000000000000053KVRX00000100000000000000000000000000000000000000000000      
RGRST980627674210  0160000000000232328877105222     00000000135385000000000000000053KVHX00000100000000000000000000000000000000000000000000      
RGRST980627674210  0100000000000232328876502050     00000000000003600000000000000053KW X00000100000000000000000000000000000000000000000000      
RGRST980627674210  0110000000000232328876602060     00000000000014000000000000000053KW X00000100000000000000000000000000000000000000000000      
RGRST980627674210  0060000000000232328876105111     00000000122321000000000000000062KWHX00000100000000000000000000000000000000000000000000      
RGRST980627674210  0080000000000232328876305020     00000000040578000000000000000068KWH 00000100000000000000000000000412579000000000408329      
RGRST980627674210  0040000000000232328875906095_1   00000000000000000000000000000020   X00000100000000000000000000000000000000000000000000      
RGRST980627674210  0120000000000232328876702070     00000000000014000000000000000053KW X00000100000000000000000000000000000000000000000000      
RGRST980627674210  0070000000000232328876205010     00000000038998000000000000000068KWH 00000100000000000000000000000394859000000000391809      
HGRST98070019000000000000000000000000000000000000002020062895501AR6     
CGRST980723066531  020001095908AMR     EDMI MK6            0000500000520     000000000000000000000                                       0036500708101916003650    
RGRST980723066531  0180000000000232343211301118     00000000013999400000000000000008KVR 00000100000000000000000000000141126000000000140418      
RGRST980723066531  0160000000000232343211105222     00000000810793000000000000000003KVHX00000100000000000000000000000000000000000000000000      
RGRST980723066531  0020000000000232343109706090_2D  00000029052000000000000000000060   X00000100000000000000000000000000000000000000000000      
RGRST980723066531  0110000000000232343210602060     00000000000067100000000000000003KW X00000100000000000000000000000000000000000000000000      
RGRST980723066531  0150000000000232343211001017     00000000012832600000000000000008KW  00000100000000000000000000000129388000000000128724      
RGRST980723066531  0100000000000232343210502050     00000000000119600000000000000003KW X00000100000000000000000000000000000000000000000000      
RGRST980723066531  0050000000000232343110003096     00000000013200000000000000000060   X00000100000000000000000000000000000000000000000000      
RGRST980723066531  0090000000000232343210405030     00000000217193000000000000000008KWH 00000100000000000000000000002186887000000002177539      
RGRST980723066531  0080000000000232343210305020     00000000502580000000000000000008KWH 00000100000000000000000000005063902000000005040088      
RGRST980723066531  0070000000000232343210205010     00000002595412000000000000000008KWH 00000100000000000000000000026095220000000026007032      
RGRST980723066531  0130000000000232343210801015     00000000030797900000000000000008KW  00000100000000000000000000000310641000000000308977      
RGRST980723066531  0010000000000232343109606888     00000000000000000000000000000010   X00000100000000000000000000000000000000000000000000      
RGRST980723066531  0120000000000232343210702070     00000000000077500000000000000003KW X00000100000000000000000000000000000000000000000000      
RGRST980723066531  0140000000000232343210901016     00000000030261300000000000000008KW  00000100000000000000000000000304814000000000303438      
RGRST980723066531  0030000000000232343109806091_T   00000000040000000000000000000040   X00000100000000000000000000000000000000000000000000      
RGRST980723066531  0170000000000232343211202280     00000000000039000000000000000003KVRX00000100000000000000000000000000000000000000000000      
RGRST980723066531  0060000000000232343210105111     00000003315185000000000000000003KWHX00000100000000000000000000000000000000000000000000      
RGRST980723066531  0040000000000232343109906095_1   00000000000000000000000000000000   X00000100000000000000000000000000000000000000000000      
CGRST980727671243  020001086235AMR     EDMI MK10E          0000800000315/133 000000000000000000000                                       0036000708101916003600    
RGRST980727671243  0120000000000232342769102070     00000000000019200000000000000053KW X00000100000000000000000000000000000000000000000000      
RGRST980727671243  0040000000000232342768306095_1   00000000000000000000000000000020   X00000100000000000000000000000000000000000000000000      
RGRST980727671243  0170000000000232342769602280     00000000000010000000000000000053KVRX00000100000000000000000000000000000000000000000000      
RGRST980727671243  0140000000000232342769301016     00000000001416800000000000000058KW  00000100000000000000000000000014488000000000014288      
RGRST980727671243  0160000000000232342769505222     00000000401069000000000000000053KVHX00000100000000000000000000000000000000000000000000      
RGRST980727671243  0100000000000232342768902050     00000000000017200000000000000053KW X00000100000000000000000000000000000000000000000000      
RGRST980727671243  0080000000000232342768705020     00000000180354000000000000000068KWH 00000100000000000000000000001847317000000001819956      
RGRST980727671243  0070000000000232342768605010     00000000220506000000000000000068KWH 00000100000000000000000000002255704000000002224051      
RGRST980727671243  0050000000000232342768403096     00000000009900000000000000000080   X00000100000000000000000000000000000000000000000000      
RGRST980727671243  0010000000000232342768006888     00000000000000000000000000000010   X00000100000000000000000000000000000000000000000000      
RGRST980727671243  0130000000000232342769201015     00000000001586800000000000000058KW  00000100000000000000000000000016201000000000015993      
RGRST980727671243  0150000000000232342769401017     00000000001459600000000000000058KW  00000100000000000000000000000014934000000000014722      
RGRST980727671243  0030000000000232342768206091_T   00000000040000000000000000000060   X00000100000000000000000000000000000000000000000000      
RGRST980727671243  0090000000000232342768805030     00000000178934000000000000000068KWH 00000100000000000000000000001833151000000001805769      
RGRST980727671243  0020000000000232342768106090_2D  00000029052000000000000000000060   X00000100000000000000000000000000000000000000000000      
RGRST980727671243  0060000000000232342768505111     00000000579794000000000000000062KWHX00000100000000000000000000000000000000000000000000      
RGRST980727671243  0180000000000232342769701118     00000000001131200000000000000058KVR 00000100000000000000000000000011509000000000011386      
RGRST980727671243  0110000000000232342769002060     00000000000016400000000000000053KW X00000100000000000000000000000000000000000000000000      
CGRST980727672613  020001086236AMR     EDMI MK10E          0000300000265/68-6000000000000000000000                                       0039000708101916003900    
RGRST980727672613  0160000000000232343647205222     00000000814809000000000000000053KVHX00000100000000000000000000000000000000000000000000      
RGRST980727672613  0090000000000232343646505030     00000000583809000000000000000068KWH 00000100000000000000000000006154943000000005956909      
RGRST980727672613  0040000000000232343646006095_1   00000000000000000000000000000020   X00000100000000000000000000000000000000000000000000      
RGRST980727672613  0150000000000232343647101017     00000000007320800000000000000058KW  00000100000000000000000000000076458000000000074426      
RGRST980727672613  0070000000000232343646305010     00000000589351000000000000000068KWH 00000100000000000000000000006188785000000006004238      
RGRST980727672613  0110000000000232343646702060     00000000000187600000000000000053KW X00000100000000000000000000000000000000000000000000      
RGRST980727672613  0080000000000232343646405020     00000000659005000000000000000068KWH 00000100000000000000000000006928521000000006716976      
RGRST980727672613  0020000000000232343645806090_2D  00000029052000000000000000000060   X00000100000000000000000000000000000000000000000000      
RGRST980727672613  0120000000000232343646802070     00000000000168000000000000000053KW X00000100000000000000000000000000000000000000000000      
RGRST980727672613  0100000000000232343646602050     00000000000158400000000000000053KW X00000100000000000000000000000000000000000000000000      
RGRST980727672613  0180000000000232343647401118     00000000003324400000000000000058KVR 00000100000000000000000000000034126000000000033574      
RGRST980727672613  0140000000000232343647001016     00000000007222400000000000000058KW  00000100000000000000000000000075684000000000073521      
RGRST980727672613  0170000000000232343647302280     00000000000046400000000000000053KVRX00000100000000000000000000000000000000000000000000      
RGRST980727672613  0050000000000232343646103096     00000000009600000000000000000080   X00000100000000000000000000000000000000000000000000      
RGRST980727672613  0030000000000232343645906091_T   00000000035900000000000000000060   X00000100000000000000000000000000000000000000000000      
RGRST980727672613  0060000000000232343646205111     00000001832165000000000000000062KWHX00000100000000000000000000000000000000000000000000      
RGRST980727672613  0130000000000232343646901015     00000000006993200000000000000058KW  00000100000000000000000000000072801000000000071008      
RGRST980727672613  0010000000000232343645706888     00000000000000000000000000000010   X00000100000000000000000000000000000000000000000000      
CGRST980727672611  020001086233AMR     EDMI MK10E          0000300000512/769 000000000000000000000                                       0031000708101916003100    
RGRST980727672611  0040000000000232342491906095_1   00000000000000000000000000000020   X00000100000000000000000000000000000000000000000000      
RGRST980727672611  0150000000000232342493001017     00000000004244400000000000000058KW  00000100000000000000000000000043569000000000042866      
RGRST980727672611  0060000000000232342492105111     00000001595048000000000000000062KWHX00000100000000000000000000000000000000000000000000      
RGRST980727672611  0120000000000232342492702070     00000000000058400000000000000053KW X00000100000000000000000000000000000000000000000000      
RGRST980727672611  0180000000000232342493301118     00000000001732400000000000000058KVR 00000100000000000000000000000017646000000000017444      
RGRST980727672611  0010000000000232342491606888     00000000000000000000000000000010   X00000100000000000000000000000000000000000000000000      
RGRST980727672611  0160000000000232342493105222     00000000512383000000000000000053KVHX00000100000000000000000000000000000000000000000000      
RGRST980727672611  0030000000000232342491806091_T   00000000040100000000000000000060   X00000100000000000000000000000000000000000000000000      
RGRST980727672611  0050000000000232342492003096     00000000009600000000000000000080   X00000100000000000000000000000000000000000000000000      
RGRST980727672611  0140000000000232342492901016     00000000004383600000000000000058KW  00000100000000000000000000000044926000000000044244      
RGRST980727672611  0110000000000232342492602060     00000000000062000000000000000053KW X00000100000000000000000000000000000000000000000000      
RGRST980727672611  0130000000000232342492801015     00000000004185600000000000000058KW  00000100000000000000000000000042965000000000042272      
RGRST980727672611  0080000000000232342492305020     00000000565313000000000000000068KWH 00000100000000000000000000005809262000000005711679      
RGRST980727672611  0020000000000232342491706090_2D  00000029052000000000000000000060   X00000100000000000000000000000000000000000000000000      
RGRST980727672611  0070000000000232342492205010     00000000517470000000000000000068KWH 00000100000000000000000000005338218000000005236019      
RGRST980727672611  0170000000000232342493202280     00000000000017200000000000000053KVRX00000100000000000000000000000000000000000000000000      
RGRST980727672611  0090000000000232342492405030     00000000512265000000000000000068KWH 00000100000000000000000000005275635000000005180019      
RGRST980727672611  0100000000000232342492502050     00000000000058800000000000000053KW X00000100000000000000000000000000000000000000000000      
CGRST980727672610  020001086232AMR     EDMI MK10E          0000500000318/12  000000000000000000000                                       0029000708101916002900    
RGRST980727672610  0170000000000232342169702280     00000000000009600000000000000053KVRX00000100000000000000000000000000000000000000000000      
RGRST980727672610  0080000000000232342168805020     00000000167299000000000000000068KWH 00000100000000000000000000001704933000000001684968      
RGRST980727672610  0150000000000232342169501017     00000000001338000000000000000058KW  00000100000000000000000000000013614000000000013467      
RGRST980727672610  0140000000000232342169401016     00000000001312800000000000000058KW  00000100000000000000000000000013373000000000013220      
RGRST980727672610  0030000000000232342168306091_T   00000000040300000000000000000060   X00000100000000000000000000000000000000000000000000      
RGRST980727672610  0110000000000232342169102060     00000000000011600000000000000053KW X00000100000000000000000000000000000000000000000000      
RGRST980727672610  0060000000000232342168605111     00000000472443000000000000000062KWHX00000100000000000000000000000000000000000000000000      
RGRST980727672610  0050000000000232342168503096     00000000009700000000000000000080   X00000100000000000000000000000000000000000000000000      
RGRST980727672610  0120000000000232342169202070     00000000000012000000000000000053KW X00000100000000000000000000000000000000000000000000      
RGRST980727672610  0180000000000232342169801118     00000000001264400000000000000058KVR 00000100000000000000000000000012838000000000012716      
RGRST980727672610  0130000000000232342169301015     00000000001363200000000000000058KW  00000100000000000000000000000013881000000000013725      
RGRST980727672610  0070000000000232342168705010     00000000154518000000000000000068KWH 00000100000000000000000000001570316000000001554606      
RGRST980727672610  0160000000000232342169605222     00000000409167000000000000000053KVHX00000100000000000000000000000000000000000000000000      
RGRST980727672610  0010000000000232342168106888     00000000000000000000000000000010   X00000100000000000000000000000000000000000000000000      
RGRST980727672610  0020000000000232342168206090_2D  00000029052000000000000000000060   X00000100000000000000000000000000000000000000000000      
RGRST980727672610  0100000000000232342169002050     00000000000012000000000000000053KW X00000100000000000000000000000000000000000000000000      
RGRST980727672610  0040000000000232342168406095_1   00000000000000000000000000000020   X00000100000000000000000000000000000000000000000000      
RGRST980727672610  0090000000000232342168905030     00000000150626000000000000000068KWH 00000100000000000000000000001535022000000001517045      
CGRST980723048642  020001086222AMR     EDMI MK6            0008000000147     000000000000000000000                                       0008000708101916000800    
RGRST980723048642  0060000000000232338611105111     00000000705985000000000000000003KWHX00000100000000000000000000000000000000000000000000      
RGRST980723048642  0010000000000232338610606888     00000000000000000000000000000010   X00000100000000000000000000000000000000000000000000      
RGRST980723048642  0170000000000232338612202280     00000000000013300000000000000003KVRX00000100000000000000000000000000000000000000000000      
RGRST980723048642  0180000000000232338612301118     00000000002373900000000000000008KVR 00000100000000000000000000000024001000000000023837      
RGRST980723048642  0130000000000232338611801015     00000000002993500000000000000008KW  00000100000000000000000000000030282000000000030065      
RGRST980723048642  0020000000000232338610706090_2D  00000029052000000000000000000060   X00000100000000000000000000000000000000000000000000      
RGRST980723048642  0140000000000232338611901016     00000000002830000000000000000008KW  00000100000000000000000000000028621000000000028420      
RGRST980723048642  0160000000000232338612105222     00000000558801000000000000000003KVHX00000100000000000000000000000000000000000000000000      
RGRST980723048642  0110000000000232338611602060     00000000000016300000000000000003KW X00000100000000000000000000000000000000000000000000      
RGRST980723048642  0120000000000232338611702070     00000000000007800000000000000003KW X00000100000000000000000000000000000000000000000000      
RGRST980723048642  0070000000000232338611205010     00000000443670000000000000000008KWH 00000100000000000000000000004490404000000004456839      
RGRST980723048642  0050000000000232338611003096     00000000015300000000000000000060   X00000100000000000000000000000000000000000000000000      
RGRST980723048642  0030000000000232338610806091_T   00000000040100000000000000000040   X00000100000000000000000000000000000000000000000000      
RGRST980723048642  0090000000000232338611405030     00000000123512000000000000000008KWH 00000100000000000000000000001251846000000001241392      
RGRST980723048642  0100000000000232338611502050     00000000000017600000000000000003KW X00000100000000000000000000000000000000000000000000      
RGRST980723048642  0080000000000232338611305020     00000000138803000000000000000008KWH 00000100000000000000000000001406562000000001394979      
RGRST980723048642  0150000000000232338612001017     00000000001632800000000000000008KW  00000100000000000000000000000016539000000000016407      
RGRST980723048642  0040000000000232338610906095_1   00000000000000000000000000000000   X00000100000000000000000000000000000000000000000000      
CGRST980723066409  020001086225AMR     EDMI MK6            000030000055/111-1000000000000000000000                                       0011000708101916001100    
RGRST980723066409  0140000000000232339143301016     00000000014631500000000000000008KW  00000100000000000000000000000148616000000000147178      
RGRST980723066409  0040000000000232339142306095_1   00000000000000000000000000000000   X00000100000000000000000000000000000000000000000000      
RGRST980723066409  0120000000000232339143102070     00000000000139800000000000000003KW X00000100000000000000000000000000000000000000000000      
RGRST980723066409  0080000000000232339142705020     00000002299252000000000000000008KWH 00000100000000000000000000023308534000000023111025      
RGRST980723066409  0090000000000232339142805030     00000002705579000000000000000008KWH 00000100000000000000000000027471750000000027211775      
RGRST980723066409  0050000000000232339142403096     00000000015000000000000000000060   X00000100000000000000000000000000000000000000000000      
RGRST980723066409  0180000000000232339143701118     00000000003800100000000000000008KVR 00000100000000000000000000000039013000000000038380      
RGRST980723066409  0060000000000232339142505111     00000008492174000000000000000003KWHX00000100000000000000000000000000000000000000000000      
RGRST980723066409  0160000000000232339143505222     00000001535842000000000000000003KVHX00000100000000000000000000000000000000000000000000      
RGRST980723066409  0130000000000232339143201015     00000000018493500000000000000008KW  00000100000000000000000000000187820000000000186017      
RGRST980723066409  0170000000000232339143602280     00000000000050600000000000000003KVRX00000100000000000000000000000000000000000000000000      
RGRST980723066409  0010000000000232339142006888     00000000000000000000000000000010   X00000100000000000000000000000000000000000000000000      
RGRST980723066409  0020000000000232339142106090_2D  00000029052000000000000000000060   X00000100000000000000000000000000000000000000000000      
RGRST980723066409  0030000000000232339142206091_T   00000000035800000000000000000040   X00000100000000000000000000000000000000000000000000      
RGRST980723066409  0150000000000232339143401017     00000000017602300000000000000008KW  00000100000000000000000000000178733000000000177039      
RGRST980723066409  0070000000000232339142605010     00000003487343000000000000000008KWH 00000100000000000000000000035419383000000035078162      
