HGRST98000006000000000000000000000000000000000000002020062895501AR6     
CGRST980027710591  020001369968AMR     EDMI MK10E          0000500000        000000000000000000000                                       8880050708101557888005    
RGRST980027710591  0180000000000232294628101118     00000000001258400000000000000058KVR 00000100000000000000000000000013048000000000012758      
RGRST980027710591  0020000000000232294626506090_2D  00000029052000000000000000000060   X00000100000000000000000000000000000000000000000000      
RGRST980027710591  0040000000000232294626706095_1   00000000000000000000000000000020   X00000100000000000000000000000000000000000000000000      
RGRST980027710591  0140000000000232294627701016     00000000001041600000000000000058KW  00000100000000000000000000000010856000000000010581      
RGRST980027710591  0050000000000232294626803096     00000000006900000000000000000080   X00000100000000000000000000000000000000000000000000      
RGRST980027710591  0120000000000232294627502070     00000000000022400000000000000053KW X00000100000000000000000000000000000000000000000000      
RGRST980027710591  0150000000000232294627801017     00000000001168400000000000000058KW  00000100000000000000000000000012166000000000011864      
RGRST980027710591  0130000000000232294627601015     00000000001238400000000000000058KW  00000100000000000000000000000012904000000000012579      
RGRST980027710591  0110000000000232294627402060     00000000000022000000000000000053KW X00000100000000000000000000000000000000000000000000      
RGRST980027710591  0080000000000232294627105020     00000000083996000000000000000068KWH 00000100000000000000000000000884600000000000856700      
RGRST980027710591  0010000000000232294626406888     00000000000000000000000000000010   X00000100000000000000000000000000000000000000000000      
RGRST980027710591  0030000000000232294626606091_T   00000000040200000000000000000060   X00000100000000000000000000000000000000000000000000      
RGRST980027710591  0060000000000232294626905111     00000000317999000000000000000062KWHX00000100000000000000000000000000000000000000000000      
RGRST980027710591  0070000000000232294627005010     00000000136356000000000000000068KWH 00000100000000000000000000001431800000000001389150      
RGRST980027710591  0170000000000232294628002280     00000000000020800000000000000053KVRX00000100000000000000000000000000000000000000000000      
RGRST980027710591  0100000000000232294627302050     00000000000028400000000000000053KW X00000100000000000000000000000000000000000000000000      
RGRST980027710591  0090000000000232294627205030     00000000097647000000000000000068KWH 00000100000000000000000000001029978000000000996535      
RGRST980027710591  0160000000000232294627905222     00000000154637000000000000000053KVHX00000100000000000000000000000000000000000000000000      