HGRST98000006000000000000000000000000000000000000002020062895501AR6     
CGRST980027710591  020001369968AMR     EDMI MK10E          0000500000        000000000000000000000                                       8880050708101557888005    
RGRST980027710591  0180000000000232294628101118     00000000001258400000000000000058KVR 00000100000000000000000000000013048000000000012758      
RGRST980027710591  0020000000000232294626506090_2D  00000029052000000000000000000060   X00000100000000000000000000000000000000000000000000      
RGRST980027710591  0040000000000232294626706095_1   00000000000000000000000000000020   X00000100000000000000000000000000000000000000000000      
RGRST980027710591  0140000000000232294627701016     00000000001041600000000000000058KW  00000100000000000000000000000010856000000000010581      
RGRST980027710591  0050000000000232294626803096     00000000006900000000000000000080   X00000100000000000000000000000000000000000000000000      
RGRST980027710591  0120000000000232294627502070     00000000000022400000000000000053KW X00000100000000000000000000000000000000000000000000      
RGRST980027710591  0150000000000232294627801017     00000000001168400000000000000058KW  00000100000000000000000000000012166000000000011864      
RGRST980027710591  0130000000000232294627601015     00000000001238400000000000000058KW  00000100000000000000000000000012904000000000012579      
RGRST980027710591  0110000000000232294627402060     00000000000022000000000000000053KW X00000100000000000000000000000000000000000000000000      
RGRST980027710591  0080000000000232294627105020     00000000083996000000000000000068KWH 00000100000000000000000000000884600000000000856700      
RGRST980027710591  0010000000000232294626406888     00000000000000000000000000000010   X00000100000000000000000000000000000000000000000000      
RGRST980027710591  0030000000000232294626606091_T   00000000040200000000000000000060   X00000100000000000000000000000000000000000000000000      
RGRST980027710591  0060000000000232294626905111     00000000317999000000000000000062KWHX00000100000000000000000000000000000000000000000000      
RGRST980027710591  0070000000000232294627005010     00000000136356000000000000000068KWH 00000100000000000000000000001431800000000001389150      
RGRST980027710591  0170000000000232294628002280     00000000000020800000000000000053KVRX00000100000000000000000000000000000000000000000000      
RGRST980027710591  0100000000000232294627302050     00000000000028400000000000000053KW X00000100000000000000000000000000000000000000000000      
RGRST980027710591  0090000000000232294627205030     00000000097647000000000000000068KWH 00000100000000000000000000001029978000000000996535      
RGRST980027710591  0160000000000232294627905222     00000000154637000000000000000053KVHX00000100000000000000000000000000000000000000000000      
CGRST980027710604  020017407392AMR     EDMI MK10E          0000500000        000000000000000000000                                       8880450708101341888045    
RGRST980027710604  0160000000000232295126805222     00000000590147000000000000000053KVHX00000100000000000000000000000000000000000000000000      
RGRST980027710604  0170000000000232295126902280     00000000000022800000000000000053KVRX00000100000000000000000000000000000000000000000000      
RGRST980027710604  0030000000000232295125506091_T   00000000035700000000000000000060   X00000100000000000000000000000000000000000000000000      
RGRST980027710604  0180000000000232295127001118     00000000001840000000000000000058KVR 00000100000000000000000000000018840000000000018565      
RGRST980027710604  0060000000000232295125805111     00000001679177000000000000000062KWHX00000100000000000000000000000000000000000000000000      
RGRST980027710604  0090000000000232295126105030     00000000522304000000000000000068KWH 00000100000000000000000000005407712000000005292292      
RGRST980027710604  0050000000000232295125703096     00000000006900000000000000000080   X00000100000000000000000000000000000000000000000000      
RGRST980027710604  0080000000000232295126005020     00000000332648000000000000000068KWH 00000100000000000000000000003431111000000003365716      
RGRST980027710604  0070000000000232295125905010     00000000824225000000000000000068KWH 00000100000000000000000000008517523000000008345477      
RGRST980027710604  0140000000000232295126601016     00000000003100000000000000000058KW  00000100000000000000000000000032021000000000031383      
RGRST980027710604  0110000000000232295126302060     00000000000052400000000000000053KW X00000100000000000000000000000000000000000000000000      
RGRST980027710604  0150000000000232295126701017     00000000005380000000000000000058KW  00000100000000000000000000000055440000000000054415      
RGRST980027710604  0100000000000232295126202050     00000000000094800000000000000053KW X00000100000000000000000000000000000000000000000000      
RGRST980027710604  0120000000000232295126402070     00000000000081600000000000000053KW X00000100000000000000000000000000000000000000000000      
RGRST980027710604  0020000000000232295125406090_2D  00000029052000000000000000000060   X00000100000000000000000000000000000000000000000000      
RGRST980027710604  0040000000000232295125606095_1   00000000000000000000000000000020   X00000100000000000000000000000000000000000000000000      
RGRST980027710604  0010000000000232295125306888     00000000000000000000000000000010   X00000100000000000000000000000000000000000000000000      
RGRST980027710604  0130000000000232295126501015     00000000005701200000000000000058KW  00000100000000000000000000000058817000000000057689      
CGRST980027710314  020003615614AMR     EDMI MK10E          0000300000        000000000000000000000                                       8880010708101322888001    
RGRST980027710314  0070000000000232294131805010     00000000251439000000000000000068KWH 00000100000000000000000000002529937000000002520220      
RGRST980027710314  0130000000000232294132401015     00000000003403600000000000000058KW  00000100000000000000000000000034340000000000034150      
RGRST980027710314  0150000000000232294132601017     00000000003268000000000000000058KW  00000100000000000000000000000033029000000000032811      
RGRST980027710314  0060000000000232294131705111     00000000658072000000000000000062KWHX00000100000000000000000000000000000000000000000000      
RGRST980027710314  0160000000000232294132705222     00000000195433000000000000000053KVHX00000100000000000000000000000000000000000000000000      
RGRST980027710314  0110000000000232294132202060     00000000000017600000000000000053KW X00000100000000000000000000000000000000000000000000      
RGRST980027710314  0120000000000232294132302070     00000000000019600000000000000053KW X00000100000000000000000000000000000000000000000000      
RGRST980027710314  0020000000000232294131306090_2D  00000029052000000000000000000060   X00000100000000000000000000000000000000000000000000      
RGRST980027710314  0100000000000232294132102050     00000000000016400000000000000053KW X00000100000000000000000000000000000000000000000000      
RGRST980027710314  0090000000000232294132005030     00000000209859000000000000000068KWH 00000100000000000000000000002115788000000002105039      
RGRST980027710314  0140000000000232294132501016     00000000003128000000000000000058KW  00000100000000000000000000000031640000000000031415      
RGRST980027710314  0080000000000232294131905020     00000000196774000000000000000068KWH 00000100000000000000000000001986663000000001974836      
RGRST980027710314  0180000000000232294132901118     00000000000548000000000000000058KVR 00000100000000000000000000000005522000000000005495      
RGRST980027710314  0010000000000232294131206888     00000000000000000000000000000010   X00000100000000000000000000000000000000000000000000      
RGRST980027710314  0170000000000232294132802280     00000000000002000000000000000053KVRX00000100000000000000000000000000000000000000000000      
RGRST980027710314  0040000000000232294131506095_1   00000000000000000000000000000020   X00000100000000000000000000000000000000000000000000      
RGRST980027710314  0030000000000232294131406091_T   00000000040100000000000000000060   X00000100000000000000000000000000000000000000000000      
RGRST980027710314  0050000000000232294131603096     00000000006900000000000000000080   X00000100000000000000000000000000000000000000000000      
CGRST980023066400  020023310733AMR     EDMI MK6            0000800000        000000000000000000000                                       88811207081019111888112   
RGRST980023066400  0130000000000232294084001015     00000000034500700000000000000008KW  00000100000000000000000000000346446000000000345546      
RGRST980023066400  0050000000000232294083203096     00000000015200000000000000000060   X00000100000000000000000000000000000000000000000000      
RGRST980023066400  0060000000000232294083305111     00000008014948000000000000000002KWHX00000100000000000000000000000000000000000000000000      
RGRST980023066400  0020000000000232294082906090_2D  00000029052000000000000000000060   X00000100000000000000000000000000000000000000000000      
RGRST980023066400  0010000000000232294082806888     00000000000000000000000000000010   X00000100000000000000000000000000000000000000000000      
RGRST980023066400  0110000000000232294083802060     00000000000087800000000000000003KW X00000100000000000000000000000000000000000000000000      
RGRST980023066400  0150000000000232294084201017     00000000032120400000000000000008KW  00000100000000000000000000000322644000000000321744      
RGRST980023066400  0070000000000232294083405010     00000005107490000000000000000008KWH 00000100000000000000000000051259694000000051144197      
RGRST980023066400  0030000000000232294083006091_T   00000000035800000000000000000040   X00000100000000000000000000000000000000000000000000      
RGRST980023066400  0040000000000232294083106095_1   00000000000000000000000000000000   X00000100000000000000000000000000000000000000000000      
RGRST980023066400  0090000000000232294083605030     00000001872730000000000000000008KWH 00000100000000000000000000018880405000000018784714      
RGRST980023066400  0080000000000232294083505020     00000001034728000000000000000008KWH 00000100000000000000000000010475899000000010395512      
RGRST980023066400  0100000000000232294083702050     00000000000096000000000000000003KW X00000100000000000000000000000000000000000000000000      
RGRST980023066400  0180000000000232294084501118     00000000016627400000000000000008KVR 00000100000000000000000000000166751000000000166453      
RGRST980023066400  0140000000000232294084101016     00000000027997900000000000000008KW  00000100000000000000000000000281440000000000280527      
RGRST980023066400  0160000000000232294084305222     00000003492502000000000000000003KVHX00000100000000000000000000000000000000000000000000      
RGRST980023066400  0170000000000232294084402280     00000000000019100000000000000003KVRX00000100000000000000000000000000000000000000000000      
RGRST980023066400  0120000000000232294083902070     00000000000084000000000000000003KW X00000100000000000000000000000000000000000000000000      
CGRST980027702098  020022801696AMR     EDMI MK10E          0000300000        000000000000000000000                                       88810507081019111888105   
RGRST980027702098  0180000000000232295479201118     00000000000099200000000000000058KVR 00000100000000000000000000000001216000000000001076      
RGRST980027702098  0030000000000232295477706091_T   00000000035900000000000000000060   X00000100000000000000000000000000000000000000000000      
RGRST980027702098  0130000000000232295478701015     00000000004705200000000000000058KW  00000100000000000000000000000049577000000000047999      
RGRST980027702098  0020000000000232295477606090_2D  00000029052000000000000000000060   X00000100000000000000000000000000000000000000000000      
RGRST980027702098  0150000000000232295478901017     00000000004822400000000000000058KW  00000100000000000000000000000050362000000000049025      
RGRST980027702098  0090000000000232295478305030     00000000577466000000000000000068KWH 00000100000000000000000000005947929000000005839636      
RGRST980027702098  0120000000000232295478602070     00000000000122000000000000000053KW X00000100000000000000000000000000000000000000000000      
RGRST980027702098  0110000000000232295478502060     00000000000152800000000000000053KW X00000100000000000000000000000000000000000000000000      
RGRST980027702098  0140000000000232295478801016     00000000004964400000000000000058KW  00000100000000000000000000000052044000000000050544      
RGRST980027702098  0060000000000232295478005111     00000001797379000000000000000062KWHX00000100000000000000000000000000000000000000000000      
RGRST980027702098  0050000000000232295477903096     00000000007700000000000000000080   X00000100000000000000000000000000000000000000000000      
RGRST980027702098  0170000000000232295479102280     00000000000014000000000000000053KVRX00000100000000000000000000000000000000000000000000      
RGRST980027702098  0100000000000232295478402050     00000000000156000000000000000053KW X00000100000000000000000000000000000000000000000000      
RGRST980027702098  0080000000000232295478205020     00000000563149000000000000000068KWH 00000100000000000000000000005800143000000005694735      
RGRST980027702098  0010000000000232295477506888     00000000000000000000000000000010   X00000100000000000000000000000000000000000000000000      
RGRST980027702098  0160000000000232295479005222     00000000024749000000000000000062KVHX00000100000000000000000000000000000000000000000000      
RGRST980027702098  0070000000000232295478105010     00000000656764000000000000000068KWH 00000100000000000000000000006719903000000006624738      
RGRST980027702098  0040000000000232295477806095_1   00000000000000000000000000000020   X00000100000000000000000000000000000000000000000000      
CGRST980023075778  020021350453AMR     EDMI MK6            0000300000        000000000000000000000                                       00060007081019000000600   
RGRST980023075778  0010000000000232293829206888     00000000000000000000000000000010   X00000100000000000000000000000000000000000000000000      
RGRST980023075778  0130000000000232293860401015     00000000012724400000000000000008KW  00000100000000000000000000000127244000000000127244      
RGRST980023075778  0100000000000232293860102050     00000000000175000000000000000003KW X00000100000000000000000000000000000000000000000000      
RGRST980023075778  0060000000000232293829705111     00000002155175000000000000000002KWHX00000100000000000000000000000000000000000000000000      
RGRST980023075778  0080000000000232293829905020     00000000369965000000000000000008KWH 00000100000000000000000000003699650000000003699650      
RGRST980023075778  0120000000000232293860302070     00000000000176200000000000000003KW X00000100000000000000000000000000000000000000000000      
RGRST980023075778  0160000000000232293860705222     00000002638133000000000000000003KVHX00000100000000000000000000000000000000000000000000      
RGRST980023075778  0180000000000232293860901118     00000000014510400000000000000008KVR 00000100000000000000000000000145104000000000145104      
RGRST980023075778  0090000000000232293830005030     00000000470590000000000000000008KWH 00000100000000000000000000004705900000000004705900      
RGRST980023075778  0030000000000232293829406091_T   00000000040100000000000000000040   X00000100000000000000000000000000000000000000000000      
RGRST980023075778  0110000000000232293860202060     00000000000177400000000000000003KW X00000100000000000000000000000000000000000000000000      
RGRST980023075778  0050000000000232293829603096     00000000013600000000000000000060   X00000100000000000000000000000000000000000000000000      
RGRST980023075778  0040000000000232293829506095_1   00000000000000000000000000000000   X00000100000000000000000000000000000000000000000000      
RGRST980023075778  0170000000000232293860802280     00000000000004900000000000000003KVRX00000100000000000000000000000000000000000000000000      
RGRST980023075778  0070000000000232293829805010     00000001314620000000000000000008KWH 00000100000000000000000000013146200000000013146200      
RGRST980023075778  0020000000000232293829306090_2D  00000029052000000000000000000060   X00000100000000000000000000000000000000000000000000      
RGRST980023075778  0140000000000232293860501016     00000000010270500000000000000008KW  00000100000000000000000000000102705000000000102705      
RGRST980023075778  0150000000000232293860601017     00000000010875000000000000000008KW  00000100000000000000000000000108750000000000108750      
HGRST98010010000000000000000000000000000000000000002020062895501AR6     
CGRST980127710587  020018315114AMR     EDMI MK10E          0000800000101/45  000000000000000000000                                       0010000708101908001000    
RGRST980127710587  0130000000000232420056701015     00000000000801200000000000000058KW  00000100000000000000000000000008228000000000008093      
RGRST980127710587  0050000000000232420055903096     00000000007200000000000000000080   X00000100000000000000000000000000000000000000000000      
RGRST980127710587  0180000000000232420057201118     00000000000513600000000000000058KVR 00000100000000000000000000000005264000000000005184      
RGRST980127710587  0160000000000232420057005222     00000000041756000000000000000053KVHX00000100000000000000000000000000000000000000000000      
RGRST980127710587  0070000000000232420056105010     00000000051070000000000000000068KWH 00000100000000000000000000000526712000000000516704      
RGRST980127710587  0080000000000232420056205020     00000000022915000000000000000068KWH 00000100000000000000000000000234905000000000231308      
RGRST980127710587  0100000000000232420056402050     00000000000011600000000000000053KW X00000100000000000000000000000000000000000000000000      
RGRST980127710587  0030000000000232420055706091_T   00000000040300000000000000000060   X00000100000000000000000000000000000000000000000000      
RGRST980127710587  0060000000000232420056005111     00000000095392000000000000000062KWHX00000100000000000000000000000000000000000000000000      
RGRST980127710587  0040000000000232420055806095_1   00000000000000000000000000000020   X00000100000000000000000000000000000000000000000000      
RGRST980127710587  0090000000000232420056305030     00000000021407000000000000000068KWH 00000100000000000000000000000217891000000000215502      
RGRST980127710587  0020000000000232420055606090_2D  00000029052000000000000000000060   X00000100000000000000000000000000000000000000000000      
RGRST980127710587  0140000000000232420056801016     00000000000399600000000000000058KW  00000100000000000000000000000004084000000000004029      
RGRST980127710587  0110000000000232420056502060     00000000000004400000000000000053KW X00000100000000000000000000000000000000000000000000      
RGRST980127710587  0170000000000232420057102280     00000000000006800000000000000053KVRX00000100000000000000000000000000000000000000000000      
RGRST980127710587  0150000000000232420056901017     00000000000522400000000000000058KW  00000100000000000000000000000005352000000000005272      
RGRST980127710587  0120000000000232420056602070     00000000000004400000000000000053KW X00000100000000000000000000000000000000000000000000      
RGRST980127710587  0010000000000232420055506888     00000000000000000000000000000010   X00000100000000000000000000000000000000000000000000      
CGRST980123068436  020019514450AMR     EDMI MK6            0000500000222/8   000000000000000000000                                       0503300708101908050330    
RGRST980123068436  0010000000000232420080906888     00000000000000000000000000000010   X00000100000000000000000000000000000000000000000000      
RGRST980123068436  0140000000000232420082201016     00000000015897400000000000000008KW  00000100000000000000000000000162231000000000160195      
RGRST980123068436  0060000000000232420081405111     00000003325035000000000000000003KWHX00000100000000000000000000000000000000000000000000      
RGRST980123068436  0150000000000232420082301017     00000000016129400000000000000008KW  00000100000000000000000000000164598000000000162533      
RGRST980123068436  0030000000000232420081106091_T   00000000040300000000000000000040   X00000100000000000000000000000000000000000000000000      
RGRST980123068436  0180000000000232420082601118     00000000005564500000000000000008KVR 00000100000000000000000000000056496000000000055964      
RGRST980123068436  0100000000000232420081802050     00000000000165500000000000000003KW X00000100000000000000000000000000000000000000000000      
RGRST980123068436  0110000000000232420081902060     00000000000165900000000000000003KW X00000100000000000000000000000000000000000000000000      
RGRST980123068436  0130000000000232420082101015     00000000017265800000000000000008KW  00000100000000000000000000000175973000000000173901      
RGRST980123068436  0070000000000232420081505010     00000002179742000000000000000008KWH 00000100000000000000000000022239632000000021963249      
RGRST980123068436  0090000000000232420081705030     00000000685347000000000000000008KWH 00000100000000000000000000007011219000000006912626      
RGRST980123068436  0080000000000232420081605020     00000000459946000000000000000008KWH 00000100000000000000000000004701970000000004637901      
RGRST980123068436  0020000000000232420081006090_2D  00000029052000000000000000000060   X00000100000000000000000000000000000000000000000000      
RGRST980123068436  0040000000000232420081206095_1   00000000000000000000000000000000   X00000100000000000000000000000000000000000000000000      
RGRST980123068436  0170000000000232420082502280     00000000000041600000000000000003KVRX00000100000000000000000000000000000000000000000000      
RGRST980123068436  0160000000000232420082405222     00000000631171000000000000000003KVHX00000100000000000000000000000000000000000000000000      
RGRST980123068436  0120000000000232420082002070     00000000000168400000000000000003KW X00000100000000000000000000000000000000000000000000      
RGRST980123068436  0050000000000232420081303096     00000000014500000000000000000060   X00000100000000000000000000000000000000000000000000      
CGRST98015701544508020017480493AMR     EDMI MK10E          000050000056/20   000000000000000000000                                       0505000708101908050500    
RGRST980157015445080130000000000232420039501015     00000000006941200000000000000058KW  00000100000000000000000000000071911000000000070349      
RGRST980157015445080020000000000232420038406090_2D  00000029052000000000000000000060   X00000100000000000000000000000000000000000000000000      
RGRST980157015445080160000000000232420039805222     00000000749791000000000000000053KVHX00000100000000000000000000000000000000000000000000      
RGRST980157015445080050000000000232420038703096     00000000005700000000000000000080   X00000100000000000000000000000000000000000000000000      
RGRST980157015445080170000000000232420039902280     00000000000088400000000000000053KVRX00000100000000000000000000000000000000000000000000      
RGRST980157015445080090000000000232420039105030     00000000113888000000000000000068KWH 00000100000000000000000000001177676000000001153428      
RGRST980157015445080180000000000232420040001118     00000000005581200000000000000058KVR 00000100000000000000000000000057606000000000056484      
RGRST980157015445080070000000000232420038905010     00000000744388000000000000000068KWH 00000100000000000000000000007729181000000007550868      
RGRST980157015445080150000000000232420039701017     00000000003713600000000000000058KW  00000100000000000000000000000038583000000000037678      
RGRST980157015445080100000000000232420039202050     00000000000117200000000000000053KW X00000100000000000000000000000000000000000000000000      
RGRST980157015445080140000000000232420039601016     00000000005669600000000000000058KW  00000100000000000000000000000058882000000000057516      
RGRST980157015445080110000000000232420039302060     00000000000123600000000000000053KW X00000100000000000000000000000000000000000000000000      
RGRST980157015445080010000000000232420038306888     00000000000000000000000000000010   X00000100000000000000000000000000000000000000000000      
RGRST980157015445080080000000000232420039005020     00000000148904000000000000000068KWH 00000100000000000000000000001553537000000001513226      
RGRST980157015445080030000000000232420038506091_T   00000000040300000000000000000060   X00000100000000000000000000000000000000000000000000      
RGRST980157015445080060000000000232420038805111     00000001007180000000000000000062KWHX00000100000000000000000000000000000000000000000000      
RGRST980157015445080040000000000232420038606095_1   00000000000000000000000000000020   X00000100000000000000000000000000000000000000000000      
RGRST980157015445080120000000000232420039402070     00000000000031200000000000000053KW X00000100000000000000000000000000000000000000000000      
CGRST980127710603  020019520301AMR     EDMI MK10E          0000800000101/124 000000000000000000000                                       0010500708101908001050    
RGRST980127710603  0060000000000232420059605111     00000000219066000000000000000062KWHX00000100000000000000000000000000000000000000000000      
RGRST980127710603  0110000000000232420080102060     00000000000016800000000000000053KW X00000100000000000000000000000000000000000000000000      
RGRST980127710603  0080000000000232420059805020     00000000039194000000000000000068KWH 00000100000000000000000000000409062000000000398361      
RGRST980127710603  0010000000000232420059106888     00000000000000000000000000000010   X00000100000000000000000000000000000000000000000000      
RGRST980127710603  0040000000000232420059406095_1   00000000000000000000000000000020   X00000100000000000000000000000000000000000000000000      
RGRST980127710603  0090000000000232420059905030     00000000035515000000000000000068KWH 00000100000000000000000000000370203000000000360795      
RGRST980127710603  0130000000000232420080301015     00000000001784000000000000000058KW  00000100000000000000000000000018405000000000018052      
RGRST980127710603  0020000000000232420059206090_2D  00000029052000000000000000000060   X00000100000000000000000000000000000000000000000000      
RGRST980127710603  0150000000000232420080501017     00000000001028400000000000000058KW  00000100000000000000000000000010700000000000010440      
RGRST980127710603  0050000000000232420059503096     00000000007100000000000000000080   X00000100000000000000000000000000000000000000000000      
RGRST980127710603  0070000000000232420059705010     00000000144357000000000000000068KWH 00000100000000000000000000001508342000000001467859      
RGRST980127710603  0180000000000232420080801118     00000000001083200000000000000058KVR 00000100000000000000000000000011101000000000010933      
RGRST980127710603  0160000000000232420080605222     00000000095004000000000000000053KVHX00000100000000000000000000000000000000000000000000      
RGRST980127710603  0120000000000232420080202070     00000000000015200000000000000053KW X00000100000000000000000000000000000000000000000000      
RGRST980127710603  0170000000000232420080702280     00000000000012800000000000000053KVRX00000100000000000000000000000000000000000000000000      
RGRST980127710603  0100000000000232420060002050     00000000000027200000000000000053KW X00000100000000000000000000000000000000000000000000      
RGRST980127710603  0030000000000232420059306091_T   00000000035800000000000000000060   X00000100000000000000000000000000000000000000000000      
RGRST980127710603  0140000000000232420080401016     00000000001261600000000000000058KW  00000100000000000000000000000013048000000000012778      
CGRST980127703100  020018255569AMR     EDMI MK10E          0000800000102/3   000000000000000000000                                       0503500708101908050350    
RGRST980127703100  0110000000000232420054702060     00000000000102800000000000000053KW X00000100000000000000000000000000000000000000000000      
RGRST980127703100  0050000000000232420054103096     00000000007400000000000000000080   X00000100000000000000000000000000000000000000000000      
RGRST980127703100  0070000000000232420054305010     00000001039737000000000000000068KWH 00000100000000000000000000010729441000000010521896      
RGRST980127703100  0100000000000232420054602050     00000000000114400000000000000053KW X00000100000000000000000000000000000000000000000000      
RGRST980127703100  0060000000000232420054205111     00000001447836000000000000000062KWHX00000100000000000000000000000000000000000000000000      
RGRST980127703100  0140000000000232420055001016     00000000006868800000000000000058KW  00000100000000000000000000000070782000000000069473      
RGRST980127703100  0180000000000232420055401118     00000000003100800000000000000058KVR 00000100000000000000000000000031802000000000031305      
RGRST980127703100  0020000000000232420053806090_2D  00000029052000000000000000000060   X00000100000000000000000000000000000000000000000000      
RGRST980127703100  0010000000000232420053706888     00000000000000000000000000000010   X00000100000000000000000000000000000000000000000000      
RGRST980127703100  0120000000000232420054802070     00000000000112800000000000000053KW X00000100000000000000000000000000000000000000000000      
RGRST980127703100  0170000000000232420055302280     00000000000042800000000000000053KVRX00000100000000000000000000000000000000000000000000      
RGRST980127703100  0080000000000232420054405020     00000000252190000000000000000068KWH 00000100000000000000000000002607384000000002553956      
RGRST980127703100  0130000000000232420054901015     00000000008019200000000000000058KW  00000100000000000000000000000082506000000000081059      
RGRST980127703100  0030000000000232420053906091_T   00000000040200000000000000000060   X00000100000000000000000000000000000000000000000000      
RGRST980127703100  0150000000000232420055101017     00000000003483600000000000000058KW  00000100000000000000000000000036813000000000035577      
RGRST980127703100  0040000000000232420054006095_1   00000000000000000000000000000020   X00000100000000000000000000000000000000000000000000      
RGRST980127703100  0090000000000232420054505030     00000000155909000000000000000068KWH 00000100000000000000000000001610829000000001578492      
RGRST980127703100  0160000000000232420055205222     00000000478348000000000000000053KVHX00000100000000000000000000000000000000000000000000      
CGRST980125248850  020001324397AMR     EDMI MK6            000030000056/4    000000000000000000000                                       0502000708101908050200    
RGRST980125248850  0160000000000232420053405222     00000000433337000000000000000003KVHX00000100000000000000000000000000000000000000000000      
RGRST980125248850  0150000000000232420053301017     00000000018346800000000000000008KW  00000100000000000000000000000184848000000000183985      
RGRST980125248850  0110000000000232420052902060     00000000000070300000000000000003KW X00000100000000000000000000000000000000000000000000      
RGRST980125248850  0040000000000232420052206095_1   00000000000000000000000000000000   X00000100000000000000000000000000000000000000000000      
RGRST980125248850  0070000000000232420052505010     00000002071041000000000000000008KWH 00000100000000000000000000020901030000000020781892      
RGRST980125248850  0180000000000232420053601118     00000000010660500000000000000008KVR 00000100000000000000000000000108853000000000107448      
RGRST980125248850  0060000000000232420052405111     00000003172548000000000000000003KWHX00000100000000000000000000000000000000000000000000      
RGRST980125248850  0080000000000232420052605020     00000000537364000000000000000008KWH 00000100000000000000000000005437093000000005397434      
RGRST980125248850  0030000000000232420052106091_T   00000000035800000000000000000040   X00000100000000000000000000000000000000000000000000      
RGRST980125248850  0100000000000232420052802050     00000000000102400000000000000003KW X00000100000000000000000000000000000000000000000000      
RGRST980125248850  0090000000000232420052705030     00000000564143000000000000000008KWH 00000100000000000000000000005679745000000005655798      
RGRST980125248850  0140000000000232420053201016     00000000015534300000000000000008KW  00000100000000000000000000000156601000000000155814      
RGRST980125248850  0120000000000232420053002070     00000000000016500000000000000003KW X00000100000000000000000000000000000000000000000000      
RGRST980125248850  0020000000000232420052006090_2D  00000029052000000000000000000060   X00000100000000000000000000000000000000000000000000      
RGRST980125248850  0170000000000232420053502280     00000000000114400000000000000003KVRX00000100000000000000000000000000000000000000000000      
RGRST980125248850  0010000000000232420051906888     00000000000000000000000000000010   X00000100000000000000000000000000000000000000000000      
RGRST980125248850  0130000000000232420053101015     00000000024920500000000000000008KW  00000100000000000000000000000251252000000000249972      
RGRST980125248850  0050000000000232420052303096     00000000012900000000000000000060   X00000100000000000000000000000000000000000000000000      
CGRST980127674187  020001258487AMR     EDMI MK10E          0000300000        000000000000000000000                                       0495000708101908049500    
RGRST980127674187  0170000000000232420058902280     00000000000055600000000000000053KVRX00000100000000000000000000000000000000000000000000      
RGRST980127674187  0050000000000232420057703096     00000000009700000000000000000080   X00000100000000000000000000000000000000000000000000      
RGRST980127674187  0160000000000232420058805222     00000000510929000000000000000053KVHX00000100000000000000000000000000000000000000000000      
RGRST980127674187  0140000000000232420058601016     00000000007089200000000000000058KW  00000100000000000000000000000072532000000000071507      
RGRST980127674187  0100000000000232420058202050     00000000000085600000000000000053KW X00000100000000000000000000000000000000000000000000      
RGRST980127674187  0010000000000232420057306888     00000000000000000000000000000010   X00000100000000000000000000000000000000000000000000      
RGRST980127674187  0070000000000232420057905010     00000001087905000000000000000068KWH 00000100000000000000000000011145297000000010978892      
RGRST980127674187  0130000000000232420058501015     00000000008082800000000000000058KW  00000100000000000000000000000082576000000000081483      
RGRST980127674187  0120000000000232420058402070     00000000000082400000000000000053KW X00000100000000000000000000000000000000000000000000      
RGRST980127674187  0060000000000232420057805111     00000002037874000000000000000062KWHX00000100000000000000000000000000000000000000000000      
RGRST980127674187  0090000000000232420058105030     00000000478866000000000000000068KWH 00000100000000000000000000004916906000000004836752      
RGRST980127674187  0020000000000232420057406090_2D  00000029052000000000000000000060   X00000100000000000000000000000000000000000000000000      
RGRST980127674187  0180000000000232420059001118     00000000004694400000000000000058KVR 00000100000000000000000000000048240000000000047430      
RGRST980127674187  0030000000000232420057506091_T   00000000040300000000000000000060   X00000100000000000000000000000000000000000000000000      
RGRST980127674187  0150000000000232420058701017     00000000007144800000000000000058KW  00000100000000000000000000000073332000000000072154      
RGRST980127674187  0080000000000232420058005020     00000000471103000000000000000068KWH 00000100000000000000000000004828855000000004755214      
RGRST980127674187  0040000000000232420057606095_1   00000000000000000000000000000020   X00000100000000000000000000000000000000000000000000      
RGRST980127674187  0110000000000232420058302060     00000000000079600000000000000053KW X00000100000000000000000000000000000000000000000000      
CGRST980127708655  020021217256AMR     EDMI MK10E          0000500000101/62/1000000000000000000000                                       001300                    
RGRST980127708655  0080000000000232420083405020     00000000078639000000000000000068KWH 00000100000000000000000000000807637000000000794357      
RGRST980127708655  0140000000000232420084001016     00000000001938800000000000000058KW  00000100000000000000000000000020372000000000019757      
RGRST980127708655  0180000000000232420084401118     00000000000138800000000000000058KVR 00000100000000000000000000000001886000000000001574      
RGRST980127708655  0040000000000232420083006095_1   00000000000000000000000000000020   X00000100000000000000000000000000000000000000000000      
RGRST980127708655  0110000000000232420083702060     00000000000052000000000000000053KW X00000100000000000000000000000000000000000000000000      
RGRST980127708655  0170000000000232420084302280     00000000000027200000000000000053KVRX00000100000000000000000000000000000000000000000000      
RGRST980127708655  0050000000000232420083103096     00000000007200000000000000000080   X00000100000000000000000000000000000000000000000000      
RGRST980127708655  0160000000000232420084205222     00000000001266000000000000000053KVHX00000100000000000000000000000000000000000000000000      
RGRST980127708655  0070000000000232420083305010     00000000255689000000000000000068KWH 00000100000000000000000000002672605000000002600283      
RGRST980127708655  0030000000000232420082906091_T   00000000040100000000000000000060   X00000100000000000000000000000000000000000000000000      
RGRST980127708655  0090000000000232420083505030     00000000086943000000000000000068KWH 00000100000000000000000000000895597000000000879242      
RGRST980127708655  0130000000000232420083901015     00000000002425200000000000000058KW  00000100000000000000000000000025476000000000024711      
RGRST980127708655  0100000000000232420083602050     00000000000067600000000000000053KW X00000100000000000000000000000000000000000000000000      
RGRST980127708655  0010000000000232420082706888     00000000000000000000000000000010   X00000100000000000000000000000000000000000000000000      
RGRST980127708655  0120000000000232420083802070     00000000000059600000000000000053KW X00000100000000000000000000000000000000000000000000      
RGRST980127708655  0150000000000232420084101017     00000000002058800000000000000058KW  00000100000000000000000000000021702000000000021005      
RGRST980127708655  0020000000000232420082806090_2D  00000029052000000000000000000060   X00000100000000000000000000000000000000000000000000      
RGRST980127708655  0060000000000232420083205111     00000000421271000000000000000062KWHX00000100000000000000000000000000000000000000000000      
CGRST980127584528  020001326335AMR     EDMI MK6N           000050000056      000000000000000000000                                       0500000708101908050000    
RGRST980127584528  0040000000000232420050406095_1   00000000000000000000000000000000   X00000100000000000000000000000000000000000000000000      
RGRST980127584528  0180000000000232420051801118     00000000002147600000000000000068KVR 00000100000000000000000000000021734000000000021572      
RGRST980127584528  0100000000000232420051002050     00000000000006800000000000000063KW X00000100000000000000000000000000000000000000000000      
RGRST980127584528  0160000000000232420051605222     00000000080672000000000000000062KVHX00000100000000000000000000000000000000000000000000      
RGRST980127584528  0050000000000232420050503096     00000000010100000000000000000060   X00000100000000000000000000000000000000000000000000      
RGRST980127584528  0010000000000232420050106888     00000000000000000000000000000010   X00000100000000000000000000000000000000000000000000      
RGRST980127584528  0170000000000232420051702280     00000000000001700000000000000063KVRX00000100000000000000000000000000000000000000000000      
RGRST980127584528  0070000000000232420050705010     00000000147487000000000000000068KWH 00000100000000000000000000001487708000000001479684      
RGRST980127584528  0020000000000232420050206090_2D  00000029052000000000000000000060   X00000100000000000000000000000000000000000000000000      
RGRST980127584528  0080000000000232420050805020     00000000184550000000000000000068KWH 00000100000000000000000000001867368000000001853700      
RGRST980127584528  0140000000000232420051401016     00000000002037500000000000000068KW  00000100000000000000000000000020659000000000020481      
RGRST980127584528  0060000000000232420050605111     00000000466654000000000000000062KWHX00000100000000000000000000000000000000000000000000      
RGRST980127584528  0130000000000232420051301015     00000000004187800000000000000068KW  00000100000000000000000000000042288000000000042031      
RGRST980127584528  0150000000000232420051501017     00000000001964300000000000000068KW  00000100000000000000000000000019787000000000019697      
RGRST980127584528  0030000000000232420050306091_T   00000000040000000000000000000040   X00000100000000000000000000000000000000000000000000      
RGRST980127584528  0110000000000232420051102060     00000000000006800000000000000063KW X00000100000000000000000000000000000000000000000000      
RGRST980127584528  0090000000000232420050905030     00000000134617000000000000000068KWH 00000100000000000000000000001362364000000001352242      
RGRST980127584528  0120000000000232420051202070     00000000000006900000000000000063KW X00000100000000000000000000000000000000000000000000      
CGRST980127584524  020001086066AMR     EDMI MK6N           0000300000101/111 000000000000000000000                                       0490000708101908049000    
RGRST980127584524  0120000000000232420085602070     00000000000175500000000000000003KW X00000100000000000000000000000000000000000000000000      
RGRST980127584524  0030000000000232420084706091_T   00000000040000000000000000000040   X00000100000000000000000000000000000000000000000000      
RGRST980127584524  0080000000000232420085205020     00000000371773000000000000000008KWH 00000100000000000000000000003816961000000003754941      
RGRST980127584524  0010000000000232420084506888     00000000000000000000000000000010   X00000100000000000000000000000000000000000000000000      
RGRST980127584524  0110000000000232420085502060     00000000000156000000000000000003KW X00000100000000000000000000000000000000000000000000      
RGRST980127584524  0150000000000232420085901017     00000000014148200000000000000008KW  00000100000000000000000000000144662000000000142674      
RGRST980127584524  0070000000000232420085105010     00000001658290000000000000000008KWH 00000100000000000000000000016927750000000016712218      
RGRST980127584524  0130000000000232420085701015     00000000015422200000000000000008KW  00000100000000000000000000000157409000000000155417      
RGRST980127584524  0160000000000232420086005222     00000002294826000000000000000003KVHX00000100000000000000000000000000000000000000000000      
RGRST980127584524  0060000000000232420085005111     00000002526241000000000000000002KWHX00000100000000000000000000000000000000000000000000      
RGRST980127584524  0090000000000232420085305030     00000000496178000000000000000008KWH 00000100000000000000000000005096694000000005012372      
RGRST980127584524  0140000000000232420085801016     00000000014040200000000000000008KW  00000100000000000000000000000143358000000000141510      
RGRST980127584524  0020000000000232420084606090_2D  00000029052000000000000000000060   X00000100000000000000000000000000000000000000000000      
RGRST980127584524  0180000000000232420086201118     00000000011021300000000000000008KVR 00000100000000000000000000000112520000000000111078      
RGRST980127584524  0050000000000232420084903096     00000000010100000000000000000060   X00000100000000000000000000000000000000000000000000      
RGRST980127584524  0170000000000232420086102280     00000000000132300000000000000003KVRX00000100000000000000000000000000000000000000000000      
RGRST980127584524  0100000000000232420085402050     00000000000182000000000000000003KW X00000100000000000000000000000000000000000000000000      
RGRST980127584524  0040000000000232420084806095_1   00000000000000000000000000000000   X00000100000000000000000000000000000000000000000000      